:020000040800F2
:10000000201C0120A10100085DBE0008BD7600088B
:1000100059BE00082922000885CD00080000000014
:1000200000000000000000000000000019C20008ED
:10003000493400080000000061BE00084DC30008FC
:10004000BB010008BB010008BB010008BB010008A0
:10005000BB010008BB010008BB010008BB01000890
:10006000BB010008BB010008BB010008BB01000880
:1000700099310008BB010008A9310008BB01000844
:10008000BB010008BB010008BB010008BB01000860
:10009000BB010008BB010008BB010008BB01000850
:1000A000BB010008BB010008BB010008BB01000840
:1000B000BB010008BB010008BB010008BB01000830
:1000C000BB010008BB010008BB010008BB01000820
:1000D000BB01000865CD0008BB01000875CD000814
:1000E000BB010008BB010008BB010008BB01000800
:1000F000BB010008BB010008BB010008BB010008F0
:10010000BB010008BB010008BB010008BB010008DF
:10011000BB010008BB010008BB010008BB010008CF
:10012000B9310008C9310008D9310008BB01000805
:10013000BB010008BB010008BB010008BB010008AF
:10014000BB010008BB010008BB010008BB0100089F
:10015000BB010008BB010008BB010008BB0100088F
:10016000BB010008BB010008BB010008BB0100087F
:10017000BB010008BB010008BB0100080000000033
:10018000BB010008BB010008DFF810D000F022FC22
:100190000048004741F00008AFF30080201C012018
:1001A0000648804706480047FEE7FEE7FEE7FEE711
:1001B000FEE7FEE7FEE7FEE7FEE7FEE709C400080C
:1001C000890100082DE9F05F0546002092469B4614
:1001D00088460646814640241BE02846414647465D
:1001E000224600F0A4FA53465A46C01A914110D351
:1001F00011461846224600F08BFA2D1A67EB0108CB
:100200004F4622460120002100F082FA17EB000938
:100210004E41201EA4F10104DFDC484631462A4647
:100220004346BDE8F09F000000487047D40901082C
:1002300040EA01039B0703D009E008C9121F08C068
:10024000042AFAD203E011F8013B00F8013B521EE8
:10025000F9D27047D2B201E000F8012B491EFBD25F
:1002600070470022F6E710B513460A4604461946C1
:10027000FFF7F0FF204610BD421C10F8011B0029BB
:10028000FBD1801A70472DE9F05F93460F468046F8
:10029000044600260CF08EFFD0F80090824614F839
:1002A000015B2DB1FFF7C0FF0068405DC007F6D1CC
:1002B0002B2D02D02D2D1AD0641E0021CAF800105B
:1002C0005A463946204600F054FA014627B13868AC
:1002D000A04201D1C7F80080DAF80000022809D056
:1002E000CAF80090700505D54842BDE8F09F46F475
:1002F0008066E2E70846F8E72DE9FE4F804681EA8E
:100300000300C00F0C46009021F0004123F000458F
:10031000B8EB0200A94105D24046214690461C4652
:100320000B46024623F00040104347D0270DC7F389
:100330000A00C3F30A510290401A019040286BDA78
:10034000C3F3130040F4801B0098924620B10023B1
:10035000D2EB030A63EB0B0B01985946C0F1400244
:10036000504600F0D5F906460D4650465946019ACA
:1003700000F0EDF910EB08006141002487EA11520A
:1003800084EAE7731A4340D0009A62B3019A012AC3
:100390004FEA075215DC001B61EB02014FF00042EF
:1003A00002EA0752CDE90042001C41F580113246B5
:1003B0002B4600F091FA03B0BDE8F08F404621468D
:1003C000F9E7001B61EB0201001C41F580130018E6
:1003D0005B412018A2F5001747EB030140EAD570F6
:1003E000B6196D4111E06D084FEA360645EAC07551
:1003F0004FEA0752001B61EB0201001C41F580111E
:1004000049084FEA30000019514132462B4603B0EB
:10041000BDE8F04F00F051BA0098012240000023DF
:10042000D0EB020263EBE073009821464FEAE074E0
:10043000B8EB000061EB0401E9E783F000435BE700
:1004400081F0004158E72DE9FE4F81EA030404F0F2
:10045000004421F0004100944FF0000B23F00043D2
:1004600050EA01045ED052EA03045BD0C3F30A549D
:10047000C1F30A552C44A4F2F3340194A0FB0254B6
:10048000C1F3130141F48011C3F3130343F4801348
:1004900001FB024400FB034E840A970A44EA81549C
:1004A00047EA8357A4FB076802958D0A05FB078579
:1004B0004FEA932C04FB0C542705029D4FEA065883
:1004C00047EA1637B5EB08056EEB070C870E920E60
:1004D00047EA811742EA8312A7FB0201B6EB0B0140
:1004E00064EB00042B0D43EA0C335E1844EB1C5004
:1004F000DA465146E7FB0201C5F313044FEA0B331A
:1005000043EA14534FEA0432019C43EA0603A4F180
:100510000C040294009CCDE900B400F0DDF903B0B6
:10052000BDE8F08F00200146F9E72DE9F04D81EAA2
:10053000030404F0004B21F0004514464FF0000A7C
:1005400023F0004150EA050220D054EA01021DD0F8
:10055000C5F30A570246C5F31303C1F31300C1F3F1
:100560000A5640F4801543F48013A7EB0608101BCD
:10057000D64608F2FD3873EB050002D308F10108F6
:1005800001E092185B41B8F1000F03DA0020014648
:10059000BDE8F08D00204FF48011064684460EE041
:1005A000171B73EB050705D3121B63EB050306430B
:1005B0004CEA010C49084FEA300092185B4150EABE
:1005C0000107EDD152EA030012D082EA040083EA67
:1005D0000501084305D0101BAB4106D201220023C0
:1005E00006E000224FF0004302E06FF001025310DA
:1005F0001AEB06004CEB085110EB0A0041EB0B0123
:10060000BDE8F04D00F059B90EB540F2334102910A
:100610000021CDE900110A460B4600F05DF903B058
:1006200000BDC1F30A5210B5C1F3130140F2FF330C
:1006300041F480119A4201DA002010BD40F23343A8
:100640009A42A2F2334203DC524200F070F810BD2D
:10065000904010BD00F0004230F000400AD0C10DC3
:1006600001F56071C0F3160042EA0151C20840076B
:1006700011437047002001467047000030B5041E4A
:1006800071F1000404DB4FF00044404264EB0101CF
:10069000141E73F1000405DB1C464FF00043524268
:1006A00063EB04038B4208BF824230BD01F000437C
:1006B00030B421F0004150EA010206D00A0DA2F543
:1006C0006072C1F31301002A02DC30BC00207047C5
:1006D000440F44EAC104C100E01830BC00EBC25032
:1006E00000F096B830B50B460146002020220124C8
:1006F00009E021FA02F59D4205D303FA02F5491BF0
:1007000004FA02F52844151EA2F10102F1DC30BD05
:10071000202A04DB203A00FA02F1002070479140C1
:10072000C2F1200320FA03F3194390407047202AB6
:1007300004DB203A21FA02F00021704721FA02F38B
:10074000D040C2F120029140084319467047202A48
:1007500006DBCB17203A41FA02F043EAE07306E0E9
:1007600041FA02F3D040C2F12002914008431946F9
:1007700070472DE9F05F82460078002715468B46CA
:100780000AF10104B946302801D09DB113E014F8F4
:10079000010B0127782803D0582801D045B10AE081
:1007A0000DB1102D07D10027102514F8010B02E020
:1007B000082500E00A250026B0460EE005FB0800EB
:1007C00005FB06F1012701EB10461FFA80F8B6F58C
:1007D000803F00D3B94614F8010B294600F00CF90C
:1007E0000028EBDABBF1000F05D00FB1641E00E06A
:1007F0005446CBF80040B9F1000F06D00CF0DAFCFB
:1008000002210160C81EBDE8F09F48EA0640FAE7F1
:100810000029A8BF7047401C490008BF20F0010014
:10082000704710B4B0FA80FC00FA0CF050EA0104F2
:1008300004BF10BC704749B1CCF1200421FA04F484
:1008400011FA0CF118BF012121430843A3EB0C015D
:10085000CB1D4FEA00614FEA102042BF002010BCC0
:10086000704700EBC35010440029A4BF10BC704770
:10087000401C490008BF20F0010010BC704710B5B3
:1008800041000CD0C0F3C751962908DC7E2909DC51
:1008900006DB410204D000F0004040F07E5010BD65
:1008A000002010BDC1F19604C4F1200100FA01F14D
:1008B000E040FFF7ADFFA04010BD10B5141E73F16E
:1008C000000408DA401C41F1000192185B411A4310
:1008D00001D120F0010010BD2DE9F04D92469B465C
:1008E00011B1B1FA81F202E0B0FA80F22032904602
:1008F000FFF70EFF04460F4640EA0A0041EA0B01EB
:1009000053465A46084313D0114653EA010019D002
:10091000C8F140025046FFF70AFF05460E46504612
:1009200059464246FFF7F4FE084305D0012004E093
:1009300020463946BDE8F08D0020054346EAE076C2
:100940002C4337430A986305E40AA0EB0800002211
:10095000FD0A44EA47540A3002D500200146E9E77F
:10096000010510196941DDE9084500196941BDE833
:10097000F04DA2E7C1F30A52C1F3130140F2FF3375
:1009800041F480119A4202DA00200146704740F299
:1009900033439A42A2F2334202DC5242FFF7C7BE0F
:1009A000FFF7B6BE30B5041E71F1000404DB4FF052
:1009B0000044404264EB0101141E73F1000405DBA6
:1009C0001C464FF00043524263EB0403994208BFB8
:1009D000904230BD064C074D06E0E06840F0010350
:1009E00094E8070098471034AC42F6D3FFF7D0FBE9
:1009F00064E6020884E602083A2800D2303820F083
:100A00002002412A01D3A2F13700884201D34FF0DE
:100A1000FF30704770B58C1810F8015B15F00703B4
:100A200001D110F8013B2A1106D110F8012B03E087
:100A300010F8016B01F8016B5B1EF9D12B0705D48F
:100A40000023521E0DD401F8013BFAE710F8013BD8
:100A5000CB1A921C03E013F8015B01F8015B521EF4
:100A6000F9D5A142D8D3002070BD0000F0B5F1B196
:100A7000002300BF02EB430C32F813E0BCF802C0C5
:100A80002EF0030E2CF0030C50F80E5050F80C60B2
:100A900000EB0E0400EB0C0740F80E6040F80C5021
:100AA0007E68656802338B4266607D60E2D3F0BD8C
:100AB0002DE9F0410488984616460746012A0D465E
:100AC0000CD1E4B3281D214690ED000A0139B1EEA6
:100AD000400A80ED000A00F10800F5D1FF2C0CDD82
:100AE000B4F5806F10DBB4F5805F22D0B4F5006FF1
:100AF00011D0B4F5806F17D021E03F2C10DC102C02
:100B000012D0202C07D01AE0B4F5807F03D0B4F5C2
:100B1000007F0ED013E03846294600F05FF90EE062
:100B2000402C06D0802C0AD13846294600F08AF89D
:100B300005E07A6828462146012300F099FBB8F1C8
:100B4000000F04D0B989BA682846FFF78FFF012E3D
:100B50001CD100EE104A002CB8EE400A08BFBDE8D8
:100B6000F081B7EE001A81EE000A00BF95ED001A81
:100B700095ED012A20EE011A22EE402A85ED001A99
:100B800085ED012A013C05F10805EFD1BDE8F081B2
:100B900000224260FF294FF0FF0201800EDDB1F517
:100BA000806F16DB29D0B1F5805F2BD0B1F5006FD7
:100BB00046D145F60073C0F6010336E03F2913DC49
:100BC000102924D020293BD145F62073C0F601031B
:100BD0002BE0B1F5807F1FD0B1F5007F30D145F615
:100BE0004073C0F6010320E040291AD0802927D1A4
:100BF00045F6E063C0F6010317E045F6D063C0F6A2
:100C0000010312E045F63073C0F601030DE045F62E
:100C1000F063C0F6010308E045F61073C0F6010367
:100C200003E045F65073C0F60103191D03F10802F5
:100C30000C331B88126809688381C0E90112002205
:100C400050B270472DE9F0472DED028B03888046A6
:100C5000084601EB830AD8F804200021B1EBD30F3A
:100C60004FEA530900F0AB80D9080AEB890C00EB7E
:100C7000890E0027C4190AEB070594ED000A95EDCB
:100C8000003A94ED011A95ED014A0EEB07030CEBC7
:100C9000070694ED022A95ED025A70EE035A93ED81
:100CA000006AD6ED001AD6ED012AD6ED023AD6ED4D
:100CB000034AC4ED005A71EE045A93ED017AC4ED73
:100CC000015A72EE055AD3ED020AC4ED025AD4ED70
:100CD000035AD5ED036A31EE441A35EEA68A36EE94
:100CE000214AD3ED037A84ED038A83ED004A37EE7F
:100CF000224A83ED014A30EEA34A83ED024A37EEE1
:100D0000A44A83ED034AD31931EEC64A33EEE06AB2
:100D1000D3ED000AD3ED011A30EE430A32EE452A34
:100D200032EEC75A60EE202A61EE213A21EE201AF7
:100D300020EE210A31EE400A85ED010A24EE210A57
:100D400025EE211A25EE205A72EEA32A24EE204A1F
:100D500030EE450AC5ED002A86ED000A34EE010AA0
:100D600086ED010A93ED020A93ED031A35EEE63A99
:100D700022EE004A23EE015A23EE003A22EE012A27
:100D800034EEE77A33EE422A85ED032A26EE012A75
:100D900027EE011A27EE003A26EE000A34EE054A45
:100DA00032EE432A30EE010A013907F1100785EDD2
:100DB000024A86ED022A86ED030A7FF45BAF4946BC
:100DC000022300F055FAD8F8042050464946022381
:100DD000BDEC028BBDE8F04700F04ABA2DE9F04FB8
:100DE00081B02DED088B8EB002880346500801EBD0
:100DF000800505EB800691ED000A91ED011A96ED54
:100E0000002A96ED013A04935B6806EB800730EE0A
:100E1000024A30EE420A31EE032A31EE431A95EDD2
:100E2000013A95ED005A0593930897ED017AD7EDB5
:100E3000000A029374EE452A72EE433A34EE054AF4
:100E400032EE032A6FF0010334EE204A32EE072A15
:100E500003EB920230EE036A71EE451A30EE430A5C
:100E600031EE051A81ED004A0A9181ED012A5108FF
:100E700036EE476A71EEA01A72EEE02A73EEC73AB8
:100E800030EE070A31EE601A0095019603970D9136
:100E9000C10085ED006AC5ED011AC6ED002AC6ED58
:100EA000013A87ED000A87ED011A0C9100EB400131
:100EB0006FF007036FF003074FEA800E07EBC00BDC
:100EC00007EB800A03EB001903EB81028C00002082
:100ED000002500210B9100BF0A9E059B07900695F7
:100EE000089406EB04080C9C311806EB040C06EB86
:100EF0000E0491ED020A9CED022AD4ED020A30EEB6
:100F0000026AD8ED022A36EE204A34EE224A91EDEA
:100F1000031A9CED033AD4ED031AD8ED033A81EDA0
:100F2000024A94ED034A31EE037A98ED035A37EE04
:100F3000044ACDF824E034EE054A81ED034A0B99CA
:100F400030EE420A31EE431A30EE212A03EB010E55
:100F500032EE634A31EE602A0D9932EE225A36EEB5
:100F6000602A37EE613A30EE610A31EE201A1F181E
:100F7000581932EE622A33EE633A30EE230A002922
:100F800031EE621A00F0CC800A998E1801EB0A0348
:100F900001EB0905594493ED007AD6ED010AD1ED34
:100FA000003A77EE202AD5ED014A72EEA35A75EE8B
:100FB000A45A13ED016AD6ED001A51ED016AD5ED80
:100FC000007AC3ED005A11ED018A76EE215A95EDB3
:100FD000009A35EE888A38EE098A03ED018A97ED8A
:100FE000028A97ED039A24EE08AA25EE09BA25EEA7
:100FF000085A24EE094A35EE444A37EE605A84ED29
:10100000034A36EE614A35EE666A33EEE47A36EE2E
:10101000276A74EE070A66EE091A20EE899A60EED6
:10102000880A26EE086A3AEE0BAA71EEE00A36EE5E
:10103000096A84ED02AAC1ED000A01ED016A90ED92
:10104000046AD0ED050A62EE061A23EE208A23EE2A
:10105000063A22EE202A33EE422A8CED032A32EEA3
:10106000E32A35EEE63A71EE881A33EE673A32EE4D
:10107000642A0D98CCED021A62EE461A23EE066A37
:1010800023EE203A22EE202A31EEC33A32EE462AEF
:10109000013886ED013A86ED002A0D909EED062A74
:1010A0009EED073A0C9820EE026A61EE030A21EEEB
:1010B000021A20EE030A083031EE400A37EEE61A33
:1010C000DDF824E00C9088ED030A37EE440A31EE97
:1010D000451A0B9821EE034A20EE033A20EE020A4D
:1010E00036EE206A21EE021A34EE400A183088EDFE
:1010F000026A85ED010A31EE030A089C0B9085ED2A
:10110000000A069D07980EF1080E083410350830C5
:10111000A9F10809083AABF1080BAAF1080ADBE6C5
:1011200097ED026A97ED037A64EE060A65EE071AF8
:1011300025EE065A24EE074A30EEA16A35EE444AFF
:1011400084ED026A84ED034A90ED044A90ED055A5D
:1011500022EE046A23EE057A23EE043A22EE052AF3
:1011600036EE074A33EE422A8CED024A8CED032A12
:101170009EED062A9EED073A029D20EE024A21EEE0
:10118000035A21EE021A20EE030A0A98059A34EE59
:10119000052A31EE400A2946042388ED022A88ED0B
:1011A000030A00F065F8049C00986268294604234D
:1011B00000F05EF8626801982946042300F058F8B0
:1011C00062680398294604230EB0BDEC088B01B079
:1011D000BDE8F04F00F04CB89FED221A9FED222A97
:1011E00020EE010AB5EE001A30EE010ABDEEC01A7B
:1011F00011EE100AB5EE400AF1EE10FAB8BF013850
:1012000001EE100AB8EEC11A30EE410A20EE020AD1
:10121000BDEEC01A9FED152A11EE100A002130EE26
:10122000021AB1EB502F45F660711CBF0020B0EEE2
:10123000410AC0F6010101EE100A01EB8001B8EE8F
:10124000411A30EE410A91ED001A91ED012AB7EEF4
:10125000003A33EE403A23EE011A20EE020A31EE54
:10126000000A704783F9223E00000044000000C4D9
:101270002DE9F04F81B02DED108BA0B0DFED04CA49
:1012800000900430CDE902320190CDE91E1101E059
:10129000F304353F1F9A4FF0000AD308DF00A7EB95
:1012A000D200C0001D904FEAC20C03EB430503EBD4
:1012B0008302580106931E01019B2C014FEAC20EC6
:1012C000ED00CDE90C0ECDE90A5600BF0A9D1918B4
:1012D00003EB05091D9D03EB0E0003EB070810ED62
:1012E000014A86469A19181903EB050B13ED011AEA
:1012F00011ED012A18ED013A12ED017A50ED010AC3
:1013000059ED011A5BED012A31EE025A33EE046AFF
:1013100077EE203A71EEA24A75EE235A76EE246AF1
:1013200075EEA67A43ED017A75EEE65AD8ED007AAD
:101330009EED008A99ED00BA9BED00CAD3ED006ADC
:1013400041ED015AD1ED005A92ED009A90ED00AABC
:1013500037EE88EA7BEE0C8A36EEA5DA39EE0AFA29
:1013600035EE635A36EE646A7EEE684A7DEE0F9A79
:101370007DEE4F3A35EE24DA35EE645A7EEE28AA39
:1013800002ED01DA33EEC6DA00ED015A36EE235AE9
:1013900031EE421A33EE442A37EE603A31EEE24A39
:1013A00037EEC86A7BEE4C0A79EEAABA79EEEA9A71
:1013B00072EE441A32EE042A36EE604A36EE206AA5
:1013C000C3ED00BAC1ED009A82ED00DA80ED005A5B
:1013D00036EEE55A39EE4A7A61EEAC1A22EE2C2A44
:1013E00024EE2C4A26EE2C6A71EE210A73EE022AB4
:1013F00075EE043A77EE064A31EE611A33EE422A70
:1014000035EE443A37EE464A2646744670EEA45A04
:1014100070EEE40A31EE045A1F9A1E9948ED015A03
:1014200073EEE25A4BED010A72EEA30A204604ED78
:10143000015A33EE425ADDF834E0C8ED005ACBEDE4
:10144000000A84ED005A0C9831EE441A34460B9E83
:10145000924409ED011A32EE031A8A45634489ED7C
:10146000001AFFF433AF1F984028C0F0D4810298CF
:10147000009E80B205900698CDE90E4CC0EBC000EE
:10148000C000002401251097049000BF0598039B1D
:10149000044403EBC40191ED000A03EB04128DED4B
:1014A0001D0A92ED000A04EB440203EBC2008DED2D
:1014B0001C0A90ED000A03EB44118DED1B0A91ED1F
:1014C000000A04EB8401C80003EBC1018DED1A0A88
:1014D00091ED000A4FEAC20A4FEA021B03EB021227
:1014E0008DED190A92ED000AC4EBC4024FEAC40C58
:1014F000D10003EBC2028DED180A92ED000A0CF147
:1015000004024FEA041E1A448DED170A92ED000AF8
:101510000EF104021A448DED160A92ED000A0AF14A
:1015200004024FEA44191A448DED150A92ED000A9F
:1015300009F104021A448DED140A92ED000A0430F8
:1015400018448DED130A90ED000A0BF104001844C5
:101550008DED120A90ED000A081D18440994D0ED93
:10156000006A0796B44608952B46DDE90C54DDE980
:101570000A76DDF810808DED110A00BF10980E99E3
:101580000CEB05090CEB000E0CEB04000CEB060B4E
:101590000CEB010A0CEB07020CEB0801DCED027A04
:1015A00099ED028A9EED029A90ED02AA9BED02DA75
:1015B0009AED02EA92ED02FAD1ED028A37EE88BA8C
:1015C00039EE0ACA7DEE0E9A7FEE28AA7BEE29BA82
:1015D000F0EE6C3A7CEE2ACA7BEEACDACCED02DAA5
:1015E0007BEEECBADCED03CAD9ED03DADEED03EAFB
:1015F000D0ED03FA9BED030A9AED031A92ED032A4C
:1016000091ED033A3CEEAD4A3EEEAF5A30EE016A40
:1016100032EE037A74EE060A75EE071ADDED1A4A09
:10162000DDED135A70EEA12A70EEE10ACCED032A2B
:1016300064EEAB1A65EEA02A71EEA21A64EEA00A5F
:1016400065EEAB2A70EEE20AC9ED021AC9ED030A93
:101650007BEE690A7CEE6A1A34EE464A35EE475A4A
:101660009DED1CCADDED154A30EE856A34EE617AD7
:101670006CEE062A24EE87BA2CEE077A24EE866AF0
:1016800030EEC55A31EE844ADDED180ADDED111A4F
:1016900037EE466A8BED036A20EE856A21EE847A86
:1016A00020EE844A21EE855A37EE066A34EE454A2A
:1016B00039EE4A5A3FEE687A7EEEEF1A30EE410A72
:1016C00032EE431A7BEE222A35EE472A35EE073AF0
:1016D00031EEC15A31EE811ACBED022A8AED026A4F
:1016E0008AED034A37EEC84A3DEE4E6A7CEEED0ABB
:1016F00022EE232A23EE233A25EE235A21EE231A43
:10170000F0EE63CA34EE027A76EE031A70EE852AA2
:1017100070EE017ADDED1D3ADDED164A37EE278ACF
:1017200032EEE19A23EE88AA24EE89BA23EE899A52
:10173000DDED173A37EE677A71EEA21A63EE872A6B
:1017400066EEA17A63EEA11A26EE877A24EE888AE5
:1017500031EEC77A34EE422A36EE433A30EEC54ACD
:1017600030EE410ADDED190ADDED121A39EE488A34
:1017700032EE001A34EE435A8EED038A81ED037A7D
:1017800020EE816A21EE857A20EE855A21EE811ABB
:101790003AEE0BAA72EEA72A36EE076A35EE411A28
:1017A0008EED02AAC1ED022A80ED026A80ED031AD5
:1017B0001F9833EE041A03441E989DED1B4A9DEDBD
:1017C000145A32EE400A83420F9824EE002A25EE86
:1017D000013A24EE011A25EE000A32EE032A31EE18
:1017E000400A844482ED022A82ED030AFFF4C6AE69
:1017F000089D0698079E0135099C854206F108065A
:10180000FFF444AE0298C00002901F983F2806984B
:101810001F903FF63FAD20B0BDEC108B01B0BDE88E
:10182000F08F10B578B14FF400710446FFF7B0F9AE
:1018300050B94FF48060208246F2E460C0F60200A6
:101840006061002000E0FF2040B210BD10B568B11B
:1018500040210446FFF79CF948B98020208247F2D6
:10186000E460C0F602006061002000E0FF2040B2AA
:1018700010BD10B578B14FF480610446FFF788F9C8
:1018800050B94FF40060208247F6E400C0F6020031
:101890006061002000E0FF2040B210BD10B570B1C3
:1018A00080210446FFF774F950B94FF4807020820C
:1018B00049F6E400C0F602006061002000E0FF206D
:1018C00040B210BD10B568B110210446FFF760F9B1
:1018D00048B92020208249F6E440C0F60200606149
:1018E000002000E0FF2040B210BD10B578B14FF4E9
:1018F00000610446FFF74CF950B94FF48050208244
:1019000049F66450C0F602006061002000E0FF204C
:1019100040B210BD10B578B14FF480710446FFF7A6
:1019200037F950B94FF4007020824DF66450C0F67C
:1019300002006061002000E0FF2040B210BD10B541
:1019400068B120210446FFF723F948B940202082DE
:101950004EF26450C0F602006061002000E0FF20FB
:1019600040B210BDF0B581B014460E46054673B1C5
:101970002846314622461F4600F0A8F82846214650
:101980003A46012301B0BDE8F040FFF791B8284680
:10199000314600220123FFF78BF8284631462246C4
:1019A00001B0BDE8F04000F0EBB8B1F5007F0ADA15
:1019B0007F2916DC202929D040293BD141F63F114F
:1019C000C0F600010847B1F5006F14DAB1F5007FE9
:1019D00021D0B1F5806F2DD141F62301C0F6000171
:1019E000084780291CD0B1F5807F23D141F69D01A5
:1019F000C0F600010847B1F5805F16D0B1F5006F61
:101A000018D141F67301C0F60001084741F6C5013F
:101A1000C0F60001084741F61511C0F6000108475D
:101A200041F64D01C0F60001084741F6EB01C0F652
:101A3000000108474FF0FF30704700009FED201A6B
:101A40009FED202A20EE010ABDEEC01A11EE100A09
:101A5000B5EE400AF1EE10FAB8BF013801EE100AF7
:101A6000B8EEC11A30EE410A20EE020ABDEEC01AED
:101A70009FED152A11EE100A002130EE021AB1EB8B
:101A8000502F45F660711CBF0020B0EE410AC0F631
:101A9000010101EE100A01EB8001B8EE411A30EEAF
:101AA000410A91ED001A91ED012AB7EE003A33EEAA
:101AB000403A23EE011A20EE020A31EE000A704786
:101AC00083F9223E00000044000000C480B591ED7F
:101AD000001A91ED012AD0F814E0008831EE023AA4
:101AE000B6EE000A31EE421AB0F1010C23EE003AD4
:101AF00021EE001A82ED003A82ED011A08BF80BD86
:101B000001F1080301EBCC010EF1080008320431A9
:101B100011ED011A91ED002A93ED003A93ED014A7F
:101B200090ED005A90ED016A33EE417A72EE040AAC
:101B300067EE051A60EE862A27EE066A31EE031A72
:101B400034EE422A25EE205A31EE611A32EE062A90
:101B500031EE621A32EE452A21EE001A22EE002AF8
:101B600082ED001A82ED012ABCF1010C03F1080399
:101B700000F1080002F10802A1F10801C8D180BDFE
:101B800091ED000A91ED011A0388406930EE002AB8
:101B900031EE011AA3F1010C32EE013AB6EE000A61
:101BA00032EE411A23EE003A21EE001A00F108034A
:101BB00001F1080001EBCC0182ED003A82ED011A3F
:101BC0000832043111ED011A90ED003A91ED002A2E
:101BD00090ED014A93ED005A93ED016A31EE437A9C
:101BE00072EE040A67EE051A27EE067A31EE031A42
:101BF00034EE422A25EE205A20EE866A31EE211A72
:101C000032EE072A31EE061A32EE452A21EE001A8C
:101C100022EE002A82ED001A82ED012ABCF1010CAD
:101C200003F1080300F1080002F10802A1F1080124
:101C3000C8D1704770B52DED088BB0EE408A0446D0
:101C400018EE100AFEF706FD41EC1B0B9FED1A0B78
:101C500053EC102BFEF7F7FB41EC1A0B9FED180B22
:101C600053EC102BFEF761FC41EC190BFEF7D9FC8D
:101C7000054644F4005646F4807000F0ADF80120AB
:101C800003F046F9C5F30D0141F4804000F0A4F8DB
:101C90004FF4804141EA953188B200F09DF84FF44D
:101CA000404000F099F8012003F032F9304600F08E
:101CB00093F8BDEC088B70BD000000000000B0413F
:101CC0000000000084D7774100B587B0142102A836
:101CD000FEF7C7FA00BF002001900D48006840F0F1
:101CE00004000B4908600846006800F004000190F9
:101CF00000BF00BF07200290012003900020049045
:101D00000220059002A9034803F07EF907B000BD48
:101D1000303802400008024010B54FF4807000F0E7
:101D20005BF80A2003F0F4F810BD00002DE9FC4137
:101D300006460D4600200090019001220221254810
:101D400003F0A2FB00220121224803F09DFB0024A6
:101D500005E0601C305C0DF80400601CC4B2AC42AD
:101D6000F7DB002427E0002721E01DF8040000F045
:101D7000800028B101220421164803F085FB04E00D
:101D800000220421134803F07FFB002202211148A6
:101D900003F07AFB1DF804004006000E0DF8040065
:101DA000012202210B4803F06FFB781CC7B2082FF9
:101DB000DBDB601CC4B2AC42D5DB01220421054848
:101DC00003F062FB01221146024803F05DFB20464E
:101DD000BDE8FC81000802401CB50446074903C960
:101DE000CDE90001200A8DF80100E0B28DF8020073
:101DF00002216846FFF79AFF1CBD000058F1000859
:101E000070B52DED088BB0EE408A044618EE100A2E
:101E1000FEF720FC41EC1B0B9FED1A0B53EC102B33
:101E2000FEF711FB41EC1A0B9FED180B53EC102B36
:101E3000FEF77BFB41EC190BFEF7F3FB054644F480
:101E4000005646F4807000F0ADF8012003F060F811
:101E5000C5F30D0141F4804000F0A4F84FF4804137
:101E600041EA953188B200F09DF84FF4404000F00F
:101E700099F8012003F04CF8304600F093F8BDECDF
:101E8000088B70BD000000000000B04100000000A1
:101E900084D7774100B587B0142102A8FEF7E1F995
:101EA00000BF002001900D48006840F002000B497F
:101EB00008600846006800F00200019000BF00BF03
:101EC000072002900120039000200490022005903A
:101ED00002A9034803F098F807B000BD303802406B
:101EE0000004024010B54FF4807000F05BF80A2047
:101EF00003F00EF810BD00002DE9FC4106460D462A
:101F000000200090019001220221254803F0BCFA34
:101F100000220121224803F0B7FA002405E0601CEA
:101F2000305C0DF80400601CC4B2AC42F7DB002446
:101F300027E0002721E01DF8040000F0800028B110
:101F400001220421164803F09FFA04E00022042134
:101F5000134803F099FA00220221114803F094FA81
:101F60001DF804004006000E0DF8040001220221B5
:101F70000B4803F089FA781CC7B2082FDBDB601C22
:101F8000C4B2AC42D5DB01220421054803F07CFA3F
:101F900001221146024803F077FA2046BDE8FC8191
:101FA000000402401CB50446074903C9CDE90001FD
:101FB000200A8DF80100E0B28DF802000221684687
:101FC000FFF79AFF1CBD000060F1000870B50546E0
:101FD000AC6B206C00F0500050BB206C40F40070E3
:101FE00020642068806800F04050E8B9207ED8B9AD
:101FF0002068C06A00F4700020B12068806800F496
:10200000806088B92068406820F02000216848601E
:10201000206C20F480702064206C00F4805018B98B
:10202000206C40F001002064204601F0ADFF0BE081
:10203000206C00F0100018B1204601F0CAFF03E048
:10204000A06BC16C2846884770BD70B50546AC6B67
:1020500040202064606C40F004006064204601F081
:10206000B8FF70BD70B50446A56B284601F0B0FFFF
:1020700070BD000070B504465B4D686820F44030C8
:10208000686068686168084368602068406820F498
:1020900080702168486020684168206941EA00201A
:1020A000216848602068406820F0407021684860DE
:1020B00020684068A16808432168486020688068FB
:1020C00020F400602168886020688068E168084327
:1020D000216888604549A06A884218D020688068D5
:1020E00020F070602168886020688068A16A0843D9
:1020F000216888602068806820F0405021688860EE
:1021000020688068E16A0843216888600BE02068E5
:10211000806820F07060216888602068806820F006
:102120004050216888602068806820F002002168A3
:10213000886020688168207E41EA400021688860CC
:102140002020005DF8B1606A18B1606A082800D8E4
:1021500004E04FF4F56126A00CF048FC20684068CC
:1021600040F40060216848602068406820F46040C6
:102170002168486020684168606A401E41EA40303A
:102180002168486005E02068406820F4006021680C
:1021900048602068C06A20F470002168C862206826
:1021A000C16AA08B401E41EA00502168C8622068C5
:1021B000806820F40070216888602068816894F845
:1021C000300041EA4020216888602068806820F45F
:1021D00080602168886020688168606941EA8020A9
:1021E0002168886070BD0000002301400100000FDD
:1021F0002E2E2F447269766572732F53544D3332ED
:10220000463478785F48414C5F4472697665722F36
:102210005372632F73746D3332663478785F6861FC
:102220006C5F6164632E630000BFFEE703B58BB093
:10223000FFF74AFDFFF72EFE0B988088012873D127
:102240000B9890ED000ADFEDFE0A30EE600A8DED8E
:10225000050A0598FEF7FEF9CDE906019DED060B8E
:102260000BF05AFA8DED080B9FEDF60B53EC102B8B
:102270009DED080B51EC100BFEF700FA1AD80B98E5
:1022800090ED000AF148D0ED000A30EE200A8DED05
:10229000090A00209DED090AFFF7CCFC0B9890ED90
:1022A000000AEA48D0ED000A30EE200AE84880ED46
:1022B000010A8EE30B9890ED000ADFEDE60A30EE9E
:1022C000600A8DED050A0598FEF7C4F9CDE906010F
:1022D0009DED060B0BF020FA8DED080B9FEDD90B51
:1022E00053EC102B9DED080B51EC100BFEF7C6F9CB
:1022F0001BD80B9890ED000AD448D0ED010A30EEBF
:10230000200A8DED090A00209DED090AFFF792FCD5
:102310000B9890ED000ACD48D0ED010A30EE200A6E
:10232000CB4880ED010A54E3B3E10B9890ED000A2D
:10233000DFEDC90A30EE600A8DED050A0598FEF75B
:1023400089F9CDE906019DED060B0BF0E5F98DED60
:10235000080B9FEDBC0B53EC102B9DED080B51ECC3
:10236000100BFEF78BF91AD80B9890ED000AB748BE
:10237000D0ED020A30EE200A8DED090A00209DED15
:10238000090AFFF757FC0B9890ED000AAF48D0ED13
:10239000020A30EE200AAE4880ED010A19E30B98DC
:1023A00090ED000ADFEDAD0A30EE600A8DED050A12
:1023B0000598FEF74FF9CDE906019DED060B0BF0F0
:1023C000ABF98DED080B9FED9F0B53EC102B9DEDA2
:1023D000080B51EC100BFEF751F91AD80B9890ED41
:1023E000000A9A48D0ED030A30EE200A8DED090A62
:1023F00000209DED090AFFF71DFC0B9890ED000AE7
:102400009248D0ED030A30EE200A914880ED010A8F
:10241000DFE20B9890ED000ADFED910A30EE600AE2
:102420008DED050A0598FEF715F9CDE906019DED3C
:10243000060B0BF071F98DED080B9FED820B53EC41
:10244000102B9DED080B51EC100BFEF717F91AD865
:102450000B9890ED000A7D48D0ED040A30EE200A7A
:102460008DED090A00209DED090AFFF7E3FB0B98AB
:1024700090ED000A7548D0ED040A30EE200A744849
:1024800080ED010AA5E20B9890ED000ADFED750AD8
:1024900030EE600A8DED050A0598FEF7DBF8CDE910
:1024A00006019DED060B0BF037F98DED080B9FED46
:1024B000650B53EC102B9DED080B51EC100BFEF748
:1024C000DDF81AD80B9890ED000A6048D0ED050AA7
:1024D00030EE200A8DED090A00209DED090AFFF774
:1024E000A9FB0B9890ED000A5848D0ED050A30EE94
:1024F000200A574880ED010A6BE20B9890ED000A24
:10250000DFED590A30EE600A8DED050A0598FEF7F9
:10251000A1F8CDE906019DED060B0BF0FDF88DED60
:10252000080B9FED480B53EC102B9DED080B51EC65
:10253000100BFEF7A3F81AD80B9890ED000A434849
:10254000D0ED060A30EE200A8DED090A00209DED3F
:10255000090AFFF76FFB0B9890ED000A3B48D0ED9E
:10256000060A30EE200A3A4880ED010A31E20B9863
:1025700090ED000ADFED3D0A30EE600A8DED050AB0
:102580000598FEF767F8CDE906019DED060B0BF007
:10259000C3F88DED080B9FED2B0B53EC102B9DED2D
:1025A000080B51EC100BFEF769F81AD80B9890ED58
:1025B000000A2648D0ED070A30EE200A8DED090A00
:1025C00000209DED090AFFF735FB0B9890ED000AFE
:1025D0001E48D0ED070A30EE200A1D4880ED010AA2
:1025E000F7E10B9800680390FEF734F89FED200B9D
:1025F00053EC102BCDE904019DED040B51EC100BB5
:10260000FDF77AFECDE906019DED060B51EC100BAE
:10261000FEF74CF8099000209DED090AFFF70AFB30
:102620000B9800680590FEF715F89FED110B53EC21
:10263000102BCDE906019DED060B51EC100B1BE0B4
:1026400000409C460000000000007940541000202B
:10265000BCD400200060EA4600401C4700504347BD
:1026600000606A4700B8884700409C4700C8AF47F1
:102670003333333333332840FDF73EFECDE90801D1
:102680009DED080B51EC100BFEF710F8FE49486069
:102690009FE10B98808802287ED10B9890ED000A6C
:1026A0005FED190A30EE600A8DED050A0598FDF719
:1026B000D1FFCDE906019DED060B0BF02DF88DED58
:1026C000080B1FED200B53EC102B9DED080B51EC6C
:1026D000100BFDF7D3FF0FD80B9890ED000AEB48D5
:1026E000D0ED000A30EE200A8DED090A02209DEDA2
:1026F000090AFFF79FFA6CE10B9890ED000A5FED75
:102700002B0A30EE600A8DED050A0598FDF7A2FF51
:10271000CDE906019DED060B0AF0FEFF8DED080BDD
:102720001FED380B53EC102B9DED080B51EC100BEB
:10273000FDF7A4FF0FD80B9890ED000AD348D0ED19
:10274000010A30EE200A8DED090A02209DED090AEA
:10275000FFF770FA3DE10B9890ED000A5FED420A39
:1027600030EE600A8DED050A0598FDF773FFCDE99F
:1027700006019DED060B0AF0CFFF8DED080B1FED56
:102780004F0B53EC102B9DED080B51EC100BFDF78C
:1027900075FF11D80B9800E019E190ED000ABB48D5
:1027A000D0ED020A30EE200A8DED090A02209DEDDF
:1027B000090AFFF73FFA0CE10B9890ED000A5FED74
:1027C000590A30EE600A8DED050A0598FDF742FFC3
:1027D000CDE906019DED060B0AF09EFF8DED080B7D
:1027E0001FED680B53EC102B9DED080B51EC100BFB
:1027F000FDF744FF0FD80B9890ED000AA348D0EDE9
:10280000030A30EE200A8DED090A02209DED090A27
:10281000FFF710FADDE00B9890ED000A5FED700A0B
:1028200030EE600A8DED050A0598FDF713FFCDE93E
:1028300006019DED060B0AF06FFF8DED080B1FEDF5
:102840007F0B53EC102B9DED080B51EC100BFDF79B
:1028500015FF0FD80B9890ED000A8C48D0ED040AB4
:1028600030EE200A8DED090A02209DED090AFFF7DE
:10287000E1F9AEE00B9890ED000A5FED860A30EECC
:10288000600A8DED050A0598FDF7E4FECDE9060125
:102890009DED060B0AF040FF8DED080B1FED970B29
:1028A00053EC102B9DED080B51EC100BFDF7E6FEE1
:1028B0000FD80B9890ED000A7448D0ED050A30EE61
:1028C000200A8DED090A02209DED090AFFF7B2F9F1
:1028D0007FE00B9890ED000A5FED9D0A30EE600AF4
:1028E0008DED050A0598FDF7B5FECDE906019DEDD4
:1028F000060B0AF011FF8DED080B1FEDAE0B53EC2C
:10290000102B9DED080B51EC100BFDF7B7FE0FD807
:102910000B9890ED000A5D48D0ED060A30EE200AD3
:102920008DED090A02209DED090AFFF783F950E0B9
:102930000B9890ED000A5FEDB30A30EE600A8DED62
:10294000050A0598FDF786FECDE906019DED060B0B
:102950000AF0E2FE8DED080B1FEDC60B53EC102BB9
:102960009DED080B51EC100BFDF788FE0FD80B986E
:1029700090ED000A4548D0ED070A30EE200A8DEDB3
:10298000090A02209DED090AFFF754F921E00B988E
:1029900000680390FDF75EFE1FEDCB0B53EC102B90
:1029A000CDE904019DED040B51EC100BFDF7A4FCE7
:1029B000CDE906019DED060B51EC100BFDF776FEFF
:1029C000099002209DED090AFFF734F901E0FFF7B5
:1029D000A3F90B9800680190FDF73CFE1FEDDC0B9E
:1029E00053EC102BCDE902019DED020B51EC100BC5
:1029F000FDF782FC9FED260B53EC102BCDE9040173
:102A00009DED040B51EC100BFDF71DFD9FED220B0E
:102A100053EC102BCDE906019DED060B51EC100B8C
:102A2000FDF783FDCDE908019DED080B51EC100B7E
:102A3000FDF7F7FD1A4908600C988088012874D1C9
:102A40000C9890ED000ADFED170A30EE600A8DED6C
:102A5000050A0598FDF7FEFDCDE906019DED060B83
:102A60000AF05AFE8DED080B9FED0F0B53EC102B67
:102A70009DED080B51EC100BFDF700FE26D80C98CD
:102A800090ED000A0A4815E0BCD400209410002004
:102A9000000000000000B0410000000084D7774132
:102AA000441000200060EA46000000000000794069
:102AB00074100020D0ED000A30EE200A8DED090AD6
:102AC00000209DED090AFFF79BF920E30C9890ED9B
:102AD000000ADFEDFD0A30EE600A8DED050A05986B
:102AE000FDF7B8FDCDE906019DED060B0AF014FED9
:102AF0008DED080B1FED140B53EC102B9DED080B07
:102B000051EC100BFDF7BAFD10D80C9890ED000AAF
:102B1000EE48D0ED010A30EE200A8DED090A0020C2
:102B20009DED090AFFF76CF9F1E239E10C9890ED9F
:102B3000000ADFEDE70A30EE600A8DED050A059820
:102B4000FDF788FDCDE906019DED060B0AF0E4FDD9
:102B50008DED080B1FED2C0B53EC102B9DED080B8E
:102B600051EC100BFDF78AFD0FD80C9890ED000A80
:102B7000D648D0ED020A30EE200A8DED090A002079
:102B80009DED090AFFF73CF9C1E20C9890ED000AAF
:102B9000DFEDD00A30EE600A8DED050A0598FDF7ED
:102BA00059FDCDE906019DED060B0AF0B5FD8DED51
:102BB000080B1FED430B53EC102B9DED080B51EC54
:102BC000100BFDF75BFD0FD80C9890ED000ABF4885
:102BD000D0ED030A30EE200A8DED090A00209DEDAC
:102BE000090AFFF70DF992E20C9890ED000ADFED6B
:102BF000BA0A30EE600A8DED050A0598FDF72AFD48
:102C0000CDE906019DED060B0AF086FD8DED080B62
:102C10001FED5B0B53EC102B9DED080B51EC100BD3
:102C2000FDF72CFD0FD80C9890ED000AA748D0EDC9
:102C3000040A30EE200A8DED090A00209DED090AF4
:102C4000FFF7DEF863E20C9890ED000ADFEDA30ACF
:102C500030EE600A8DED050A0598FDF7FBFCCDE925
:102C600006019DED060B0AF057FD8DED080B1FEDDB
:102C7000720B53EC102B9DED080B51EC100BFDF774
:102C8000FDFC0FD80C9890ED000A9048D0ED050A95
:102C900030EE200A8DED090A00209DED090AFFF7AC
:102CA000AFF834E20C9890ED000ADFED8D0A30EEBB
:102CB000600A8DED050A0598FDF7CCFCCDE906010B
:102CC0009DED060B0AF028FD8DED080B1FED8A0B1C
:102CD00053EC102B9DED080B51EC100BFDF7CEFCC7
:102CE0000FD80C9890ED000A7848D0ED060A30EE27
:102CF000200A8DED090A00209DED090AFFF780F8F2
:102D000005E20C9890ED000ADFED760A30EE600ADD
:102D10008DED050A0598FDF79DFCCDE906019DEDB9
:102D2000060B0AF0F9FC8DED080B1FEDA10B53EC1F
:102D3000102B9DED080B51EC100BFDF79FFC0FD8ED
:102D40000C9890ED000A6148D0ED070A30EE200A99
:102D50008DED090A00209DED090AFFF751F8D6E133
:102D60000C9800680390FDF775FC9FED5F0B53EC2A
:102D7000102BCDE904019DED040B51EC100BFDF778
:102D8000BBFACDE906019DED060B51EC100BFDF7EA
:102D90008DFC099000209DED090AFFF731F8B6E19E
:102DA0000C98808802287DD10C9890ED000A5FED88
:102DB000C30A30EE600A8DED050A0598FDF74AFC5E
:102DC000CDE906019DED060B0AF0A6FC8DED080B82
:102DD0001FEDCB0B53EC102B9DED080B51EC100BA2
:102DE000FDF74CFC0FD80C9890ED000A4048D0ED50
:102DF000000A30EE200A8DED090A02209DED090A35
:102E0000FEF7FEFF83E10C9890ED000ADFED2E0A3D
:102E100030EE600A8DED050A0598FDF71BFCCDE943
:102E200006019DED060B0AF077FC8DED080B1FEDFA
:102E3000E20B53EC102B9DED080B51EC100BFDF742
:102E40001DFC0FD80C9890ED000A2948D0ED010A1E
:102E500030EE200A8DED090A02209DED090AFEF7E9
:102E6000CFFF54E10C9890ED000ADFED190A30EE27
:102E7000600A8DED050A0598FDF7ECFBCDE906012A
:102E80009DED060B0AF048FC8DED080B1FEDFA0BCB
:102E900053EC102B9DED080B51EC100BFDF7EEFBE6
:102EA00028D800E031E10C9890ED000A1048D0EDF0
:102EB000020A30EE200A8DED090A02209DED090A72
:102EC000FEF79EFF23E1000000401C477410002025
:102ED0000050434700606A4700B8884700409C475D
:102EE00000C8AF470050C3470000000000002E405C
:102EF000B41000200C9890ED000A5FED0A0A30EE45
:102F0000600A8DED050A0598FDF7A4FBCDE90601E1
:102F10009DED060B0AF000FC8DED080B9FED960B66
:102F200053EC102B9DED080B51EC100BFDF7A6FB9D
:102F30000FD80C9890ED000A9148D0ED030A30EEBE
:102F4000200A8DED090A02209DED090AFEF758FFBF
:102F5000DDE00C9890ED000A5FED210A30EE600A8A
:102F60008DED050A0598FDF775FBCDE906019DED90
:102F7000060B0AF0D1FB8DED080B9FED7F0B53EC98
:102F8000102B9DED080B51EC100BFDF777FB0FD8C4
:102F90000C9890ED000A7A48D0ED040A30EE200A31
:102FA0008DED090A02209DED090AFEF729FFAEE02A
:102FB0000C9890ED000A5FED370A30EE600A8DED57
:102FC000050A0598FDF746FBCDE906019DED060BC8
:102FD0000AF0A2FB8DED080B9FED670B53EC102B55
:102FE0009DED080B51EC100BFDF748FB0FD80C982A
:102FF00090ED000A6248D0ED050A30EE200A8DED12
:10300000090A02209DED090AFEF7FAFE7FE00C98FE
:1030100090ED000A5FED4E0A30EE600A8DED050A74
:103020000598FDF717FBCDE906019DED060B0AF0AB
:1030300073FB8DED080B9FED500B53EC102B9DEDAA
:10304000080B51EC100BFDF719FB0FD80C9890ED05
:10305000000A4B48D0ED060A30EE200A8DED090A31
:1030600002209DED090AFEF7CBFE50E00C9890ED92
:10307000000A5FED640A30EE600A8DED050A0598DE
:10308000FDF7E8FACDE906019DED060B0AF044FBD9
:103090008DED080B9FED380B53EC102B9DED080BBD
:1030A00051EC100BFDF7EAFA0FD80C9890ED000ADE
:1030B0003348D0ED070A30EE200A8DED090A0220D0
:1030C0009DED090AFEF79CFE21E00C980068039034
:1030D000FDF7C0FA1FED7C0B53EC102BCDE904017A
:1030E0009DED040B51EC100BFDF706F9CDE906013F
:1030F0009DED060B51EC100BFDF7D8FA099002205C
:103100009DED090AFEF77CFE01E0FEF7EBFE0C9850
:1031100000680190FDF79EFA1FED8D0B53EC102B0C
:10312000CDE902019DED020B51EC100BFDF7E4F827
:103130009FED140B53EC102BCDE904019DED040B16
:1031400051EC100BFDF77FF99FED100B53EC102B9A
:10315000CDE906019DED060B51EC100BFDF7E5F9ED
:10316000CDE908019DED080B51EC100BFDF759FA64
:10317000084908600DB000BD000000000000794063
:10318000B4100020000000000000B041000000006A
:1031900084D777414810002010B5024801F07AFB2F
:1031A00010BD0000D433002010B5024801F072FBBE
:1031B00010BD00003434002010B5024801F06AFB55
:1031C00010BD00001031002010B5024801F062FB74
:1031D00010BD0000D031002010B5024801F05AFBAC
:1031E00010BD000070310020014608781038182307
:1031F000B0FBF3F20848805CC865032A05D908686B
:103200006FF30900001D886503E008686FF309008B
:103210008865886D7047000038F10008014600207D
:103220008A6A8B69CBB932B1012A0DD0022A03D048
:10323000032A10D10EE000BFCB6A03F08073B3F114
:10324000807F00D1012007E0CB6AB3F1C07F00D1BD
:10325000012001E000E000BF34E08B69B3F5005FBE
:103260001AD132B1012A07D0022A03D0032A11D180
:103270000AE000BF01200EE0CB6A03F08073B3F1D7
:10328000807F00D1012006E0CB6AB3F1C07F00D17E
:10329000012000E000BF15E032B1012A05D0022A6A
:1032A00004D0032A0CD103E000BF00BF012008E0D6
:1032B000CB6A03F08073B3F1807F00D1012000E07E
:1032C00000BF00BF704730B50468246824F4802430
:1032D00005682C60046863608468402C04D104682D
:1032E000A2600468E16003E00468A1600468E26031
:1032F00030BD00000748006840F080700549086054
:103300000020054948600846006840F00100086058
:1033100070470000FCED00E0001000E010B5084B25
:103320001B68084CB3FBF4F303FB00F1064B5A682F
:1033300000BF054B5B689B1A8B42FAD310BD00009F
:103340002010002040420F00001000E070B5002067
:1033500033490870334800683349884204D9202033
:1033600031494C39086018E02E4800682F498842DE
:1033700004D920202C49503908600EE02948006803
:103380002A496039884204D920202849B839C860C0
:1033900003E020202549B83988604FF400622449B1
:1033A000244801F081F808B100F076F8224803F0D3
:1033B00035F9002403E0012001F0AAFD641C18483F
:1033C0000078012802D0B4F57A7FF4D3B4F57A7F7F
:1033D00005D3184801F080F9174803F0D3F91548D0
:1033E00001F07AF9144803F0CDF913480068006839
:1033F00020F004001049096808600D4D0F4A10497B
:1034000028460BF011F80D490D4808F007FF0B494D
:103410000B48FEF70BFF0BA009F078FE70BD000013
:10342000021000201031002058640240B8600240B1
:103430000000002038300020803200203C100020A6
:10344000341000200D0A00007047000010B54FF442
:1034500080710D4801F0E4FF04468CB90B480078F8
:1034600001280DD102F04CF809490968401A0A28D0
:1034700006D902F045F806490860012005490870A0
:103480000248047010BD0000000402402910002012
:103490002C1000202810002072B600BFFEE70000AC
:1034A0002DE9F04106460C4615461F4617B1B7F503
:1034B000804F00D104E040F2B51139A00BF096FA2C
:1034C000B7F5804F65D14448864200D104E040F210
:1034D000BB1133A00BF08AFA20680F2800D804E053
:1034E0004FF4DE712EA00BF081FA606818B16068AD
:1034F0000F2800D804E040F2BD1129A00BF076FAA5
:10350000A06818B1A068FF2800D804E04FF4DF716C
:1035100023A00BF06BFAE0680F2800D804E040F21B
:10352000BF111FA00BF062FAA06958B1A069B0F1F9
:10353000805F07D0A069B0F1005F03D0A069B0F14F
:10354000405F00D104E04FF4E07115A00BF04EFA9B
:103550002DB1022D03D0042D01D0062D00D104E0A1
:1035600040F2C1110EA00BF041FAD4E9000140EA8B
:103570000110A16840EA0120A1690843A18940EA3D
:10358000014056F82510154A1140084346F8250019
:1035900003E06FF0704046F825000020BDE8F081A0
:1035A0002E2E2F447269766572732F53544D333229
:1035B000463478785F48414C5F4472697665722F73
:1035C0005372632F73746D3332663478785F6C6C2A
:1035D0005F66736D632E6300040100A00000F0CFEE
:1035E0002DE9F04105460C46B5F1204F00D103E02E
:1035F000E42176A00BF0FAF9206840B12068022897
:1036000005D02068042802D02068062800D103E0F5
:10361000E5216EA00BF0EAF9606810B1606802283D
:1036200000D103E0E62169A00BF0E0F9A06828B121
:10363000A068042802D0A068082800D103E0E72190
:1036400062A00BF0D3F9E06828B1E068102802D03E
:10365000E068202800D103E0E8215CA00BF0C6F967
:10366000206918B12069B0F5807F00D103E0E9211D
:1036700056A00BF0BBF9606918B16069B0F5007F26
:1036800000D103E0EA2151A00BF0B0F9A06918B114
:10369000A069B0F5806F00D103E0EC214BA00BF0E6
:1036A000A5F9E06918B1E069B0F5006F00D103E059
:1036B000EE2146A00BF09AF9206A18B1206AB0F505
:1036C000805F00D103E0EF2140A00BF08FF9606A2A
:1036D00018B1606AB0F5005F00D103E0F0213BA0B3
:1036E0000BF084F9A06A18B1A06AB0F5804F00D140
:1036F00003E0F12135A00BF079F9E06A18B1E06A36
:10370000B0F5004F00D103E0F22130A00BF06EF9CC
:10371000206B18B1206BB0F5002F00D103E0F3212E
:103720002AA00BF063F9E06B78B1E06BB0F5803F55
:103730000BD0E06BB0F5003F07D0E06BB0F5403F39
:1037400003D0E06BB0F5802F00D103E0FA211FA079
:103750000BF04CF9206855F8200020F0010021689A
:1037600045F82100A068082801D1402600E0002685
:1037700060683043A1680843E16808432169084351
:1037800061690843E1690843216A0843616A0843A3
:10379000A16A0843E16A0843216B40EA0107A06976
:1037A0000743E06B0743DFF85C8048F4806848F427
:1037B000E028206855F8200020EA080038432168F6
:1037C00045F821000020BDE8F08100002E2E2F4496
:1037D0007269766572732F53544D3332463478785C
:1037E0005F48414C5F4472697665722F5372632F54
:1037F00073746D3332663478785F6C6C5F66736DAA
:10380000632E63007FFB080070B506460C46154624
:10381000B6F1204F00D104E040F283113EA00BF03E
:10382000E5F820680F2800D804E04FF4C2713AA0F0
:103830000BF0DCF8606818B160680F2800D804E06D
:1038400040F2851134A00BF0D1F8A06818B1A0683F
:10385000FF2800D804E04FF4C3712FA00BF0C6F886
:10386000E0680F2800D804E040F287112AA00BF08E
:10387000BDF82069012803D92069102800D804E088
:103880004FF4C47124A00BF0B1F86069012803D98A
:103890006069112800D804E040F289111EA00BF0E5
:1038A000A5F8A06958B1A069B0F1805F07D0A06900
:1038B000B0F1005F03D0A069B0F1405F00D104E037
:1038C0004FF4C57114A00BF091F82DB1022D03D067
:1038D000042D01D0062D00D104E040F28B110EA082
:1038E0000BF084F8D4E9000140EA0110A16840EA35
:1038F0000120A18940EA0141208A401E41EA00518D
:10390000207D801E41EA0060A1690843691C46F8D9
:103910002100002070BD00002E2E2F4472697665B4
:1039200072732F53544D3332463478785F48414C8C
:103930005F4472697665722F5372632F73746D33AF
:1039400032663478785F6C6C5F66736D632E6300EB
:103950002DE9F04105460C4600272068122800D8C2
:1039600004E04FF44F71ECA00BF040F8606818B120
:103970006068042800D804E040F23D31E6A00BF076
:1039800035F8A068A0B1A068012811D0A06802286D
:103990000ED0A06803280BD0A068042808D0A06827
:1039A000052805D0A068062802D0A068072800D105
:1039B00004E040F23E31D8A00BF018F8A069E8B35B
:1039C000A069B0F5803F3DD0A069B0F5003F39D087
:1039D000A069B0F5403F35D0A069B0F5802F31D057
:1039E000A069B0F5A02F2DD0A069B0F5C02F29D0C7
:1039F000A069B0F5E02F25D0A069B0F5002F21D047
:103A0000A069B0F5102F1DD0A069B0F5202F19D0F6
:103A1000A069B0F5302F15D0A069B0F5402F11D0B6
:103A2000A069B0F5502F0DD0A069B0F5602F09D076
:103A3000A069B0F5702F05D0C64900E002E0A0698A
:103A4000884200D104E040F23F31B3A00AF0CEFF3B
:103A5000206918B12069042800D804E04FF450719F
:103A6000ADA00AF0C3FF607D10B1607D012800D1D8
:103A700004E040F24131A8A00AF0B8FF207D10B167
:103A8000207D012800D104E040F24231A2A00AF0DA
:103A9000ADFF2868406800F040771FB9E068B0F5D6
:103AA000805F12D3B7F1807F03D1E068B0F5806FFB
:103AB0000BD3B7F1007F02D1E068FF2805D9B7F139
:103AC000407F03D1E0683F2800D804E040F246314F
:103AD00091A00AF08BFF9F49A069884213D0E0694A
:103AE00058B1E069B0F5801F07D0E069B0F5001F5C
:103AF00003D0E069B0F5401F00D104E040F24B3143
:103B000085A00AF073FF00BF95F83C00012802D1A0
:103B10000220BDE8F081012085F83C0000BF20684C
:103B2000092816D92868C06821780A3901EB4102B2
:103B30000721914088432968C86021780A3901EB40
:103B40004101A06888402968C96808432968C8609D
:103B500013E028680069217801EB410207219140B8
:103B6000884329680861217801EB4101A0688840F9
:103B7000296809690843296808612868806B20F46E
:103B80004010296888632868816B208A401E41EABA
:103B90000050296888632079C01C217C401A00EB02
:103BA00080011F2088402968896B814328688163D0
:103BB0002079C01C217C401A00EB8001208880B253
:103BC00088402968896B0843296888636149A0692E
:103BD000884218D02868806820F47020296888609E
:103BE00028688068A1690843296888602868806817
:103BF00020F440102968886028688068E1690843DB
:103C0000296888600BE02868806820F470202968A3
:103C100088602868806820F4401029688860607D8A
:103C200030B12868406840F480602968486005E049
:103C30002868406820F4806029684860207D30B1A1
:103C40002868406840F480502968486005E028688A
:103C5000406820F48050296848606068012804D0DA
:103C600002280FD0032827D119E0286840696FF394
:103C70000B002968486128684069E16808432968A1
:103C8000486126E0286880696FF30B002968886125
:103C900028688069E16808432968886119E0286814
:103CA000C0696FF30B002968C8612868C069E168C2
:103CB00008432968C8610CE02868006A6FF30B00AC
:103CC000296808622868006AE16808432968086270
:103CD00000BF00BF204E21492868884206D12068D5
:103CE000122803D1706840F4800070601B49286876
:103CF000884209D12068102802D02068112803D1F9
:103D0000706840F40000706000BF002085F83C003F
:103D100000BF00BFFDE600002E2E2F4472697665BD
:103D200072732F53544D3332463478785F48414C88
:103D30005F4472697665722F5372632F73746D33AB
:103D400032663478785F68616C5F6164635F657860
:103D50002E63000001000F000023014000200140FD
:103D6000F8B505460C46002000902068122800D8BF
:103D700004E040F28B6172A00AF038FE606818B16E
:103D80006068102800D804E040F28C616CA00AF052
:103D90002DFEA068A0B1A068012811D0A06802285B
:103DA0000ED0A06803280BD0A068042808D0A06813
:103DB000052805D0A068062802D0A068072800D1F1
:103DC00004E040F28D615EA00AF010FE00BF95F89D
:103DD0003C00012801D10220F8BD012085F83C00FB
:103DE00000BF2068092816D92868C06821780A39D8
:103DF00001EB41020721914088432968C86021787E
:103E00000A3901EB4101A06888402968C968084364
:103E10002968C86013E028680069217801EB410235
:103E200007219140884329680861217801EB41010D
:103E3000A0688840296809690843296808616068A2
:103E4000072817D22868406B2179491E01EB8102AF
:103E50001F219140884329684863208880B22179D6
:103E6000491E01EB810188402968496B0843296894
:103E7000486331E060680D2817D22868006B21790B
:103E8000C91F01EB81021F21914088432968086303
:103E9000208880B22179C91F01EB810188402968FF
:103EA000096B08432968086316E02868C06A21790D
:103EB0000D3901EB81021F21914088432968C862B6
:103EC000208880B221790D3901EB81018840296871
:103ED000C96A08432968C862274E28492868884269
:103EE00006D12068122803D1706840F48000706009
:103EF0002249286888421CD12068102802D02068F6
:103F0000112816D1706840F40000706020681028F5
:103F10000FD11B4800681B49B0FBF1F000EB80009B
:103F20004000009002E00098401E00900098002899
:103F3000F9D100BF002085F83C0000BF00BF4BE76F
:103F40002E2E2F447269766572732F53544D33327F
:103F5000463478785F48414C5F4472697665722FC9
:103F60005372632F73746D3332663478785F68618F
:103F70006C5F6164632E63000023014000200140F8
:103F80002010002040420F000B4A0168914203D1EB
:103F900001210A4A11700EE0094A0168914203D1D9
:103FA0000121084A117006E0074A0168914202D1D6
:103FB0000121064A117070470020014002100020C4
:103FC00000210140031000200022014004100020C5
:103FD0007047704770B5044600250CB9012070BDCC
:103FE0008B492068884207D08A492068884203D0DC
:103FF00089492068884200D104E04FF4A17187A06C
:104000000AF0F4FC606858B16068B0F5803F07D0F2
:104010006068B0F5003F03D06068B0F5403F00D164
:1040200004E040F243117DA00AF0E0FCA06858B122
:10403000A068B0F1807F07D0A068B0F1007F03D006
:10404000A068B0F1407F00D104E04FF4A27173A0EA
:104050000AF0CCFC206910B12069012800D104E0ED
:1040600040F245116DA00AF0C1FC207E10B1207E07
:10407000012800D104E04FF4A37168A00AF0B6FC57
:10408000A06AE8B3A06AB0F1807F3DD0A06AB0F129
:10409000007F39D0A06AB0F1407F35D0A06AB0F17E
:1040A000806F31D0A06AB0F1A06F2DD0A06AB0F1BE
:1040B000C06F29D0A06AB0F1E06F25D0A06AB0F13E
:1040C000006F21D0A06AB0F1106F1DD0A06AB0F1CE
:1040D000206F19D0A06AB0F1306F15D0A06AB0F18E
:1040E000406F11D0A06AB0F1506F0DD0A06AB0F14E
:1040F000606F09D0A06AB0F1706F05D0554900E03B
:1041000002E0A06A884200D104E040F2471143A0D7
:104110000AF06CFCE06818B1E068B0F5006F00D1FF
:1041200004E04FF4A4713DA00AF060FCE06918B10E
:10413000E069102800D804E040F2491137A00AF0E5
:1041400055FC94F8300018B194F83000012800D1E3
:1041500004E04FF4A57131A00AF048FC6069012821
:1041600004D0606910B16069022800D104E040F217
:104170004B112AA00AF03AFC2020005D18B1202043
:10418000005D012800D104E04FF4A67123A00AF0DD
:104190002DFC3049A06A884213D0E06A58B1E06A29
:1041A000B0F1805F07D0E06AB0F1005F03D0E06A51
:1041B000B0F1405F00D104E04FF4A87117A00AF0FD
:1041C00015FC206C30B9204600F046F800206064F1
:1041D00084F83C00206C00F0100088B9206C20F4BA
:1041E000885040F0020020642046FDF743FF002085
:1041F0006064206C20F0020040F00100206400E0C8
:10420000012500BF002084F83C0000BF2846E6E6F8
:104210000020014000210140002201402E2E2F44A9
:104220007269766572732F53544D33324634787801
:104230005F48414C5F4472697665722F5372632FF9
:1042400073746D3332663478785F68616C5F616473
:10425000632E63000100000F10B586B004461421E0
:1042600001A8FBF7FEFF8649206888424CD100BFB9
:10427000002000908348006840F480708149086005
:104280000846006800F48070009000BF00BF00BFC7
:10429000002000907B481438006840F00100794904
:1042A000143908600846006800F00100009000BF63
:1042B00000BF04200190032002900020039001A978
:1042C000714800F0A1FE7148714908600020486003
:1042D00000216F488160C1604FF480610161490035
:1042E0004161890081610021C1614FF44031016267
:1042F0000021416200F0EEFB08B1FFF7CDF800BFEE
:104300006348A0638463B8E06249206888424BD167
:1043100000BF002000905B48006840F400705949DD
:1043200008600846006800F40070009000BF00BFFD
:1043300000BF0020009053481438006840F001008E
:104340005049143908600846006800F001000090E8
:1043500000BF00BF60200190032002900020039066
:1043600001A9494800F050FE484830304A490860E9
:104370004FF000704860002147488160C1604FF4F1
:104380008061016149004161890081610021C16151
:104390000162416200F09EFB08B1FFF77DF800BFAB
:1043A0003D48A063846368E03C492068884264D14A
:1043B00000BF002000903348006840F4806031491D
:1043C00008600846006800F48060009000BF00BFED
:1043D00000BF002000902B481438006840F02000F7
:1043E0002849143908600846006800F02000009051
:1043F00000BF00BF00BF002000900846006840F0EA
:10440000010008600846006800F00100009000BF4D
:1044100000BF40200190032002900020039001A9DA
:104420001F4800F0F1FD08200190032002900020B9
:10443000039001A9144800F0E7FD14481830194909
:1044400008604FF080604860002116488160C160BC
:104450004FF480610161490041618900816100215F
:10446000C1610162416200F035FB08B1FFF714F849
:1044700000BF0C48A063846300BF06B010BD0000FD
:104480000020014044380240000002401064024015
:104490001031002000210140703100200022014035
:1044A00000140240D03100202DE9F84304460D46A7
:1044B0001646002000908046207E10B1207E012804
:1044C00000D104E040F25A516CA00AF08FFAE06A81
:1044D00058B1E06AB0F1805F07D0E06AB0F1005FE8
:1044E00003D0E06AB0F1405F00D104E040F25B51DC
:1044F00062A00AF07BFA00BF94F83C00012802D1C8
:104500000220BDE8F883012084F83C0000BF206849
:10451000806800F00100A0B92068806840F00100C8
:1045200021688860634800686349B0FBF1F000EBE4
:104530004000009002E00098401E00900098002883
:10454000F9D12068806800F48070B0F5807F05D1D3
:104550002068806820F48070216888602068806806
:1045600000F0010000287FD0206C40F201618843F8
:1045700040F4807020642068406800F4806028B1B6
:10458000206C20F4005040F480502064206C00F433
:104590008050B0F5805F04D1606C20F0060060644C
:1045A00001E00020606400BF002084F83C0000BFF0
:1045B000424F4348A16BC8634248A16B086442481C
:1045C000A16BC8646FF02200216808602068406811
:1045D00040F08060216848602068806840F4807006
:1045E00021688860226802F14C0133462A46A06B9C
:1045F00000F01EFC8046786800F01F0020BB3349A5
:104600002068884213D032492068884204D1381D7E
:10461000006800F01F0050B12E49206888422BD15D
:104620002648001D006800F01F00102824D22068D2
:10463000806800F04050F8B92068806840F0804001
:104640002168886018E00FE020492068884213D173
:104650002068806800F0405070B92068806840F0A1
:1046600080402168886007E0206C40F010002064E2
:10467000606C40F001006064404642E72E2E2F44FB
:104680007269766572732F53544D3332463478789D
:104690005F48414C5F4472697665722F5372632F95
:1046A00073746D3332663478785F68616C5F61640F
:1046B000632E63002010002040420F0000230140C1
:1046C000CD1F0008652000084B2000080020014095
:1046D000002101400022014070B504460025274911
:1046E0002068884207D026492068884203D025499F
:1046F0002068884200D104E040F2ED5122A00AF087
:1047000075F900BF94F83C00012801D1022070BD6A
:10471000012084F83C0000BF2068806820F0010080
:10472000216888602068806800F00100F8B920687E
:10473000806820F4807021688860A06B90F8350054
:10474000022808D1A06B00F03BF805461DB1206C93
:1047500040F0400020642068406820F080602168BC
:104760004860206C20F4885040F00100206400BFB5
:10477000002084F83C0000BF2846C8E70020014024
:1047800000210140002201402E2E2F4472697665DF
:1047900072732F53544D3332463478785F48414C0E
:1047A0005F4472697665722F5372632F73746D3331
:1047B00032663478785F68616C5F6164632E630091
:1047C00070B50446A56D00F09BFE064694F83500D2
:1047D000022808D08020606500BF002084F83400E3
:1047E00000BF012070BD2068006820F0160021681D
:1047F00008602068406920F0800021684861206CD2
:1048000008B9A06C28B12068006820F00800216871
:1048100008602068006820F001002168086010E04E
:1048200000F06EFE801B05280BD920206065032058
:1048300084F8350000BF002084F8340000BF032056
:10484000D0E72068006800F001000028E8D194F863
:104850005C103F208840A860012084F8350000BF2C
:10486000002084F8340000BF00BFBBE7014691F888
:104870003500022803D080204865012070470520BC
:1048800081F835000868006820F001000A681060AF
:104890000020F3E7F8B50446002000908C4800683B
:1048A0004FF41651B0FBF1F7A56D2E6894F85C102B
:1048B00008208840304098B12068006800F004006B
:1048C00070B12068006820F004002168086094F846
:1048D0005C1008208840A860606D40F001006065B1
:1048E00094F85C1001208840304068B1206840692D
:1048F00000F0800040B194F85C1001208840A8606E
:10490000606D40F00200606594F85C1004208840FF
:10491000304068B12068006800F0020040B194F8AF
:104920005C1004208840A860606D40F00400606561
:1049300094F85C1010208840304078B320680068FC
:1049400000F0080050B394F85C1010208840A86074
:104950002068006800F4802080B12068006800F4BE
:10496000002028B9206CC8B12046216C884715E08A
:10497000A06C98B12046A16C88470FE020680068C1
:1049800000F4807028B92068006820F008002168D1
:104990000860206C10B12046216C884794F85C10A8
:1049A000202088403040002865D02068006800F052
:1049B000100000285FD094F85C1020208840A86088
:1049C00094F83500052828D12068006820F01600EA
:1049D000216808602068406920F0800021684861F3
:1049E000206C08B9A06C28B12068006820F008008D
:1049F0002168086094F85C103F208840A86001207E
:104A000084F8350000BF002084F8340000BF206D1A
:104A100010B12046216D8847F8BD2068006800F479
:104A2000802080B12068006800F4002028B9606C04
:104A300010B12046616C88471DE0E06BD8B120467C
:104A4000E16B884717E02068006800F4807068B95F
:104A50002068006820F0100021680860012084F8B8
:104A6000350000BF002084F8340000BFE06B10B1B7
:104A70002046E16B8847606D38B3606D00F001003F
:104A8000F0B1052084F835002068006820F00100AE
:104A90002168086000BF0098401C0090B84200D90F
:104AA00005E02068006800F001000028F3D100BF95
:104AB000012084F8350000BF002084F8340000BFD6
:104AC000E06C10B12046E16C884700BFA4E700000D
:104AD000201000202DE9F0410446002500F010FDD3
:104AE000074614B90120BDE8F081C049206888421A
:104AF00049D0BE4918312068884244D0BB49303182
:104B0000206888423FD0B9494831206888423AD06D
:104B1000B64960312068884235D0B4497831206880
:104B2000884230D0B1499031206888422BD0AF49BB
:104B3000A8312068884226D0AD492068884222D01A
:104B4000AB491831206888421DD0A949303120680E
:104B5000884218D0A64948312068884213D0A44919
:104B60006031206888420ED0A1497831206888429F
:104B700009D09F4990312068884204D09C49A831CF
:104B80002068884200D103E0B7219AA009F02EFFE7
:104B90006068D8B16068B0F1007F17D06068B0F18C
:104BA000806F13D06068B0F1C06F0FD06068B0F153
:104BB000006F0BD06068B0F1206F07D06068B0F173
:104BC000406F03D06068B0F1606F00D103E0B8219E
:104BD00088A009F00BFFA06828B1A068402802D087
:104BE000A068802800D103E0B92182A009F0FEFE70
:104BF000E068B0F5007F01D0E06800B903E0BA21B9
:104C00007CA009F0F3FE2069B0F5806F01D0206927
:104C100000B903E0BB2177A009F0E8FE606938B174
:104C20006069B0F5006F03D06069B0F5805F00D1B6
:104C300003E0BC216FA009F0D9FEA06938B1A069DA
:104C4000B0F5005F03D0A069B0F5804F00D103E05C
:104C5000BD2168A009F0CAFEE06930B1E069B0F595
:104C6000807F02D0E069202800D103E0BE2161A04E
:104C700009F0BCFE206A58B1206AB0F5803F07D029
:104C8000206AB0F5003F03D0206AB0F5403F00D164
:104C900003E0BF2157A009F0A9FE606A10B1606A65
:104CA000042800D103E0C02152A009F09FFE606AF1
:104CB000002835D0A06A40B1A06A012805D0A06ABA
:104CC000022802D0A06A032800D103E0C52149A030
:104CD00009F08CFEE06A58B1E06AB0F5000F07D029
:104CE000E06AB0F1807F03D0E06AB0F1C07F00D10C
:104CF00003E0C6213FA009F079FE206B58B1206B7C
:104D0000B0F5001F07D0206BB0F5800F03D0206BEB
:104D1000B0F5C00F00D103E0C72136A009F066FE50
:104D2000022084F8350000BF002084F8340000BF62
:104D30002068006820F00100216808600AE000F0A7
:104D4000DFFBC01B052805D920206065032084F8FF
:104D50003500C8E62068006800F001000028EED1A8
:104D60002068056831480540D4E901010843E1683D
:104D700008432169084361690843A1690843E1695F
:104D80000843216A08430543606A042803D1D4E933
:104D90000B0108430543206805602068456925F03C
:104DA0000705606A0543606A04280DD1A06A0543BF
:104DB000E06A48B12046FEF731FA28B1402060652C
:104DC000012084F835008EE6206845612046FEF714
:104DD0000BFA064694F85C103F208840B060002033
:104DE0006065012084F8350000207CE610600240F8
:104DF000106402402E2E2F447269766572732F5311
:104E0000544D3332463478785F48414C5F44726980
:104E10007665722F5372632F73746D3332663478F4
:104E2000785F68616C5F646D612E63003F8010F095
:104E30002DE9F04704460E4617461D464FF0000880
:104E4000D4F858901DB1B5F5803F00D204E040F28F
:104E5000CB1121A009F0CAFD00BF94F8340001284D
:104E600002D10220BDE8F087012084F8340000BFA1
:104E700094F83500012825D1022084F8350000205F
:104E800060652B463A4631462046FEF71CFA94F8F8
:104E90005C103F208840C9F808002068006840F096
:104EA000160021680860206C28B12068006840F076
:104EB0000800216808602068006840F0010021684F
:104EC000086006E000BF002084F8340000BF4FF007
:104ED00002084046C6E700002E2E2F447269766510
:104EE00072732F53544D3332463478785F48414CB7
:104EF0005F4472697665722F5372632F73746D33DA
:104F000032663478785F68616C5F646D612E63002F
:104F100070B5044600F0F4FA06462546681C10B148
:104F200004480078054400BF00F0EAFA801BA8425C
:104F3000FAD370BD1C10002000B587B0142102A860
:104F4000FBF78FF92A48006808B107B000BD0120BF
:104F50002749086000BF002001902648006840F003
:104F60000100244908600846006800F00100019033
:104F700000BF00BF8814029002200390002004901C
:104F8000032005900C20069002A91B4800F03CF875
:104F90004FF68070029002200390002004900320BE
:104FA00005900C20069002A9144800F02DF84CF250
:104FB000337002900220039000200490032005909B
:104FC0000C20069002A90E4800F01EF84FF4805005
:104FD00002900220039000200490032005900C20F2
:104FE000069002A9074800F00FF800BFADE70000E7
:104FF000081000203838024000140240001002401F
:10500000000C0240001802402DE9F84306460C4609
:105010004FF00009C8460025E648864217D0E6480A
:10502000864214D0E548864211D0E54886420ED02B
:10503000E44886420BD0E448864208D0E3488642E2
:1050400005D0E348864202D0E248864200D103E020
:10505000AC21E1A009F0CAFC208880B220B1206810
:105060006FF30F0000B903E0AD21DBA009F0BEFC37
:10507000606830B36068012823D06068112820D0B0
:10508000606802281DD0606812281AD06068B0F5E8
:10509000881F16D06068B0F5041F12D06068B0F5A4
:1050A000441F0ED06068B0F5901F0AD06068B0F55C
:1050B000081F06D06068B0F5481F02D0606803285A
:1050C00000D103E0AE21C4A009F090FC00276BE101
:1050D000012000FA07F9206800EA0908C8457DD1D7
:1050E000207900F00300012804D0207900F00300AB
:1050F000022823D1E06840B1E068012805D0E068CB
:10510000022802D0E068032800D103E0C021B2A049
:1051100009F06CFCB568790003208840854379006C
:10512000E06888400543B56075680120B840854354
:105130002079C0F30010B84005437560207900F075
:105140000300032816D0A06828B1A068012802D067
:10515000A068022800D103E0D1219FA009F046FCFD
:10516000F56879000320884085437900A06888406D
:105170000543F560207900F0030002287ED1206904
:1051800068B32069092864D0206940B3206930B32E
:10519000206920B3206910B32069012859D0206903
:1051A000012856D02069022853D02069022850D007
:1051B000206902284DD0206903284AD0206904289C
:1051C00047D02069042844D02069042841D02069B0
:1051D00005283ED0206905283BD001E0E3E038E017
:1051E0002069092835D02069062832D0206909288D
:1051F0002FD0206907282CD02069072829D02069C2
:10520000072826D02069082823D02069082820D024
:10521000206908281DD0206909281AD0206909288A
:1052200017D020690A2814D020690A2811D02069D3
:105230000B280ED020690C280BD020690C2808D030
:1052400020690D2805D020690C2802D020690F287C
:1052500000D103E0DE2160A009F0C8FBF90806F1E7
:10526000200050F821507807C10E0F208840854358
:105270007907C90E20698840054300E004E0F90879
:1052800006F1200040F8215035687900032088405D
:105290008543207900F0030079008840054335609C
:1052A000606800F4403000287DD000BF00200090EE
:1052B0005848006840F48040564908600846006835
:1052C00000F48040009000BF00BF5348B90850F878
:1052D0002150B807010F0F2088408543354886428A
:1052E00001D1002023E03448864201D101201EE094
:1052F0003248864201D1022019E03148864201D16C
:10530000032014E02F48864201D104200FE02E48EC
:10531000864201D105200AE02C48864201D10620B0
:1053200005E02B48864201D1072000E00820B9079C
:10533000090F884005433848B90840F821503748DC
:10534000056825EA0805606800F4801008B145EAA0
:10535000080532480560001D056825EA08056068F3
:1053600000F4001008B145EA08052C48001D05604E
:105370002A48001F056825EA0805606800F4003027
:1053800008B145EA08052548001F0560001F0568AB
:1053900025EA0805606800F4803008B145EA080590
:1053A0001E48083805607F1C102FFFF491AEBDE841
:1053B000F8830000000002400004024000080240A0
:1053C000000C02400010024000140240001802408D
:1053D000001C0240002002402E2E2F447269766588
:1053E00072732F53544D3332463478785F48414CB2
:1053F0005F4472697665722F5372632F73746D33D5
:1054000032663478785F68616C5F6770696F2E63AD
:10541000000000004438024008380140083C0140C8
:1054200070B506460C46A0B218B1200C000400B9B5
:1054300004E04FF4BE7105A009F0D8FA30692040AD
:1054400008B1012500E00025284670BD2E2E2F440E
:105450007269766572732F53544D333246347878BF
:105460005F48414C5F4472697665722F5372632FB7
:1054700073746D3332663478785F68616C5F67701F
:10548000696F2E630000000070B506460C46154695
:10549000A0B218B1200C000400B904E040F29D1144
:1054A00008A009F0A3FA0DB1012D00D104E04FF4DA
:1054B000CF7104A009F09AFA0DB1B46101E02004A3
:1054C000B06170BD2E2E2F447269766572732F53B2
:1054D000544D3332463478785F48414C5F447269AA
:1054E0007665722F5372632F73746D33326634781E
:1054F000785F68616C5F6770696F2E630000000001
:10550000014800687047000014100020034800683C
:1055100003490978084401490860704714100020C5
:105520001C10002010B50D48006840F400700B49B5
:1055300008600846006840F480600860084600681B
:1055400040F480700860032000F0F8F80F2000F0AD
:1055500007F800F02BF8002010BD0000003C0240CE
:1055600070B504460E4800784FF47A71B1FBF0F044
:105570000C490968B1FBF0F5284600F041FE08B17E
:10558000012070BD102C07D200222146501E00F0D1
:105590006BF80548046001E00120F2E70020F0E725
:1055A0001C100020201000201810002008B500BF9B
:1055B000002000900E48006840F480400C490860CC
:1055C0000846006800F48040009000BF00BF00BFA4
:1055D00000200090081F006840F08050091F0860FC
:1055E0000846006800F08050009000BF00BF08BD72
:1055F0004438024010B50446002C00DB03E0BC2117
:105600000AA009F0F3F9204600280DDB00BF00BF17
:1056100000F01F02012191404209920002F1E022B4
:10562000C2F8001100BF00BF00BF10BD2E2E2F44D6
:105630007269766572732F53544D333246347878DD
:105640005F48414C5F4472697665722F5372632FD5
:1056500073746D3332663478785F68616C5F636F42
:10566000727465782E6300002DE9F05F80460C4669
:1056700015460027102D00D203E0A82120A009F034
:10568000B5F9102C00D203E0A9211DA009F0AEF954
:1056900007F074FD0746394622462B4601F0070005
:1056A000C0F1070ABAF1040F02D94FF0040A01E071
:1056B000C0F1070AD14600F1040ABAF1070F02D27D
:1056C0004FF0000A01E0A0F1030AD4464FF0010AAE
:1056D0000AFA09FAAAF1010A0AEA020A0AFA0CFA13
:1056E0004FF0010B0BFA0CFBABF1010B0BEA030BB8
:1056F0004AEA0B063146404607F048FDBDE8F09FF8
:105700002E2E2F447269766572732F53544D3332A7
:10571000463478785F48414C5F4472697665722FF1
:105720005372632F73746D3332663478785F6861B7
:105730006C5F636F727465782E63000010B5044669
:10574000072C07D0062C05D0052C03D0042C01D043
:10575000032C00D103E0902109A009F047F900BF14
:1057600004F00701154A10684FF6FF021040144A72
:10577000024342EA0120114A106000BF10BD000040
:105780002E2E2F447269766572732F53544D333227
:10579000463478785F48414C5F4472697665722F71
:1057A0005372632F73746D3332663478785F686137
:1057B0006C5F636F727465782E6300000CED00E01F
:1057C0000000FA0570B504460D460CB9012070BD05
:1057D0002068012803D320680F2800D804E040F295
:1057E0005A2195A009F002F96DB1012D0BD0022DBF
:1057F00009D0032D07D0042D05D0052D03D0062D8B
:1058000001D0072D00D104E040F25B218AA009F00D
:10581000EDF89748006800F00700A84209D29449C3
:105820000D700846006800F00700A84201D0012072
:10583000CDE7207800F0020002283DD1207800F06A
:105840000400042805D18B48006840F4E0508949E1
:105850000860207800F00800082805D18548006815
:1058600040F4604083490860A068B8B1A06880280F
:1058700014D0A068902811D0A068A0280ED0A068ED
:10588000B0280BD0A068C02808D0A068D02805D0C8
:10589000A068E02802D0A068F02800D104E040F21F
:1058A0007E2165A009F0A2F87248006820F0F0009F
:1058B000A16808436F490860207800F001000028C3
:1058C0004ED0606840B16068012805D06068022849
:1058D00002D06068032800D104E040F2852156A080
:1058E00009F084F86068012807D162480838006828
:1058F000C0F34040B8B9012069E76068022802D0CF
:105900006068032807D15B4808380068C0F340602E
:1059100048B901205BE7574808380068C0F34000E9
:1059200008B9012053E75348006820F0030061687C
:10593000084350490860FFF7E3FD064608E0FFF71B
:10594000DFFD801B41F28831884201D903203EE708
:105950004848006800F00C006168B0EB810FEED1A0
:105960004348006800F00700A84209D940490D707B
:105970000846006800F00700A84201D0012026E791
:10598000207800F0040004281FD1E06878B1E068B6
:10599000B0F5805F0BD0E068B0F5A05F07D0E0689D
:1059A000B0F5C05F03D0E068B0F5E05F00D104E07F
:1059B00040F2C32120A009F019F82E48006820F415
:1059C000E050E16808432B490860207800F00800A7
:1059D000082820D1206978B12069B0F5805F0BD00C
:1059E0002069B0F5A05F07D02069B0F5C05F03D093
:1059F0002069B0F5E05F00D104E040F2CA210EA0BA
:105A000008F0F4FF1B48006820F46040216940EA78
:105A1000C1001849086000F05BF816490968C1F335
:105A20000311154A515CC8401449086014480068C5
:105A3000FFF796FD0020CAE62E2E2F447269766588
:105A400072732F53544D3332463478785F48414C4B
:105A50005F4472697665722F5372632F73746D336E
:105A600032663478785F68616C5F7263632E6300BE
:105A7000003C02400838024040F10008201000209D
:105A80001810002001480068704700002010002016
:105A900000B5FFF7F7FF04490968C1F38221034A03
:105AA000515CC84000BD00000838024050F10008B9
:105AB00000B5FFF7E7FF04490968C1F34231034A23
:105AC000515CC84000BD00000838024050F1000899
:105AD0002DE9F047002400250026A146254800684E
