:020000040800F2
:10000000580900202D020008F3390008E9350008DE
:10001000F1390008D90600081D4100080000000061
:10002000000000000000000000000000F739000898
:10003000A507000800000000F5390008F93900089C
:10004000470200084702000847020008470200086C
:10005000470200084702000847020008470200085C
:10006000470200084702000847020008470200084C
:10007000DD06000847020008E906000847020008FC
:10008000470200084702000847020008470200082C
:10009000470200084702000847020008470200081C
:1000A000470200084702000847020008470200080C
:1000B00047020008470200084702000847020008FC
:1000C00047020008470200084702000847020008EC
:1000D00047020008054100084702000811410008D6
:1000E00047020008470200084702000847020008CC
:1000F00047020008470200084702000847020008BC
:1001000047020008470200084702000847020008AB
:10011000470200084702000847020008470200089B
:10012000F5060008470200084702000847020008D9
:10013000470200084702000847020008470200087B
:10014000470200084702000847020008470200086B
:10015000470200084702000847020008470200085B
:10016000470200084702000847020008470200084B
:10017000470200084702000847020008000000008C
:10018000470200084702000800F002F800F03EF8BD
:100190000AA090E8000C82448344AAF10107DA45E2
:1001A00001D100F033F8AFF2090EBAE80F0013F0F6
:1001B000010F18BFFB1A43F001031847AC410000C0
:1001C000CC410000103A24BF78C878C1FAD8520751
:1001D00024BF30C830C144BF04680C6070470000C1
:1001E0000023002400250026103A28BF78C1FBD840
:1001F000520728BF30C148BF0B6070471FB504F0DD
:1002000095F800F0D5F81FBD10B510BD00F0E2F86C
:100210001146FFF7F3FF04F02FF800F000F903B4E4
:10022000FFF7F2FF03BC00F007F900000948804720
:1002300009480047FEE7FEE7FEE7FEE7FEE7FEE7C8
:10024000FEE7FEE7FEE7FEE704480549054A064BE0
:1002500070470000913A0008890100085803002007
:1002600058090020580500205805002053EA020CC8
:1002700000F069802DE9F04B4FF00006002B1FBF06
:10028000B3FA83F503FA05F424FA05F65E4012BFCB
:100290001643B2FA82F502FA05F4C5F120051EBF35
:1002A00022FA05FC44EA0C04203556EA044C4FEAD5
:1002B000144418BF641C4FF000084FF0000990422E
:1002C00071EB030C39D3002919BFB1FA81F701FA98
:1002D00007F6B0FA80F700FA07F6C7F120071EBF4D
:1002E00020FA07FC46EA0C062037B6FBF4FCA7EB25
:1002F0000507103F07F01F0BCBF120060CFA0BFB94
:100300002CFA06F644BFB3460026202FA4BF5E4653
:100310004FF0000B5BEA060C08BF4FF0010B19EB26
:100320000B09ABFB027C48EB0608C01B06FB02CCAA
:100330000BFB03CC71EB0C01C1E70B4602464146B7
:100340004846BDE8F08B13B54FF000004FF00001B8
:10035000AFF30080BDE81C4070474FF0000200B5CD
:10036000134694469646203922BFA0E80C50A0E8D8
:100370000C50B1F12001BFF4F7AF090728BFA0E886
:100380000C5048BF0CC05DF804EB890028BF40F852
:10039000042B08BF704748BF20F8022B11F0804F94
:1003A00018BF00F8012B7047704770477047000076
:1003B00070B5064C7C44064D7D4403E02068204423
:1003C0008047241DAC42F9D170BD0000D03F000031
:1003D000D03F0000754600F02BF8AE460500694698
:1003E000534620F00700854618B020B5FFF72CFFD4
:1003F000BDE820404FF000064FF000074FF0000826
:100400004FF0000B21F00701AC46ACE8C009ACE8A6
:10041000C009ACE8C009ACE8C0098D46704710B50A
:100420000446AFF300802046BDE81040FFF7F7BE5A
:1004300000487047F802002001491820ABBEFEE7D3
:10044000260002007047000000B587B014216846FE
:10045000FFF783FF0B480021026842F001020260AF
:10046000006800F001000590072000900120CDE910
:100470000101022003906946034801F0E5FA07B044
:1004800000BD0000303802400008024010B5FFF700
:10049000DBFFBDE810404FF4807000F04FB8000063
:1004A0002DE9FC4104460020234E8846009001902F
:1004B00001220221304601F045FC00220121304694
:1004C00001F040FC00206D4604E0211849782954D1
:1004D000401CC0B24045F8D300241DE00027285D31
:1004E000000601D5012200E000220421304601F07F
:1004F00029FC00220221304601F024FC285D012263
:10050000400028550221304601F01CFC7F1CFFB240
:10051000082FE4D3641CE4B24445DFD30122042154
:10052000304601F00FFC01221146304601F00AFC72
:100530002046BDE8FC810000000802401CB5074AC7
:10054000D2E90012CDE90012010A8DF801108DF8F0
:10055000020002216846FFF7A3FF1CBD58430008B4
:1005600010B504464B48416821F440314160416870
:100570006268114341602068416821F480714160E4
:1005800020684168226941EA02214160206841688F
:1005900021F04071416020684168A26811434160C8
:1005A0002068816821F40061816020688168E268C8
:1005B00011438160A06A6FF07061C8422068816851
:1005C00021F070618160206881680CD0A26A1143BB
:1005D00081602068816821F04051816020688168D5
:1005E000E26A114301E021F0405181602068816896
:1005F00021F00201816020688168227E41EA420187
:10060000816094F8200000283FD0606A401E0728CF
:1006100004D94FF4F56120A003F02CFE2068416856
:1006200041F4006141602068416821F4604141600B
:1006300020684168264B626A03EB423211434160F5
:100640002068C16A21F47001C1622068C16AA28B6E
:10065000204B03EB02521143C1622068816821F4F0
:10066000007181602068816894F8302041EA42215D
:1006700081602068816821F48061816020688168E0
:10068000626941EA8221816010BD2068416821F4DD
:100690000061D4E7002301402E2E2F447269766555
:1006A00072732F53544D3332463478785F48414C3F
:1006B0005F4472697665722F5372632F73746D3362
:1006C00032663478785F68616C5F6164632E6300C2
:1006D00000E0FFFF0000F0FFFEE70000014800F02F
:1006E000BBBE000038020020014800F0B5BE00008B
:1006F00098020020014800F0AFBE00007C000020FE
:1007000001681823CAB2103AB2FBF3F2054B6FF33B
:100710000901032A9B5CC36500D9091D8165084650
:10072000704700003643000810B5014600208B6971
:100730008A6A4FF0C07453B1B3F5005F15D072B13F
:10074000012A0CD0022A0AD0032A09D104E01AB1E6
:10075000012A06D0022A03D1C96AC90100D50120A5
:1007600010BDC96AA142FAD010BD002AF7D0012AF3
:10077000F2D0022AF3D0032AF3D010BD30B50468BA
:10078000256825F480252560046863608368402B14
:10079000036803D099600068C26030BD9A60006849
:1007A000C16030BD704772B6FEE7000070B51546F7
:1007B0000C4606463BB1B3F5804F07D040F2B51169
:1007C00030A003F057FD6FF0704056E03B48864282
:1007D00004D040F2BB112BA003F04CFD20680F2881
:1007E00004D94FF4DE7127A003F044FD6068401E79
:1007F0000E2804D940F2BD1122A003F03BFDA068F1
:10080000401EFE2804D94FF4DF711EA003F032FD14
:10081000E0680F2804D940F2BF111AA003F02AFDA6
:10082000A06968B1B0F1805F0AD0B0F1005F07D075
:10083000B0F1405F04D04FF4E07112A003F01AFD54
:1008400055B1022D08D0042D06D0062D04D040F25B
:10085000C1110CA003F00EFDA1692068A268084335
:100860006168090141EA02210843A18940EA014087
:1008700056F82510124A1140084346F8250000207A
:1008800070BD00002E2E2F447269766572732F534F
:10089000544D3332463478785F48414C5F44726936
:1008A0007665722F5372632F73746D3332663478AA
:1008B000785F6C6C5F66736D632E6300040100A04B
:1008C0000000F0CF70B50C460546B0F1204F03D0C4
:1008D000E4215FA003F0CEFC206848B1022807D0D5
:1008E000042805D0062803D0E52159A003F0C2FC56
:1008F000606828B1022803D0E62155A003F0BAFCB5
:10090000A06838B1042805D0082803D0E72150A0FA
:1009100003F0B0FCE06838B1102805D0202803D0DF
:10092000E8214BA003F0A6FC206930B1B0F5807F30
:1009300003D0E92146A003F09DFC606930B1B0F519
:10094000007F03D0EA2142A003F094FCA06930B1FB
:10095000B0F5806F03D0EC213DA003F08BFCE06983
:1009600030B1B0F5006F03D0EE2139A003F082FC66
:10097000206A30B1B0F5805F03D0EF2134A003F0DE
:1009800079FC606A30B1B0F5005F03D0F02130A08F
:1009900003F070FCA06A30B1B0F5804F03D0F121B4
:1009A0002BA003F067FCE06A30B1B0F5004F03D034
:1009B000F22127A003F05EFC206B30B1B0F5002FD0
:1009C00003D0F32122A003F055FCE06B78B1B0F521
:1009D000803F0CD0B0F5003F09D0B0F5403F06D0C5
:1009E000B0F5802F03D0FA2119A003F043FC206852
:1009F00055F8201021F0010145F82010A268082ABE
:100A000023D000206168204B1143E2680243206933
:100A10001143014360690143E0690143206A0143D6
:100A2000606A0143A06A0143E06A0143206B01430D
:100A3000A0690843E16B0143206855F820209A43E0
:100A40000A4345F82020002070BD4020DAE700006E
:100A50002E2E2F447269766572732F53544D3332A4
:100A6000463478785F48414C5F4472697665722FEE
:100A70005372632F73746D3332663478785F6C6CA5
:100A80005F66736D632E63007FFF0F0070B51546C0
:100A90000C460646B0F1204F04D040F2831137A037
:100AA00003F0E8FB20680F2804D94FF4C27133A08B
:100AB00003F0E0FB6068401E0E2804D940F2851167
:100AC0002EA003F0D7FBA068401EFE2804D94FF4E7
:100AD000C3712AA003F0CEFBE0680F2804D940F2CE
:100AE000871126A003F0C6FB2069801E0E2804D9BA
:100AF0004FF4C47121A003F0BDFB6069801E0F2874
:100B000004D940F289111DA003F0B4FBA16969B1B9
:100B1000B1F1805F0AD0B1F1005F07D0B1F1405F61
:100B200004D04FF4C57115A003F0A4FB55B1022DFC
:100B300008D0042D06D0062D04D040F28B110FA052
:100B400003F098FBD4E9000140EA0110A168A289F2
:100B5000090241EA02410843218A164A02EB015187
:100B60000843217D520102EB01610843A16908435A
:100B700006EB85014860002070BD00002E2E2F443A
:100B80007269766572732F53544D333246347878D8
:100B90005F48414C5F4472697665722F5372632FD0
:100BA00073746D3332663478785F6C6C5F66736D26
:100BB000632E63000000F0FF70B5054608680C4620
:100BC000122804D94FF44F71BEA003F053FB6068A4
:100BD000401E032804D940F23D31BAA003F04AFB7D
:100BE000A06890B1012810D002280ED003280CD0A4
:100BF00004280AD0052808D0062806D0072804D0E3
:100C000040F23E31AFA003F035FBBD4EA06998B372
:100C1000B0F5803F30D0B0F5003F2DD0B0F5403F6B
:100C20002AD0B0F5802F27D0B0F5A02F24D0B0F572
:100C3000C02F21D0B0F5E02F1ED0B0F5002F1BD073
:100C4000B0F5102F18D0B0F5202F15D0B0F5302FFB
:100C500012D0B0F5402F0FD0B0F5502F0CD0B0F51A
:100C6000602F09D0B0F5702F06D0B04204D040F20A
:100C70003F3194A003F0FEFA2069401E032804D9F6
:100C80004FF450718FA003F0F5FA607D30B1012868
:100C900004D040F241318BA003F0ECFA207D30B15A
:100CA000012804D040F2423186A003F0E3FA28681C
:100CB000406810F0407009D0B0F1807F0BD0B0F1E7
:100CC000007F0DD0B0F1407F0ED010E0E068B0F5AD
:100CD000805F11D30BE0E068B0F5806F0CD306E0C5
:100CE000E068FF2808D902E0E0683F2804D940F214
:100CF000463174A003F0BEFAA069B0420FD0E0699B
:100D000068B1B0F5801F0AD0B0F5001F07D0B0F56C
:100D1000401F04D040F24B316AA003F0ABFA95F8C3
:100D20003C00012819D0012085F83C0020680721EB
:100D30002A68092813D9D3680A3800EB400081409B
:100D40008B43D3602078A1680A3800EB40008140D3
:100D50002868C2681143C16010E0022070BD1369A9
:100D600000EB400081408B4313612178A06801EBC8
:100D70004101884029680A69104308612868816B2D
:100D800021F4401181632868816B228A5D4B03EB5B
:100D90000252114381632079217C401AC01C00EB70
:100DA00080001F2181402868826B8A4382632079FA
:100DB000217C401AC01C00EB8001208880B2884052
:100DC00029688A6B10438863A069B04228688168EB
:100DD00021F470218160286881680CD0A2691143D8
:100DE00081602868816821F44011816028688168E9
:100DF000E269114301E021F440118160607D002827
:100E00002868416802D041F4806101E021F48061EA
:100E10004160207D00282868416802D041F480515B
:100E200001E021F4805141606068012816D0022859
:100E30001FD00328286827D0016A6FF30B010162D5
:100E40002868016AE2681143016230492A682E4825
:100E50008A4227D12268122A20D023E028684169DB
:100E60006FF30B01416128684169E26811434161F8
:100E7000EBE7286881696FF30B018161286881695C
:100E8000E26811438161E0E7C1696FF30B01C16161
:100E90002868C169E2681143C161D6E7426842F43B
:100EA000800242602A688A4208D12168102901D054
:100EB000112903D1416841F400014160002085F807
:100EC0003C0070BD2E2E2F447269766572732F53CD
:100ED000544D3332463478785F48414C5F447269F0
:100EE0007665722F5372632F73746D333266347864
:100EF000785F68616C5F6164635F65782E63000092
:100F000001000F000000F0FF00230140002001401D
:100F1000F8B500260546009608680C46122804D944
:100F200040F28B615DA003F0A5F96068401E0F28B8
:100F300004D940F28C6159A003F09CF9A06890B1EB
:100F4000012810D002280ED003280CD004280AD083
:100F5000052808D0062806D0072804D040F28D6165
:100F60004EA003F087F995F83C00012819D0012024
:100F700085F83C00206807212A68092813D9D3681E
:100F80000A3800EB400081408B43D3602178A06891
:100F90000A3901EB410188402968CA681043C860DA
:100FA00010E00220F8BD136900EB400081408B4344
:100FB00013612178A06801EB4101884029680A6922
:100FC0001043086160681F21072813D22A68536BF9
:100FD000401E00EB800081408B43536321792088C1
:100FE000491E80B201EB8101884029684A6B104399
:100FF000486327E02A680D2812D2136BC01F00EB4C
:10100000800081408B43136321792088C91F80B2FF
:1010100001EB8101884029680A6B1043086311E0E5
:10102000D36A0D3800EB800081408B43D362217975
:1010300020880D3980B201EB810188402968CA6A95
:101040001043C86224492A6822488A4206D122688D
:10105000122A03D1426842F4800242602A688A421E
:1010600018D12168102901D0112913D1416841F408
:1010700000014160206810280CD118481849006808
:10108000B0FBF1F000EB8000400000E0401E00905B
:101090000028FBD185F83C600020F8BD2E2E2F449F
:1010A0007269766572732F53544D333246347878B3
:1010B0005F48414C5F4472697665722F5372632FAB
:1010C00073746D3332663478785F68616C5F616425
:1010D000632E63000023014000200140180000201F
:1010E00040420F002DE9F04704004FF000057DD08D
:1010F0007249206888420AD07149884207D07149F4
:10110000884204D04FF4A1716FA003F0B3F8606877
:1011100068B1B0F5803F0AD0B0F5003F07D0B0F518
:10112000403F04D040F2431167A003F0A3F8A06849
:101130004FF080774FF000784FF0407950B1B842CF
:1011400008D0404506D0484504D04FF4A2715EA0B7
:1011500003F090F8206930B1012804D040F2451125
:1011600059A003F087F8207E30B1012804D04FF455
:10117000A37155A003F07EF8614EA06A80B3B84217
:101180002ED040452CD048452AD0B0F1806F27D0D2
:10119000B0F1A06F24D0B0F1C06F21D0B0F1E06FFA
:1011A0001ED0B0F1006F1BD0B0F1106F18D0B0F1AD
:1011B000206F15D0B0F1306F12D0B0F1406F0FD06A
:1011C000B0F1506F0CD0B0F1606F09D0B0F1706F1A
:1011D00006D0B04204D040F247113BA003F04AF8D9
:1011E000E06848B1B0F5006F06D000E043E04FF48E
:1011F000A47135A003F03EF8E069401E0F2804D921
:1012000040F2491130A003F035F894F8300030B1C5
:10121000012804D04FF4A5712BA003F02BF86069CE
:10122000012807D030B1022804D040F24B1126A08B
:1012300003F020F894F8200030B1012804D04FF4D6
:10124000A67121A003F016F8A06AB0420FD0E06AA0
:1012500068B1B0F1805F0AD0B0F1005F07D0B0F1A3
:10126000405F04D04FF4A87117A003F003F8206C7E
:10127000002618B108E00120BDE8F087204600F004
:1012800041F8666484F83C60206CC00610D4206C81
:1012900020F4885040F0020020642046FFF760F9F7
:1012A0006664206C20F0020040F00100206400E041
:1012B000012584F83C602846DEE70000002001405C
:1012C00000210140002201402E2E2F4472697665D4
:1012D00072732F53544D3332463478785F48414C03
:1012E0005F4472697665722F5372632F73746D3326
:1012F00032663478785F68616C5F6164632E630086
:101300000100000F70B586B0064614216846FFF74D
:1013100024F81E493068884235D11D4800250168EF
:1013200041F480710160006800F4807005901848F5
:101330001438016841F0010101600068694600F05D
:1013400001000590542000900320CDE901051148CB
:1013500000F07AFB114C1048C4E900050015A560A7
:10136000C4E90350400060618000C4E906054FF401
:101370004030C4E90805204600F03EF908B1FFF707
:1013800012FAB463A66306B070BD000000200140ED
:101390004438024000000240106402407C000020FB
:1013A0002DE9F0410446876D00F002FD064694F8F1
:1013B00035000025022806D08020606584F834506E
:1013C0000120BDE8F0812068016821F0160101606C
:1013D0002068416921F080014161206C08B9A06C4E
:1013E00020B12068016821F00801016020680168CF
:1013F00021F0010101600CE000F0DAFC801B0528FF
:1014000007D920206065032084F8350084F8345023
:10141000D7E720680068C007EED194F85C103F2041
:101420008840B860012084F8350084F834500020EA
:10143000C7E790F83510022903D0802141650120CB
:101440007047052180F835100068016821F001011E
:1014500001600020704700002DE9F84304464FF07A
:101460000009CDF8009063484FF41651A56D00684F
:10147000B0FBF1F72E6894F85C10082000FA01F137
:1014800031420FD021680A6852070BD50A6822F052
:1014900004020A6094F85C108840A860606D40F017
:1014A0000100606594F85C104FF0010808FA01F043
:1014B000304208D021684969090604D5A860606DEA
:1014C00040F00200606594F85C10042088403042CF
:1014D00008D021680968890704D5A860606D40F0CC
:1014E0000400606594F85C1010208840304218D0E9
:1014F00021680968090714D5A860206801684903B4
:1015000004D50068000308D5A16C07E00168C9058F
:1015100003D4016821F008010160216C09B1204663
:10152000884794F85C1020208840304231D02168F0
:101530000968C9062DD5A86094F8350005282068EB
:10154000016806D0490347D5006800031DD4616CCB
:101550001CE021F0160101602068416921F0800142
:101560004161206C08B9A06C20B12068016821F0AD
:101570000801016094F85C103F208840A86084F85E
:10158000358084F83490216D1FE0E16B09B120466D
:101590008847606D00282BD0606DC00714D00520EF
:1015A00084F835002068016821F00101016000988D
:1015B000401C0090B84203D820680068C007F6D1EC
:1015C00084F8358084F83490E16C002910D001B0A3
:1015D0002046BDE8F04308470168C905D5D4016835
:1015E00021F01001016084F8358084F83490CCE754
:1015F000BDE8F883180000202DE9F041044600F012
:10160000D7FB0546002C7CD0A249206888423ED0FA
:10161000A049183188423AD09E493031884236D0AC
:101620009C494831884232D09A49603188422ED054
:101630009849783188422AD096499031884226D0FC
:101640009449A831884222D0934988421FD09249B8
:10165000183188421BD090493031884217D08E49CA
:101660004831884213D08C49603188420FD08A4972
:10167000783188420BD088499031884207D086491A
:10168000A831884203D0B72184A002F0F3FD60683E
:10169000C0B1B0F1007F15D0B0F1806F12D0B0F1C1
:1016A000C06F0FD0B0F1006F0CD0B0F1206F09D037
:1016B000B0F1406F06D0B0F1606F03D0B82177A0D1
:1016C00002F0D8FDA06838B1402805D0802803D0AA
:1016D000B92172A002F0CEFDE068B0F5007F04D021
:1016E00018B1BA216DA002F0C5FD2069B0F5806F78
:1016F00004D018B1BB2169A002F0BCFD606958B1EB
:1017000000E071E0B0F5006F06D0B0F5805F03D067
:10171000BC2162A002F0AEFDA06948B1B0F5005F47
:1017200006D0B0F5804F03D0BD215CA002F0A2FD31
:10173000E06940B1B0F5807F05D0202803D0BE21FC
:1017400056A002F097FD206A60B1B0F5803F09D045
:10175000B0F5003F06D0B0F5403F03D0BF214FA009
:1017600002F088FD606A002832D0042806D0C0212B
:101770004AA002F07FFD606A002829D0A06A48B123
:10178000012807D0022805D0032803D0C52143A093
:1017900002F070FDE06A60B1B0F5000F09D0B0F161
:1017A000807F06D0B0F1C07F03D0C6213BA002F0FD
:1017B00061FD206B60B1B0F5001F09D0B0F5800F5E
:1017C00006D0B0F5C00F03D0C72134A002F052FDFF
:1017D000022084F83500002684F83460206801680F
:1017E00021F0010101600EE00120BDE8F08100BFA1
:1017F00000F0DEFA401B052805D920206065032093
:1018000084F83500F1E720680068C007F0D122684D
:10181000116830480140D4E901031843D4E9033585
:101820002B43184363691843A3691843E3691843BA
:10183000236A18430843616A042903D1D4E90B13CE
:1018400019430843106020684069656A20F007006A
:1018500029460543012704290CD1A06A0543E06A03
:1018600040B12046FEF760FF20B14020606584F85B
:101870003570B9E7206845612046FEF741FF94F8CE
:101880005C203F2191408160666584F835700020BE
:10189000ABE7000010600240106402402E2E2F447F
:1018A0007269766572732F53544D333246347878AB
:1018B0005F48414C5F4472697665722F5372632FA3
:1018C00073746D3332663478785F68616C5F646D11
:1018D000612E63003F8010F02DE9F04789460446F1
:1018E000876D0025581E4FF6FF711E4690468842B0
:1018F00004D340F2CB111CA002F0BCFC94F83400DD
:1019000001280DD0012084F8340094F8351000200F
:10191000012907D084F8340002252846BDE8F08765
:101920000220FBE7022184F8351060653346424609
:1019300049462046FEF722FF94F85C103F2088407D
:10194000B8602068016841F016010160206C20B188
:101950002068016841F0080101602068016841F0D9
:1019600001010160D9E700002E2E2F4472697665CF
:1019700072732F53544D3332463478785F48414C5C
:101980005F4472697665722F5372632F73746D337F
:1019900032663478785F68616C5F646D612E6300D5
:1019A0002DE9F04186B014216846FEF7D6FC2048A8
:1019B0000168002939D1012101601E480024016815
:1019C00041F00101016000684FF4805800F001000F
:1019D0000C27CDF80080CDE904700326022503967C
:1019E000CDE901546946144800F02EF84FF6807096
:1019F000CDE9000502AA694682E8D0000F4800F050
:101A000023F84CF23370CDE9000502AA694682E85A
:101A1000D0000B4800F018F802AA694682E8D0000E
:101A2000CDE90085074800F00FF806B0BDE8F08169
:101A30000400002038380240001402400010024028
:101A4000000C0240001802402DE9F84FDFF888B280
:101A50000D46044658451BD0A048844218D0A048E3
:101A6000844215D09F48844212D09F4884420FD0B0
:101A70009E4884420CD09E48844209D09D488442AE
:101A800006D09D48844203D0AC219CA002F0F2FB1A
:101A900028680104090C01D0000C03D0AD2197A0E7
:101AA00002F0E8FB6868F8B101281DD011281BD0AE
:101AB000022819D0122817D0B0F5881F14D0B0F51D
:101AC000041F11D0B0F5441F0ED0B0F5901F0BD0FD
:101AD000B0F5081F08D0B0F5481F05D0032803D083
:101AE000AE2186A002F0C6FB00264FF0010A4FF09F
:101AF000030900BF0AFA06F02F68804607404745F1
:101B00007ED1287900F00300012801D002281DD1E0
:101B1000E86848B1012807D0022805D0032803D07F
:101B2000C02176A002F0A6FBA168720009FA02F0BB
:101B30008143E86890400843A0606068297920EA02
:101B40000800C1F30011B140014361602879C0432E
:101B5000800712D0A86838B1012805D0022803D028
:101B6000D12166A002F086FBE168720009FA02F05A
:101B70008143A86890400843E060287900F00300A2
:101B800002282ED12869F8B109281DD001281BD0C0
:101B9000022819D0032817D0042815D0052813D0FF
:101BA000062811D007280FD008280DD00A280BD0FE
:101BB0000B2809D00C2807D00D2805D00F2803D0FA
:101BC000DE214EA002F056FBF00804EB8002106A02
:101BD0007107CB0E0F219940884329699940014331
:101BE00011622068720009FA02F18843297901F034
:101BF0000301914001432160686810F4403F00E018
:101C000063E062D04C48016841F4804101600068A3
:101C100026F0030100F48040009048480A18D2F8EA
:101C20000808B1070B0F0F21994088435C4501D18B
:101C3000002123E029498C4201D101211EE02849DD
:101C40008C4201D1022119E026498C4201D10321A5
:101C500014E025498C4201D104210FE023498C4234
:101C600001D105210AE022498C4201D1062105E07B
:101C700020498C4201D1072100E00821994001430D
:101C8000C2F808182E4908686A68B843D20200D51D
:101C9000384308602A49091D08686A68B8439202F7
:101CA00000D5384308602649091F08686A68B843A8
:101CB000920300D5384308602149083908686A68EA
:101CC000B843D20300D538430860761C102EFFF4C9
:101CD00011AFBDE8F88F0000000002400004024090
:101CE00000080240000C02400010024000140240B4
:101CF00000180240001C0240002002402E2E2F44FB
:101D00007269766572732F53544D33324634787846
:101D10005F48414C5F4472697665722F5372632F3E
:101D200073746D3332663478785F68616C5F6770A6
:101D3000696F2E630000000044380240003001400B
:101D4000083C014070B515460C00064604D140F22F
:101D50009D1108A002F08EFA45B1012D04D04FF478
:101D6000CF7104A002F086FAB46170BD2004B061A6
:101D700070BD00002E2E2F447269766572732F534A
:101D8000544D3332463478785F48414C5F44726931
:101D90007665722F5372632F73746D3332663478A5
:101DA000785F68616C5F6770696F2E630000000088
:101DB00001488068704700000C00002002488168DC
:101DC00002781144816070470C0000200B4810B568
:101DD000016841F400710160016841F480610160B3
:101DE000016841F480710160032000F0C3F80F2006
:101DF00000F006F800F024F8002010BD003C02407E
:101E000070B50D4D04464FF47A712878B1FBF0F0AF
:101E10000A490968B1FBF0F000F0E8FC48B9102C61
:101E200007D200222146501E00F054F800206C60BA
:101E300070BD012070BD00000C00002018000020C3
:101E40000A4808B5016841F480410160006800F467
:101E5000804000900548001F016841F080510160FA
:101E6000006800F08050009008BD00004438024037
:101E700010B5040003D5BC2107A002F0FBF9002C2B
:101E800009DB04F01F01012088406109890001F18C
:101E9000E021C1F8000110BD2E2E2F447269766535
:101EA00072732F53544D3332463478785F48414C27
:101EB0005F4472697665722F5372632F73746D334A
:101EC00032663478785F68616C5F636F72746578CE
:101ED0002E63000070B515460C460646102A03D343
:101EE000A82114A002F0C6F9102C03D3A92111A037
:101EF00002F0C0F91E480068C0F30223C3F10702D4
:101F00002046042A00D90422191D072901D20023E2
:101F100000E0DB1E012404FA02F1491E0140994051
:101F20009C40641E2C4021433046BDE8704002F0C6
:101F3000F6B800002E2E2F447269766572732F5307
:101F4000544D3332463478785F48414C5F4472696F
:101F50007665722F5372632F73746D3332663478E3
:101F6000785F68616C5F636F727465782E630000E0
:101F70000CED00E010B5044607280BD0062C09D064
:101F8000052C07D0042C05D0032C03D0902108A0E9
:101F900002F070F9154904F0070208684FF6FF03D4
:101FA000184040EA0220124A1043086010BD0000A9
:101FB0002E2E2F447269766572732F53544D33322F
:101FC000463478785F48414C5F4472697665722F79
:101FD0005372632F73746D3332663478785F68613F
:101FE0006C5F636F727465782E6300000CED00E027
:101FF0000000FA052DE9F0470E4604007DD0206868
:10200000401E0E2804D940F25A217AA002F032F97B
:1020100096B1012E10D0022E0ED0032E0CD0042E1D
:102020000AD0052E08D0062E06D0072E04D040F286
:102030005B2170A002F01EF9DFF8F081D8F80000F3
:10204000F7B200F00700B04207D288F80070D8F865
:10205000000000F00700B0424FD12068744D8107A6
:1020600029D5400703D5286840F4E050286020783F
:10207000000703D5286840F460402860A068A0B13C
:10208000802812D0902810D0A0280ED0B0280CD0D4
:10209000C0280AD0D02808D0E02806D0F02804D0E4
:1020A00040F27E2153A002F0E5F82868A16820F0F4
:1020B000F000084328602078C00743D0DFF8709113
:1020C0006068A9F1080988B1012822D0022824D02B
:1020D000032822D040F2852146A002F0CBF86068A8
:1020E000012816D0022818D0032816D0D9F80000ED
:1020F0008007002833DA286800E030E0616820F0CB
:10210000030008432860FFF753FE814641F2883AF6
:1021100011E0D9F800008003EBE7D9F80000800156
:10212000E7E700BFFFF744FEA0EB0901514502D9E4
:102130000320BDE8F0872868616800F00C00B0EB70
:10214000810FEFD1D8F80010404601F00701B142ED
:1021500007D90770006800F00700B04201D00120E5
:10216000E7E720784FF4805640074FF4A0574FF42C
:10217000C0584FF4E05914D5E06860B1B0420AD0BD
:10218000B84208D0404506D0484504D040F2C321AB
:1021900018A002F06FF82868E16820F4E0500843C6
:1021A00028602078000715D5206960B1B0420AD0B8
:1021B000B84208D0404506D0484504D040F2CA2174
:1021C0000CA002F057F82868216920F4604040EA2A
:1021D000C100286000F054F82968164AC1F30311C1
:1021E000515CC8401449086014480068FFF708FEB5
:1021F00000209EE72E2E2F447269766572732F534E
:10220000544D3332463478785F48414C5F447269AC
:102210007665722F5372632F73746D333266347820
:10222000785F68616C5F7263632E6300003C0240FC
:10223000083802403E43000818000020100000202B
:102240000448054900680968044AC1F38221515CC9
:10225000C840704718000020083802404E4300086C
:102260000448054900680968044AC1F34231515CD9
:10227000C840704718000020083802404E4300084C
:10228000154810B5006810F00C02144813D014491A
:10229000042A0FD0082A0ED10F4C241F226823686D
:1022A00002F03F025B0207D52068C0F38810A0FB54
:1022B000010106E0084610BD2168C1F38811A1FBA9
:1022C00000010023FDF7D2FF2168C1F30141491C41
:1022D0004900B0FBF1F010BD083802400024F400C2
:1022E00040787D012DE9F84F04007DD020680F284B
:1022F00003D9E621F7A001F0BDFF2078DFF80C94A8
:10230000C007A9F1040555D060684FF480364FF43A
:10231000A02738B1B04205D0B84203D0EB21EDA0E0
:1023200001F0A8FFF948001D0168C1F381010129EE
:1023300008D00068C0F3810002280AD1D9F8000053
:10234000400206D52868800334D560680028CCD0C8
:1023500030E06068B04203D1286840F480300CE07F
:10236000B842286803D140F480202860F4E720F4C4
:1023700080302860286820F480202860606860B180
:10238000FFF716FD064604E0FFF712FD801B6428E8
:102390007ED828688003F7D50CE0FFF709FD0646D4
:1023A00005E000BFFFF704FD801B6428F0D8286813
:1023B0008003F7D42078DFF8588380074FF0000AB5
:1023C00056D5E06830B1012804D040F21D11C1A0FB
:1023D00001F050FF20691F2804D94FF48F71BDA070
:1023E00001F048FFC94800E092E0001D016811F0CB
:1023F0000C0F08D00068C0F38100022810D1D9F872
:10240000000040020CD42868800702D5E06801284B
:102410007ED12868216920F0F80040EAC10017E069
:10242000E068B8B10120C8F80000FFF7C1FC06461B
:1024300005E000BFFFF7BCFC801B0228A8D8286875
:102440008007F7D5286820F0F801206941EAC0002C
:1024500028600DE0C8F800A0FFF7AAFC064604E0DB
:10246000FFF7A6FC801B022892D828688007F7D4C3
:10247000207800072ED5A54EA64F60697036D0B1E2
:10248000012808D04FF4AF7192A001F0F3FE00E0F4
:102490004BE1606978B101203860FFF789FC07469D
:1024A00005E000BFFFF784FCC01B0228C6D83068D7
:1024B0008007F7D50EE0C7F800A0FFF779FC0746C4
:1024C00005E000BFFFF774FCC01B0228B6D83068D7
:1024D0008007F7D42078400776D5A068002740B160
:1024E000012806D0052804D04FF4C57179A001F069
:1024F000C1FEDFF818B20BF13C0BDBF80000C000A6
:102500000DD4DBF8001041F08051CBF8001000E052
:1025100038E1DBF80000012700F0805000907E4E8B
:102520003068C00511D4306840F480703060FFF727
:102530003FFC009006E000BFFFF73AFC0099401A0C
:10254000022891D83068C005F6D5704EA0686C3668
:1025500001280FD00528306810D020F0010030602D
:10256000306820F004003060A068B8B1FFF720FCAC
:1025700000900FE0306840F00100F4E740F0040004
:102580003060F7E7FFF714FC0099411A41F28830F8
:1025900081428BD830688007F4D50EE0FFF708FC45
:1025A000009007E0FFF704FC0099411A41F28830DF
:1025B00081428BD830688007F4D42FB1DBF800104B
:1025C00021F08051CBF80010A069002876D00128B6
:1025D00009D0022807D040F2CD113EA001F04AFEFA
:1025E000A0690028F2D04948001D0068C0F38100AE
:1025F0000228A0696DD0022805D0C8F860A0FFF7B6
:10260000D7FB044694E0E06938B1B0F5800F04D000
:102610004FF4EB712FA001F02DFE206A801E3D28A3
:1026200004D940F2D7112BA001F024FE606A3238A1
:10263000B0F5BF7F04D94FF4EC7126A001F01AFE6B
:10264000A06A02280AD0042808D0062806D0082844
:1026500004D040F2D9111FA001F00CFEE06A801EE8
:102660000D2804D94FF4ED711AA001F003FE47467E
:10267000C8F860A0FFF79CFB064604E0FFF798FB54
:10268000801B022851D828688001F7D4D4E90701BB
:102690000843A16A214A490802EB0141626A41EA02
:1026A0008211084394F82C1040EA0161C9F8001027
:1026B00001203866FFF77CFB044606E064E000BFBB
:1026C000FFF776FB001B02282FD828688001F7D57A
:1026D0005AE031E02E2E2F447269766572732F53C3
:1026E000544D3332463478785F48414C5F447269C8
:1026F0007665722F5372632F73746D33326634783C
:10270000785F68616C5F7263632E63000438024017
:1027100000004742800E4742007000400000FFFF6B
:10272000FFF746FB001B022802D90320BDE8F88F03
:1027300028688001F4D427E00128F7D0D9F80000F8
:10274000E26900F4800191421CD1226A00F03F014D
:10275000914217D147F6C071626A0140B1EB821F06
:1027600010D1A26A4FF0FF3300F4403103EB520264
:10277000B1EB024F06D194F82C1000F07060B0EB72
:10278000016F01D00120D1E70020CFE770B51546D9
:102790000E46040003D094F8490010B107E0012070
:1027A00070BD002084F84800204600F01DF804F1B8
:1027B00008012068FEF786F83146A2682068FEF717
:1027C00065F9D4E901022946236BFDF7EFFF216883
:1027D000A06851F8202042F0010241F82020012099
:1027E00084F84900002070BDFFF7DAB810B5401E2C
:1027F000B0F1807F01D3012010BD4FF0E024606173
:102800000F21601701F08BFC0020A06107202061E0
:10281000002010BD2DE9F05F044600683A4E3B4FA2
:10282000DFF8EC80DFF8EC90DFF8ECA00D464FF01D
:10283000804BB04215D0584513D0B84211D0404516
:102840000FD048450DD04FEAB641884209D03349F0
:10285000884206D0504504D040F2A97130A001F062
:1028600009FD286890B1102810D020280ED03028FB
:102870000CD040280AD0502808D0602806D07028F4
:1028800004D040F2AA7126A001F0F4FC6868802808
:1028900005D020B140F2AB7121A001F0EBFC94F81F
:1028A0003C0001282DD0012284F83C20022084F82D
:1028B0003D00216848688B6820F0700C286840EA69
:1028C0000C0048602068B0420FD058450DD0B84287
:1028D0000BD0404509D0484507D0504505D01F4989
:1028E000884202D01E49884204D1696823F08003DF
:1028F0001943816084F83D20002084F83C00BDE845
:10290000F09F0220FBE700000000014000040040AF
:1029100000080040000C004000040140001400408A
:102920002E2E2F447269766572732F53544D3332B5
:10293000463478785F48414C5F4472697665722FFF
:102940005372632F73746D3332663478785F6861C5
:102950006C5F74696D5F65782E6300000040014014
:102960000018004070B5040057D0484920688E0315
:10297000474D884229D0B04227D04649884224D0CA
:102980004549884221D0A8421FD0444988421CD0E2
:102990004349884219D04349884216D04249884267
:1029A00013D04249884210D0414988420DD0414954
:1029B00088420AD04049884207D04049884204D022
:1029C00040F213113EA001F055FCA06860B1102840
:1029D0000AD0202808D0402806D0602804D04FF420
:1029E0008A7137A001F046FC206950B1B0F5807FB4
:1029F00007D0B0F5007F04D040F2151130A001F0EF
:102A000039FC2068B0420AD0A84208D0E0684FF6EE
:102A1000FE71401E884209D903E0012070BDE068C4
:102A200020B94FF48B7126A001F024FCA06930B1CD
:102A3000802804D040F2171121A001F01BFC94F86B
:102A40003D0028B9002084F83C00204600F054F8EE
:102A5000022084F83D00211D206801F021F80120AA
:102A600084F8460084F83E0084F83F0084F8400073
:102A700084F8410084F8420084F8430084F844005C
:102A800084F8450084F83D00002070BD000001403E
:102A9000000C00400004004000080040001000400E
:102AA0000014004000040140004001400044014087
:102AB0000048014000180040001C00400020004079
:102AC0002E2E2F447269766572732F53544D333214
:102AD000463478785F48414C5F4472697665722F5E
:102AE0005372632F73746D3332663478785F686124
:102AF0006C5F74696D2E630008B50068B0F1804F9B
:102B000008D10548016841F001010160006800F04A
:102B10000100009008BD0000403802402DE9F84F48
:102B200005460020009095F83C000C46012841D055
:102B3000012085F83C00022085F83D0020684FF414
:102B4000805B584516D0702814D0B0F5005F11D0C6
:102B500040280FD050280DD060280BD050B110283D
:102B600008D0202806D0302804D041F2C341D4A098
:102B700001F080FB2868816821F0770121F47F4112
:102B800081602068DC49DD4ADD4BDE4EDE4FDFF838
:102B90007CC3DFF87C834FF080494FF4004A502813
:102BA0007ED00FDC202804D007DC0028FBD01028C2
:102BB00077D161E10220BDE8F88F3028F9D04028B4
:102BC000F6D126E160286DD0702874D0584544D0E5
:102BD0004FF400584045EBD1286888420ED0484554
:102BE0000CD090420AD0984208D0B04206D0B842E9
:102BF00004D041F2EE41B2A001F03CFBA06858B114
:102C0000584509D0404507D0B0F5405F04D041F2A7
:102C1000F141ABA001F02EFB6068504509D040B1F6
:102C2000022806D00A2804D041F2F241A4A001F003
:102C300021FBE0680F2804D941F2F341A0A001F084
:102C400019FBD4E90121E368286800F091FF2868A6
:102C5000816841F48041816029E128688842FBD085
:102C60004845F9D09042F7D09842F5D0B042F3D021
:102C7000A8498842F0D0A8498842EDD0B842EBD0AC
:102C80006045E9D0A5498842E6D0A5498842E3D00D
:102C90004045E1D0A3498842DED0A349884203E001
:102CA0004FE002E180E006E0D6D041F2CF4184A0BF
:102CB00001F0E0FAFBE02868884212D0484510D0C5
:102CC00090420ED098420CD0B0420AD0B84208D000
:102CD000604506D0404504D041F2D64178A001F0CD
:102CE000C9FAA06860B158450AD0B0F5005F07D0B6
:102CF000B0F5405F04D041F2D94171A001F0BAFAB9
:102D00006068504509D040B1022806D00A2804D096
:102D100041F2DA416AA001F0ADFAE0680F2804D967
:102D200041F2DB4166A001F0A5FAD4E90121E36894
:102D3000286800F01DFF2968886840F077008860E7
:102D4000B5E02868884212D0484510D090420ED095
:102D500098420CD0B0420AD0B84208D0604506D0A4
:102D6000404504D041F2025155A001F083FA606859
:102D7000504509D040B1022806D00A2804D041F2BB
:102D800005514FA001F076FAE0680F2804D941F20E
:102D900006514BA001F06EFAE2686168286800F005
:102DA000F9FE5021286831E02868884212D0484551
:102DB00010D090420ED098420CD0B0420AD0B84207
:102DC00008D0604506D0404504D041F212513CA0E5
:102DD00001F050FA6068504509D040B1022806D091
:102DE0000A2804D041F2155135A001F043FAE068F9
:102DF0000F2804D941F2165131A001F03BFAE268E4
:102E00006168286800F0D7FE6021286800F0BAFEEB
:102E10004DE02868884212D0484510D090420ED02C
:102E200098420CD0B0420AD0B84208D0604506D0D3
:102E3000404504D041F2225121A001F01BFA606804
:102E4000504509D040B1022806D00A2804D041F2EA
:102E500025511BA001F00EFAE0680F2804D941F2B9
:102E6000265117A001F006FAE2686168286800F0B0
:102E700091FE40212868C9E72868884212D0484559
:102E800010D090420ED098420CD0B0420AD0B84236
:102E900008D0604506D0404504D041F2355108A025
:102EA00001F0E8F921682868B0E7012000900120CE
:102EB00085F83D00002085F83C0000987BE6000086
:102EC0002E2E2F447269766572732F53544D333210
:102ED000463478785F48414C5F4472697665722F5A
:102EE0005372632F73746D3332663478785F686120
:102EF0006C5F74696D2E63000000014000040040A7
:102F000000080040000C0040000401400040014067
:102F10000018004000100040001400400044014030
:102F200000480140001C00400020004038B5044625
:102F300090F84200202801D0022038BD51B14AB19A
:102F40000120206300206063204601F051F8216BCE
:102F5000012901D0012038BD21680A684968009123
:102F600021680C3151E8002F42F0100241E80023A3
:102F7000002BF5D138BD000010B500680B4A904217
:102F800012D10A460A4901F17C0000F0E9FA084929
:102F9000322201F17C00FFF7C9FF0548C430006808
:102FA000016821F00801016010BD000000480040E8
:102FB0007401002070470000F8B5016804460868F5
:102FC000CA684B6910F00F0F4FF0000559D003F09D
:102FD000010602F49077374365D0C10705D0D105CB
:102FE00003D5616C41F001016164410705D5D90742
:102FF00003D0616C41F002016164810705D5D907F6
:1030000003D0616C41F004016164010707D502F04F
:103010002001314303D0616C41F008016164616CAF
:1030200000293AD0800604D5900602D5204600F04B
:10303000ADFE20684069616CC0F38010090700D4C0
:1030400060B3204600F06DFE20684069400621D53F
:103050002068143050E8001F21F0400140E80012C1
:10306000002AF5D1E06BA8B172490165E06BFEF76B
:10307000E0F9002811D0E06B016D01B0BDE8F0402F
:10308000084783060FD593060DD52046BDE8F840C6
:1030900000F07CBE2046FFF78DFFF8BD2046FFF70D
:1030A00089FF6564F8BD266B2023012E7ED1C606FC
:1030B0007CD5D6067AD508684868009048694FF0F4
:1030C000020640064DD5E26B106840684FF48077E9
:1030D0000004000C3AD0A18D814237D9E085D06937
:1030E000B8422DD020680C3050E8001F21F48071C8
:1030F00040E80012002AF5D12068143050E8001F83
:1031000021F0010140E80012002AF5D120681430B6
:1031100050E8001F21F0400140E80012002AF5D1DC
:1031200084F84230256320680C3050E8001F21F0FD
:10313000100140E80012002AF5D1E06BFEF730F9EB
:103140006663A08DE18D401A81B206E0A18D8142B7
:10315000A8D1D069B842A5D166632046FFF70CFF1D
:10316000F8BDA08DE18D401A81B2E08D0028F7D026
:103170000029F5D020680C3050E8002F22F490721E
:1031800040E80027002FF5D12068143050E8002FC8
:1031900022F0010240E80027002FF5D184F84230E8
:1031A000256320680C3050E8002F00E006E022F094
:1031B000100240E80023002BF3D1CDE705062BD504
:1031C000150629D594F841002128C9D1A068B0F589
:1031D000805F01D12069B0B1206A411C2162216861
:1031E00000784860E08C401E0004000CE084B7D1F9
:1031F0002068C16821F08001C1602068C16841F089
:103200004001C160F8BD206A0088C0F30800486032
:10321000206A801C2062E5E74006F3D55006F1D510
:10322000CA68204622F04002CA6084F8413000F0AB
:10323000D9F9F8BDDB3B000870B5040023D0A069C4
:103240003B4900283B4A3C4B3C4D20681DD08842FE
:103250000CD090420AD0984208D0A84206D040F242
:10326000731137A001F006F8A06908B3A069B0F5A2
:10327000807F1DD0B0F5007F1AD0B0F5407F17D009
:103280004FF4BA7111E0012070BD884210D0904215
:103290000ED098420CD03949884209D0384988422A
:1032A00006D0A84204D04FF4BC7125A000F0E2FF84
:1032B000A06838B1B0F5805F04D04FF4BD7120A094
:1032C00000F0D8FFE06938B1B0F5004F04D040F20B
:1032D0007B111BA000F0CEFF94F84100002520B91F
:1032E00084F84050204600F04DF8242084F8410036
:1032F0002068C16821F40051C160204600F0A8FD9B
:103300002068016921F4904101612068416921F040
:103310002A0141612068C16841F40051C1606564BF
:10332000202084F8410084F842006563002070BDCD
:1033300000100140004400400048004000140140DB
:103340002E2E2F447269766572732F53544D33328B
:10335000463478785F48414C5F4472697665722FD5
:103360005372632F73746D3332663478785F68619B
:103370006C5F756172742E6300000000004C0040A9
:10338000005000402DE9F04186B006461421684601
:10339000FCF7E3FF424F316842480222032307252E
:1033A0000024B94221D13F4914310E6846F010067D
:1033B0000E60096801F010010591016841F00101FA
:1033C00001600068694600F00100059058028DE830
:1033D0001500CDE903353448FEF736FB00221146CF
:1033E0002520FEF777FD252054E0304FB94253D118
:1033F0002C4910310F6847F480270F60096801F4E9
:1034000080210591016841F0020101600068694670
:1034100000F0020005904FF440608DE81500CDE902
:1034200003352348FEF710FB234D22484FF0006779
:103430002860C5E901744FF48068C5E903486C61F0
:10344000AC61EC612C6228466C62FEF7D5F808B1DD
:10345000FDF7A9F9F563AE63174D164860353030B6
:10346000E5E802074020A5E81101134845F8144992
:103470006030AC61EC612C626C62FEF7BDF808B1A3
:10348000FDF791F9B563002211462720AE63FEF7E0
:1034900021FD2720FEF7ECFC06B0BDE8F08100001E
:1034A0000010014030380240000002400048004057
:1034B0000004024028600240380200207047704734
:1034C0002DE9F843044690F84100984616460D460B
:1034D000202802D00220BDE8F88385B17EB100200B
:1034E0006064212084F84100FEF762FCA6848146D6
:1034F000E684A0682027B0F5805F02D003E00120B9
:10350000E9E7206910B12E4600250EE000260CE008
:103510008021204600F0BCFDA8B9C6B116F8010B09
:1035200021684860E08C401EE084E08C4B464FF000
:103530000002CDF800800028EAD14FF0400120467B
:1035400000F0A6FD40B184F841700320C3E735F8D0
:10355000020BC0F30800E3E784F841700020BAE7EB
:1035600070B5044690F84100202801D0022070BDBB
:1035700001B3FAB12162A284E284002060642123B5
:1035800084F84130A56B144BEB63A56B134B2B6494
:10359000A56B134BEB64A36B186520681346A56BF2
:1035A000021D2846FEF798F930B1102060642020F3
:1035B00084F84100012070BD21686FF04000086070
:1035C0002068143050E8001F41F0800140E80012EC
:1035D000002AF5D1002070BDD73C0008193D000835
:1035E000E93B000870477047FEE7000070B58CB0FB
:1035F0000025089509950A95202168460B95FCF74A
:10360000ACFE1F481D49012401604FF48031046164
:10361000C0E90115057680F820500903C162C56034
:103620004FF0C061C461816280F830404461FDF7B1
:1036300059FD08B1FDF7B7F80226CDE9086408A9DD
:103640000F480A94FDF764FC08B1FDF7ACF8CDE92A
:1036500000640C480295CDE906058DF815500494D8
:103660008DF81450694606480395FDF7A5FA002821
:1036700001D0FDF798F80CB070BD000000200140AB
:103680003400002001000F00154808B5016841F41E
:1036900080010160016801F480010091016841F43A
:1036A000001101600068002200F400100090114633
:1036B0000C20FEF70FFC0C20FEF7DAFB002211466F
:1036C0000E20FEF707FC0E20FEF7D2FB002211466B
:1036D0003820FEF7FFFBBDE808403820FEF7C8BBE6
:1036E0003038024000B587B01C216846FCF735FE33
:1036F00016484FF020411022016015494160062113
:1037000081600021C160C0E904128161C1611302BE
:103710000162C0E90913C1620163416381634164CD
:103720000F200090019002AB182083E807001120C1
:10373000CDE90501002269460448FFF727F8002873
:1037400001D0FDF730F807B000BD0000DC0000201C
:10375000040100A02DE9F04786B014216846FCF76B
:10376000FCFD60480024016841F01001016001681F
:1037700001F010010591016841F004010160016848
:1037800001F004010591016841F020010160016828
:1037900001F020010591016841F08001016001689C
:1037A00001F080010591016841F0010101600168AB
:1037B00001F001010591016841F002010160016819
:1037C00001F002010591016841F0400101600168CA
:1037D00001F040010591016841F0080101600068B5
:1037E000DFF8049100F00800059000220721484608
:1037F000FEF7A8FADFF8F4A0002249F2F7015046DC
:10380000FEF7A0FA7F200325CDE900056946029462
:103810003748FEF719F94FF6F870CDE9000569460B
:1038200002944846FEF710F94EF6FF78CDF8008076
:10383000CDE9015469462F48FEF706F90520012617
:103840000227CDE90006CDE9024769464846FEF762
:10385000FBF80097CDE90164694648460394FEF7FA
:10386000F3F849F6AB10CDE9000569460294224809
:10387000FEF7EAF841F2F300CDE90006CDE9024790
:1038800069465046FEF7E0F848F204000090CDE9A2
:103890000164694650460394FEF7D6F8CDF80080DF
:1038A000CDE9015469461548FEF7CEF846F2080006
:1038B000CDE90005694602945046FEF7C5F843F687
:1038C000CC00CDE90005694602940D48FEF7BCF82E
:1038D00028028DE8510069465046FEF7B5F806B05B
:1038E000BDE8F08730380240000802400004024082
:1038F0000010024000140240000002400018024084
:10390000000C024010B586B00024174800940194C2
:103910000294039404944FF080410594016042F2B4
:10392000CF01C0E901140921C0E90314802181619C
:10393000FFF718F808B1FCF736FF4FF480500090FD
:1039400069460948FFF7EAF808B1FCF72CFF202088
:10395000CDE9040404A90448FEF75CFF002801D067
:10396000FCF721FF06B010BD2C0100200C4810B55B
:103970000A4901604FF4E1314160002181600C226D
:10398000C160C0E904128161C161FFF755FC0028E4
:1039900003D0BDE81040FCF706BF10BD0010014089
:1039A000A8010020114810B50F4901604FF41651CD
:1039B0004160002181600C22C160C0E90412816174
:1039C000C161FFF739FC08B1FCF7EDFE074932226F
:1039D0007C390648FFF7AAFA0448483000680168B5
:1039E00021F00801016010BD00480040F0010020F6
:1039F000FEE7FEE770477047FEF7E0B930B593B0D9
:103A000030216846FCF7A9FC14210CA8FCF7A5FCA2
:103A10001D480025016841F080510160006800F0F8
:103A2000805011901948016841F48041016000689C
:103A3000022400F480401190012003901020049093
:103A4000009406940820CDE90750A820CDE9090488
:103A500004200B906846FEF745FC08B172B6FEE7FD
:103A60000CA90F2081E831004FF4A0500F904FF4C3
:103A70008050109005210CA8FEF7BCFA002801D058
:103A800072B6FEE713B030BD40380240007000400F
:103A90000248016841F470010160704788ED00E060
:103AA000F0B50268274B284D284E294F294C4FF07E
:103AB000804C984209D0604507D0A84205D0B0425A
:103AC00003D0B84201D0A04204D122F0700E4A685F
:103AD00042EA0E0298421BD0604519D0A84217D086
:103AE000B04215D0B84213D0A04211D01A4DA8420E
:103AF0000ED01A4DA8420BD0194DA84208D0194D2E
:103B0000A84205D0184DA84202D0184DA84203D1B2
:103B100022F44075CA682A434D6922F080022A4384
:103B20008D68C5620D688562984201D0A04201D1BE
:103B300009690163016841F00401016001214161EB
:103B40000260F0BD00000140000400400008004099
:103B5000000C0040000401400040014000440140CE
:103B60000048014000180040001C004000200040B8
:103B700010B5846842EA032224F47F440A432243B6
:103B8000826010BD826822F070020A4342F0070191
:103B90008160704710B5036A046A24F0010404626E
:103BA000846924F0F00444EA021423F00A020A4370
:103BB0008461026210BD10B5036A046A24F0100427
:103BC0000462846923F0A00324F4704444EA0232BE
:103BD00043EA01118261016210BD10B5806B0021C2
:103BE000C185FFF7E7F910BD70B5846B20684069A7
:103BF00094F84110C0F3C0100025212904D118B158
:103C0000E584204600F0B4F82068406994F842103A
:103C1000C0F38010222904D118B1E585204600F0B8
:103C200080F8606C40F0100060642046FFF7C2F935
:103C300070BD10B50146806B096809684FF000023D
:103C4000C9052ED4C28501680C3151E8003F23F428
:103C5000807341E80034002CF5D10168143151E83B
:103C6000003F23F0010341E80034002CF5D1016846
:103C7000143151E8003F23F0400341E80034002CA8
:103C8000F5D1202180F84210016B012909D101688A
:103C90000C3151E8003F23F0100341E80034002CC0
:103CA000F5D14263016B012902D0FFF707FC10BD7B
:103CB000818DFFF761F910BD10B5806B0121416363
:103CC000016B012902D0FFF7FAFB10BD818D490875
:103CD000FFF752F910BD10B50146806B09680968FD
:103CE000C90516D40021C1840168143151E8002FA0
:103CF00022F0800241E80023002BF5D101680C314D
:103D000051E8002F42F0400241E80023002BF5D19A
:103D100010BDFFF767FC10BD10B5806BFFF763FCAB
:103D200010BD01680C3151E8002F22F4907241E877
:103D30000023002BF5D10168143151E8002F22F047
:103D4000010241E80023002BF5D1016B012909D1C3
:103D500001680C3151E8002F22F0100241E80023E5
:103D6000002BF5D1202180F842100021016370471B
:103D700001680C3151E8002F22F0C00241E8002315
:103D8000002BF5D1202180F84110704708B590F83C
:103D90004210222901D0022008BD82684FF48053CE
:103DA0009A4201D1016921B1816A9A421BD04AB17C
:103DB0000AE00268816A5268C2F308020A80816AD6
:103DC000891C08E0026972B10268526802F07F0241
:103DD0000A70816A491C8162C18D491E0904090C5F
:103DE000C18503D01BE002685268F1E70168CA6828
:103DF00022F02002CA600168CA6822F48072CA6098
:103E000001684A6922F001024A61202180F84210CB
:103E100000214163026B012A03D0FFF74FFB002012
:103E200008BD016301680C3151E8002F22F0100237
:103E300041E80023002BF5D101680A68D20602D5BB
:103E40000A6849680091818DFFF796F8E7E700005E
:103E500070B5044640685449884204D940F69961D7
:103E600052A000F007FAE06838B1B0F5005F04D066
:103E700040F69A614DA000F0FDF9206950B1B0F50F
:103E8000806F07D0B0F5C06F04D040F69B6147A0AB
:103E900000F0F0F960694FF6F371084200D120B9E3
:103EA00040F69C6141A000F0E5F920680169E268F4
:103EB00021F44051114301612169A068E26908437E
:103EC0006169114322680843D16849F20C63994340
:103ED0000143D16020684169A26921F44071114316
:103EE000416141492068884202D04049884202D15C
:103EF000FEF7B6F901E0FEF7A3F9E2690023192104
:103F000064253226B2F5004F626828D0A0FB01017B
:103F1000930F9200FCF7AAF90146B0FBF5F06FF0A1
:103F20001802504301EB800006EB0010B0FBF5F0E7
:103F300000F0F002B1FBF5F002EB0012B1FBF5F07E
:103F40006FF01803584301EB800006EB0010B0FB44
:103F5000F5F000F00F0021681044886070BDA0FBF0
:103F6000010192185B41FCF781F90146B0FBF5F0C5
:103F70000201B1FBF5F06FF01803584301EB80002C
:103F800006EBC000B0FBF5F000F0F80002EB4002D9
:103F9000B1FBF5F0584301EB800006EBC000B0FB2D
:103FA000F5F000F00700D6E7A037A0002E2E2F4432
:103FB0007269766572732F53544D33324634787874
:103FC0005F48414C5F4472697665722F5372632F6C
:103FD00073746D3332663478785F68616C5F7561D5
:103FE00072742E63000000000010014000140140B4
:103FF00038B581620446828500201346606422221F
:1040000084F84220E56B1F4AEA63E56B1E4A2A6486
:10401000E56B1E4AEA64E26B10650A462168E06BB4
:10402000091DFDF759FC30B110206064202084F890
:104030004200012038BD2068016840680090206976
:1040400048B120680C3050E8001F41F4807140E80E
:104050000012002AF5D12068143050E8001F41F00A
:10406000010140E80012002AF5D12068143050E820
:10407000001F41F0400140E80012002AF5D1002065
:1040800038BD0000333C0008B93C0008E93B00089B
:104090002DE9F843984617460D460446089E24E04D
:1040A000701C22D0FDF784FEA0EB0800B0421AD8A5
:1040B000CEB12068C168490717D5802D15D0402D95
:1040C00013D00168C94309070FD40168002540686F
:1040D00000902046FFF725FE0820606484F84050D9
:1040E0000120BDE8F8830320FBE72068006835EA7B
:1040F000000004D00020B842D2D00020F1E7012017
:10410000F9E700000148FEF757BF0000A8010020B2
:104110000148FEF751BF0000F0010020FEE709074B
:10412000090E002804DB00F1E02080F8001470473D
:1041300000F00F0000F1E02080F8141D704700002F
:1041400010B5094800F0C0F800200849024600BF39
:1041500000EB4003401CCA540828F9D3BDE81040C6
:10416000014800F0CDB80000000000201C00002035
:1041700010B504000AD00B4800F0A6F820680178BA
:10418000012907D072B6FCF70EFBFEE772B6FCF70A
:104190000AFBFEE7401C00F097F8BDE8104001481C
:1041A00000F0AEB80000002010B504000AD00B48A3
:1041B00000F08AF820680178012907D072B6FCF770
:1041C000F2FAFEE772B6FCF7EEFAFEE700210170A4
:1041D000BDE81040014800F093B800000000002046
:1041E00010B504000ED0134800F06EF812480021FC
:1041F00001EB4102825C3AB1491C0829F8D30D4811
:1042000000F07EF8002010BD01EB410108440121BF
:10421000206001702068401C07D0002101704170AF
:10422000044800F06DF8012010BD72B6FCF7BBFA2F
:10423000FEE70000000000201C00002010B5040074
:104240000AD00B4800F040F820680178012907D017
:1042500072B6FCF7A8FAFEE772B6FCF7A4FAFEE71E
:10426000401C00F04DF8BDE81040014800F048B88F
:104270000000002070470000FDF7A8FDFFF7BEFB1F
:10428000FFF768FAFFF700FAFFF7B0F9FFF76EFBE8
:10429000FFF728FAFFF736FBFFF784FBFCF7F6F889
:1042A0006423102202A10748FFF70AF9FEE7000085
:1042B00048656C6C6F2C20555341525433210D0AC4
:1042C00000000000F001002010B5EFF3108101F0B4
:1042D000010272B6BFF34F8FBFF36F8F20B14178E9
:1042E00031B1FF2908D004E072B6FCF75CFAFEE7B2
:1042F0000270491C417010BD72B6FCF754FAFEE71B
:1043000010B558B1417869B1491E11F0FF014170F3
:1043100003D10078002800D162B610BD72B6FCF758
:1043200042FAFEE772B6FCF73EFAFEE74FF0407045
:10433000E1EE100A70470006101600061016000085
:104340000000000000000102030406070809000045
:104350000000010203040000030000000000000050
:1043600003000000000000008C4300080000002053
:104370001C000000C4010008A84300081C00002025
:104380003C090000E0010008B9FDFFFF000000004B
:10439000000000000000000001000000100000000C
:0843A000000000000024F400FD
:040000050800018965
:00000001FF
