:020000040800F2
:10000000D0780120A101000839B9000899710008D1
:1000100035B90008ED210008A9C40008000000005F
:100020000000000000000000000000003FB90008D0
:10003000DD2C0008000000003DB9000871BA00087E
:10004000BB010008BB010008BB010008BB010008A0
:10005000BB010008BB010008BB010008BB01000890
:10006000BB010008BB010008BB010008BB01000880
:10007000552A0008BB010008652A0008BB010008DA
:10008000BB010008BB010008BB010008BB01000860
:10009000BB010008BB010008BB010008BB01000850
:1000A000BB010008BB010008BB010008BB01000840
:1000B000BB010008BB010008BB010008BB01000830
:1000C000BB010008BB010008BB010008BB01000820
:1000D000BB01000889C40008BB01000899C40008DE
:1000E000BB010008BB010008BB010008BB01000800
:1000F000BB010008BB010008BB010008BB010008F0
:10010000BB010008BB010008BB010008BB010008DF
:10011000BB010008BB010008BB010008BB010008CF
:10012000752A0008852A0008952A0008BB010008E6
:10013000BB010008BB010008BB010008BB010008AF
:10014000BB010008BB010008BB010008BB0100089F
:10015000BB010008BB010008BB010008BB0100088F
:10016000BB010008BB010008BB010008BB0100087F
:10017000BB010008BB010008BB0100080000000033
:10018000BB010008BB010008DFF810D000F0F2FB53
:100190000048004711E30008AFF30080D078012049
:1001A0000648804706480047FEE7FEE7FEE7FEE711
:1001B000FEE7FEE7FEE7FEE7FEE7FEE72DBB0008F1
:1001C000890100082DE9F05F0546002092469B4614
:1001D00088460646814640241BE02846414647465D
:1001E000224600F0FCF953465A46C01A914110D3FA
:1001F00011461846224600F0E3F92D1A67EB010874
:100200004F4622460120002100F0DAF917EB0009E1
:100210004E41201EA4F10104DFDC484631462A4647
:100220004346BDE8F09F000000487047B4FD000859
:1002300040EA01039B0703D009E008C9121F08C068
:10024000042AFAD203E011F8013B00F8013B521EE8
:10025000F9D27047D2B201E000F8012B491EFBD25F
:1002600070470022F6E710B513460A4604461946C1
:10027000FFF7F0FF204610BD421C10F8011B0029BB
:10028000FBD1801A70472DE9F05F93460F468046F8
:10029000044600260CF058FAD0F80090824614F874
:1002A000015B2DB1FFF7C0FF0068405DC007F6D1CC
:1002B0002B2D02D02D2D1AD0641E0021CAF800105B
:1002C0005A463946204600F09AF9014627B1386867
:1002D000A04201D1C7F80080DAF80000022809D056
:1002E000CAF80090700505D54842BDE8F09F46F475
:1002F0008066E2E70846F8E72DE9FE4F81EA03044D
:1003000004F0004421F0004100944FF0000B23F072
:10031000004350EA01045ED052EA03045BD0C3F309
:100320000A54C1F30A552C44A4F2F3340194A0FBFF
:100330000254C1F3130141F48011C3F3130343F4D6
:10034000801301FB024400FB034E840A970A44EA2F
:10035000815447EA8357A4FB076802958D0A05FB81
:1003600007854FEA932C04FB0C542705029D4FEAA6
:10037000065847EA1637B5EB08056EEB070C870EF3
:10038000920E47EA811742EA8312A7FB0201B6EBFD
:100390000B0164EB00042B0D43EA0C335E1844EBB5
:1003A0001C50DA465146E7FB0201C5F313044FEA3D
:1003B0000B3343EA14534FEA0432019C43EA060329
:1003C000A4F10C040294009CCDE900B400F0ACF957
:1003D00003B0BDE8F08F00200146F9E72DE9F04DAC
:1003E00081EA030404F0004B21F0004514464FF06D
:1003F000000A23F0004150EA050220D054EA01022D
:100400001DD0C5F30A570246C5F31303C1F3130009
:10041000C1F30A5640F4801543F48013A7EB060895
:10042000101BD64608F2FD3873EB050002D308F125
:10043000010801E092185B41B8F1000F03DA0020D7
:100440000146BDE8F08D00204FF480110646844639
:100450000EE0171B73EB050705D3121B63EB0503B7
:1004600006434CEA010C49084FEA300092185B4100
:1004700050EA0107EDD152EA030012D082EA0400EB
:1004800083EA0501084305D0101BAB4106D20122C7
:10049000002306E000224FF0004302E06FF001026B
:1004A00053101AEB06004CEB085110EB0A0041EB1D
:1004B0000B01BDE8F04D00F028B90EB540F2334114
:1004C00002910021CDE900110A460B4600F02CF9FB
:1004D00003B000BDC1F30A5210B5C1F3130140F2DD
:1004E000FF3341F480119A4201DA002010BD40F23E
:1004F00033439A42A2F2334203DC524200F06FF8D7
:1005000010BD904010BD00F0004230F000400AD015
:10051000C10D01F56071C0F3160042EA0151C20835
:1005200040071143704700200146704730B5041E54
:1005300071F1000404DB4FF00044404264EB010120
:10054000141E73F1000405DB1C464FF000435242B9
:1005500063EB04038B4208BF824230BD01F00043CD
:1005600030B421F0004150EA010206D00A0DA2F594
:100570006072C1F31301002A02DC30BC0020704716
:10058000440F44EAC104C100E01830BC00EBC25083
:1005900000F084B830B50B4601460020202201242B
:1005A00009E021FA02F59D4205D303FA02F5491B41
:1005B00004FA02F52844151EA2F10102F1DC30BD57
:1005C000202A04DB203A00FA02F100207047914013
:1005D000C2F1200320FA03F3194390407047202A08
:1005E00004DB203A21FA02F00021704721FA02F3DD
:1005F000D040C2F1200291400843194670472DE9CE
:10060000F05F82460078002715468B460AF1010408
:10061000B946302801D09DB113E014F8010B012731
:10062000782803D0582801D045B10AE00DB1102D2B
:1006300007D10027102514F8010B02E0082500E07F
:100640000A250026B0460EE005FB080005FB06F172
:10065000012701EB10461FFA80F8B6F5803F00D362
:10066000B94614F8010B294600F0A8F90028EBDA86
:10067000BBF1000F05D00FB1641E00E05446CBF86B
:100680000040B9F1000F06D00CF05EF802210160C5
:10069000C81EBDE8F09F48EA0640FAE70029A8BF57
:1006A0007047401C490008BF20F00100704710B49B
:1006B000B0FA80FC00FA0CF050EA010404BF10BC50
:1006C000704749B1CCF1200421FA04F411FA0CF17D
:1006D00018BF012121430843A3EB0C01CB1D4FEAB6
:1006E00000614FEA102042BF002010BC704700EBB1
:1006F000C35010440029A4BF10BC7047401C4900DF
:1007000008BF20F0010010BC704710B5141E73F133
:10071000000408DA401C41F1000192185B411A43C1
:1007200001D120F0010010BD2DE9F04D92469B460D
:1007300011B1B1FA81F202E0B0FA80F220329046B3
:10074000FFF73EFF04460F4640EA0A0041EA0B016C
:1007500053465A46084313D0114653EA010019D0B4
:10076000C8F140025046FFF73AFF05460E46504694
:1007700059464246FFF724FF084305D0012004E014
:1007800020463946BDE8F08D0020054346EAE07674
:100790002C4337430A986305E40AA0EB08000022C3
:1007A000FD0A44EA47540A3002D500200146E9E731
:1007B000010510196941DDE9084500196941BDE8E5
:1007C000F04DA2E72DE9FE4F804681EA0300C00FFD
:1007D0000C46009021F0004123F00045B8EB0200E8
:1007E000A94105D24046214690461C460B4602468A
:1007F00023F00040104347D0270DC7F30A00C3F38E
:100800000A510290401A019040286BDAC3F313009A
:1008100040F4801B0098924620B10023D2EB030ADB
:1008200063EB0B0B01985946C0F140025046FFF7AD
:10083000C7FE06460D4650465946019A00F0ACF8F0
:1008400010EB08006141002487EA115284EAE77343
:100850001A4340D0009A62B3019A012A4FEA075224
:1008600015DC001B61EB02014FF0004202EA075267
:10087000CDE90042001C41F5801132462B46FFF7BE
:1008800053FF03B0BDE8F08F40462146F9E7001B57
:1008900061EB0201001C41F5801300185B41201838
:1008A000A2F5001747EB030140EAD570B6196D4178
:1008B00011E06D084FEA360645EAC0754FEA075267
:1008C000001B61EB0201001C41F5801149084FEA51
:1008D00030000019514132462B4603B0BDE8F04FBD
:1008E000FFF713BF0098012240000023D0EB020263
:1008F00063EBE073009821464FEAE074B8EB000028
:1009000061EB0401E9E783F000435BE781F000411C
:1009100058E7C1F30A52C1F3130140F2FF3341F427
:1009200080119A4202DA00200146704740F23343B8
:100930009A42A2F2334202DC5242FFF750BEFFF766
:100940003FBE000030B5041E71F1000404DB4FF01F
:100950000044404264EB0101141E73F1000405DB06
:100960001C464FF00043524263EB0403994208BF18
:10097000904230BD064C074D06E0E06840F00103B0
:1009800094E8070098471034AC42F6D3FFF700FC18
:1009900090DA0208B0DA0208202A06DBCB17203AE8
:1009A00041FA02F043EAE07306E041FA02F3D04074
:1009B000C2F1200291400843194670473A2800D2FC
:1009C000303820F02002412A01D3A2F137008842BA
:1009D00001D34FF0FF30704770B58C1810F8015BF1
:1009E00015F0070301D110F8013B2A1106D110F8C8
:1009F000012B03E010F8016B01F8016B5B1EF9D1CC
:100A00002B0705D40023521E0DD401F8013BFAE751
:100A100010F8013BCB1A921C03E013F8015B01F8BC
:100A2000015B521EF9D5A142D8D3002070BD000051
:100A3000F0B5F1B1002300BF02EB430C32F813E034
:100A4000BCF802C02EF0030E2CF0030C50F80E5030
:100A500050F80C6000EB0E0400EB0C0740F80E6041
:100A600040F80C507E68656802338B4266607D609A
:100A7000E2D3F0BD2DE9F0410488984616460746BA
:100A8000012A0D460CD1E4B3281D214690ED000A41
:100A90000139B1EE400A80ED000A00F10800F5D1FD
:100AA000FF2C0CDDB4F5806F10DBB4F5805F22D035
:100AB000B4F5006F11D0B4F5806F17D021E03F2C52
:100AC00010DC102C12D0202C07D01AE0B4F5807F57
:100AD00003D0B4F5007F0ED013E03846294600F06D
:100AE0005FF90EE0402C06D0802C0AD1384629460A
:100AF00000F08AF805E07A6828462146012300F0D4
:100B000099FBB8F1000F04D0B989BA682846FFF7FD
:100B10008FFF012E1CD100EE104A002CB8EE400AC7
:100B200008BFBDE8F081B7EE001A81EE000A00BFF1
:100B300095ED001A95ED012A20EE011A22EE402AC9
:100B400085ED001A85ED012A013C05F10805EFD17C
:100B5000BDE8F08100224260FF294FF0FF020180D2
:100B60000EDDB1F5806F16DB29D0B1F5805F2BD09B
:100B7000B1F5006F46D145F22C33C0F6010336E0E3
:100B80003F2913DC102924D020293BD145F24C33D6
:100B9000C0F601032BE0B1F5807F1FD0B1F5007FD7
:100BA00030D145F26C33C0F6010320E040291AD061
:100BB000802927D145F20C33C0F6010317E045F236
:100BC000FC23C0F6010312E045F25C33C0F60103DA
:100BD0000DE045F21C33C0F6010308E045F23C335A
:100BE000C0F6010303E045F27C33C0F60103191D92
:100BF00003F108020C331B88126809688381C0E97D
:100C00000112002250B270472DE9F0472DED028B02
:100C100003888046084601EB830AD8F804200021A7
:100C2000B1EBD30F4FEA530900F0AB80D9080AEBC0
:100C3000890C00EB890E0027C4190AEB070594ED17
:100C4000000A95ED003A94ED011A95ED014A0EEB7C
:100C500007030CEB070694ED022A95ED025A70EE9D
:100C6000035A93ED006AD6ED001AD6ED012AD6EDAF
:100C7000023AD6ED034AC4ED005A71EE045A93EDE0
:100C8000017AC4ED015A72EE055AD3ED020AC4EDA1
:100C9000025AD4ED035AD5ED036A31EE441A35EE0B
:100CA000A68A36EE214AD3ED037A84ED038A83EDDA
:100CB000004A37EE224A83ED014A30EEA34A83ED23
:100CC000024A37EEA44A83ED034AD31931EEC64AED
:100CD00033EEE06AD3ED000AD3ED011A30EE430A99
:100CE00032EE452A32EEC75A60EE202A61EE213AF2
:100CF00021EE201A20EE210A31EE400A85ED010A8C
:100D000024EE210A25EE211A25EE205A72EEA32A9E
:100D100024EE204A30EE450AC5ED002A86ED000A91
:100D200034EE010A86ED010A93ED020A93ED031AEF
:100D300035EEE63A22EE004A23EE015A23EE003A5F
:100D400022EE012A34EEE77A33EE422A85ED032AB9
:100D500026EE012A27EE011A27EE003A26EE000AB7
:100D600034EE054A32EE432A30EE010A013907F12A
:100D7000100785ED024A86ED022A86ED030A7FF40C
:100D80005BAF4946022300F055FAD8F804205046DC
:100D900049460223BDEC028BBDE8F04700F04ABA99
:100DA0002DE9F04F81B02DED088B8EB002880346FF
:100DB000500801EB800505EB800691ED000A91EDEE
:100DC000011A96ED002A96ED013A04935B6806EB52
:100DD000800730EE024A30EE420A31EE032A31EE4D
:100DE000431A95ED013A95ED005A0593930897ED56
:100DF000017AD7ED000A029374EE452A72EE433A67
:100E000034EE054A32EE032A6FF0010334EE204A35
:100E100032EE072A03EB920230EE036A71EE451AB6
:100E200030EE430A31EE051A81ED004A0A9181ED58
:100E3000012A510836EE476A71EEA01A72EEE02AD6
:100E400073EEC73A30EE070A31EE601A009501964C
:100E500003970D91C10085ED006AC5ED011AC6ED3D
:100E6000002AC6ED013A87ED000A87ED011A0C91C0
:100E700000EB40016FF007036FF003074FEA800EAD
:100E800007EBC00B07EB800A03EB001903EB8102B1
:100E90008C000020002500210B9100BF0A9E059BBD
:100EA00007900695089406EB04080C9C311806EB95
:100EB000040C06EB0E0491ED020A9CED022AD4ED1F
:100EC000020A30EE026AD8ED022A36EE204A34EEEB
:100ED000224A91ED031A9CED033AD4ED031AD8EDA2
:100EE000033A81ED024A94ED034A31EE037A98ED1C
:100EF000035A37EE044ACDF824E034EE054A81ED7A
:100F0000034A0B9930EE420A31EE431A30EE212AA1
:100F100003EB010E32EE634A31EE602A0D9932EE98
:100F2000225A36EE602A37EE613A30EE610A31EE2F
:100F3000201A1F18581932EE622A33EE633A30EE47
:100F4000230A002931EE621A00F0CC800A998E182B
:100F500001EB0A0301EB0905594493ED007AD6ED44
:100F6000010AD1ED003A77EE202AD5ED014A72EE62
:100F7000A35A75EEA45A13ED016AD6ED001A51ED8D
:100F8000016AD5ED007AC3ED005A11ED018A76EEC3
:100F9000215A95ED009A35EE888A38EE098A03EDDC
:100FA000018A97ED028A97ED039A24EE08AA25EEAE
:100FB00009BA25EE085A24EE094A35EE444A37EEBE
:100FC000605A84ED034A36EE614A35EE666A33EEC6
:100FD000E47A36EE276A74EE070A66EE091A20EE06
:100FE000899A60EE880A26EE086A3AEE0BAA71EE3C
:100FF000E00A36EE096A84ED02AAC1ED000A01EDAD
:10100000016A90ED046AD0ED050A62EE061A23EE3D
:10101000208A23EE063A22EE202A33EE422A8CED75
:10102000032A32EEE32A35EEE63A71EE881A33EE01
:10103000673A32EE642A0D98CCED021A62EE461A37
:1010400023EE066A23EE203A22EE202A31EEC33A3E
:1010500032EE462A013886ED013A86ED002A0D90DF
:101060009EED062A9EED073A0C9820EE026A61EE8C
:10107000030A21EE021A20EE030A083031EE400A7C
:1010800037EEE61ADDF824E00C9088ED030A37EE1F
:10109000440A31EE451A0B9821EE034A20EE033A3A
:1010A00020EE020A36EE206A21EE021A34EE400AE1
:1010B000183088ED026A85ED010A31EE030A089CBA
:1010C0000B9085ED000A069D07980EF1080E083476
:1010D00010350830A9F10809083AABF1080BAAF15C
:1010E000080ADBE697ED026A97ED037A64EE060ADA
:1010F00065EE071A25EE065A24EE074A30EEA16A7D
:1011000035EE444A84ED026A84ED034A90ED044AC8
:1011100090ED055A22EE046A23EE057A23EE043A96
:1011200022EE052A36EE074A33EE422A8CED024AB9
:101130008CED032A9EED062A9EED073A029D20EED5
:10114000024A21EE035A21EE021A20EE030A0A98FF
:10115000059A34EE052A31EE400A2946042388ED2B
:10116000022A88ED030A00F065F8049C0098626882
:101170002946042300F05EF862680198294604239A
:1011800000F058F862680398294604230EB0BDECBD
:10119000088B01B0BDE8F04F00F04CB89FED221A6B
:1011A0009FED222A20EE010AB5EE001A30EE010A68
:1011B000BDEEC01A11EE100AB5EE400AF1EE10FABB
:1011C000B8BF013801EE100AB8EEC11A30EE410A7C
:1011D00020EE020ABDEEC01A9FED152A11EE100A8C
:1011E000002130EE021AB1EB502F45F28C311CBFBA
:1011F0000020B0EE410AC0F6010101EE100A01EB39
:101200008001B8EE411A30EE410A91ED001A91EDDD
:10121000012AB7EE003A33EE403A23EE011A20EEEF
:10122000020A31EE000A704783F9223E00000044B2
:10123000000000C42DE9F04F81B02DED108BA0B05F
:10124000DFED04CA00900430CDE902320190CDE90F
:101250001E1101E0F304353F1F9A4FF0000AD30836
:10126000DF00A7EBD200C0001D904FEAC20C03EBD9
:10127000430503EB8302580106931E01019B2C01D9
:101280004FEAC20EED00CDE90C0ECDE90A5600BFC3
:101290000A9D191803EB05091D9D03EB0E0003EBD6
:1012A000070810ED014A86469A19181903EB050B39
:1012B00013ED011A11ED012A18ED013A12ED017A30
:1012C00050ED010A59ED011A5BED012A31EE025A87
:1012D00033EE046A77EE203A71EEA24A75EE235A95
:1012E00076EE246A75EEA67A43ED017A75EEE65A3B
:1012F000D8ED007A9EED008A99ED00BA9BED00CA08
:10130000D3ED006A41ED015AD1ED005A92ED009AF9
:1013100090ED00AA37EE88EA7BEE0C8A36EEA5DA6D
:1013200039EE0AFA35EE635A36EE646A7EEE684AA2
:101330007DEE0F9A7DEE4F3A35EE24DA35EE645AA3
:101340007EEE28AA02ED01DA33EEC6DA00ED015A8C
:1013500036EE235A31EE421A33EE442A37EE603A23
:1013600031EEE24A37EEC86A7BEE4C0A79EEAABA51
:1013700079EEEA9A72EE441A32EE042A36EE604AA8
:1013800036EE206AC3ED00BAC1ED009A82ED00DAB4
:1013900080ED005A36EEE55A39EE4A7A61EEAC1A23
:1013A00022EE2C2A24EE2C4A26EE2C6A71EE210A1B
:1013B00073EE022A75EE043A77EE064A31EE611AB0
:1013C00033EE422A35EE443A37EE464A2646744614
:1013D00070EEA45A70EEE40A31EE045A1F9A1E9978
:1013E00048ED015A73EEE25A4BED010A72EEA30A80
:1013F000204604ED015A33EE425ADDF834E0C8EDE0
:10140000005ACBED000A84ED005A0C9831EE441AD4
:1014100034460B9E924409ED011A32EE031A8A45B6
:10142000634489ED001AFFF433AF1F984028C0F0E1
:10143000D4810298009E80B205900698CDE90E4CAA
:10144000C0EBC000C000002401251097049000BF2D
:101450000598039B044403EBC40191ED000A03EBE0
:1014600004128DED1D0A92ED000A04EB440203EB19
:10147000C2008DED1C0A90ED000A03EB44118DEDC6
:101480001B0A91ED000A04EB8401C80003EBC101C3
:101490008DED1A0A91ED000A4FEAC20A4FEA021BCB
:1014A00003EB02128DED190A92ED000AC4EBC4029F
:1014B0004FEAC40CD10003EBC2028DED180A92ED85
:1014C000000A0CF104024FEA041E1A448DED170ABB
:1014D00092ED000A0EF104021A448DED160A92ED07
:1014E000000A0AF104024FEA44191A448DED150A64
:1014F00092ED000A09F104021A448DED140A92EDEE
:10150000000A043018448DED130A90ED000A0BF127
:10151000040018448DED120A90ED000A081D1844CD
:101520000994D0ED006A0796B44608952B46DDE98C
:101530000C54DDE90A76DDF810808DED110A00BF4C
:1015400010980E990CEB05090CEB000E0CEB040047
:101550000CEB060B0CEB010A0CEB07020CEB080181
:10156000DCED027A99ED028A9EED029A90ED02AAD4
:101570009BED02DA9AED02EA92ED02FAD1ED028ACF
:1015800037EE88BA39EE0ACA7DEE0E9A7FEE28AAA7
:101590007BEE29BAF0EE6C3A7CEE2ACA7BEEACDA2E
:1015A000CCED02DA7BEEECBADCED03CAD9ED03DA5E
:1015B000DEED03EAD0ED03FA9BED030A9AED031A80
:1015C00092ED032A91ED033A3CEEAD4A3EEEAF5A5E
:1015D00030EE016A32EE037A74EE060A75EE071AEF
:1015E000DDED1A4ADDED135A70EEA12A70EEE10A24
:1015F000CCED032A64EEAB1A65EEA02A71EEA21AB6
:1016000064EEA00A65EEAB2A70EEE20AC9ED021A9A
:10161000C9ED030A7BEE690A7CEE6A1A34EE464A8B
:1016200035EE475A9DED1CCADDED154A30EE856A50
:1016300034EE617A6CEE062A24EE87BA2CEE077A35
:1016400024EE866A30EEC55A31EE844ADDED180A82
:10165000DDED111A37EE466A8BED036A20EE856ADE
:1016600021EE847A20EE844A21EE855A37EE066A0E
:1016700034EE454A39EE4A5A3FEE687A7EEEEF1A6A
:1016800030EE410A32EE431A7BEE222A35EE472A2B
:1016900035EE073A31EEC15A31EE811ACBED022A0E
:1016A0008AED026A8AED034A37EEC84A3DEE4E6A79
:1016B0007CEEED0A22EE232A23EE233A25EE235A6E
:1016C00021EE231AF0EE63CA34EE027A76EE031AA4
:1016D00070EE852A70EE017ADDED1D3ADDED164AD9
:1016E00037EE278A32EEE19A23EE88AA24EE89BAF1
:1016F00023EE899ADDED173A37EE677A71EEA21A7A
:1017000063EE872A66EEA17A63EEA11A26EE877A47
:1017100024EE888A31EEC77A34EE422A36EE433A16
:1017200030EEC54A30EE410ADDED190ADDED121A40
:1017300039EE488A32EE001A34EE435A8EED038AAF
:1017400081ED037A20EE816A21EE857A20EE855ABA
:1017500021EE811A3AEE0BAA72EEA72A36EE076A3C
:1017600035EE411A8EED02AAC1ED022A80ED026A21
:1017700080ED031A1F9833EE041A03441E989DED62
:101780001B4A9DED145A32EE400A83420F9824EE14
:10179000002A25EE013A24EE011A25EE000A32EE67
:1017A000032A31EE400A844482ED022A82ED030AC4
:1017B000FFF4C6AE089D0698079E0135099C854238
:1017C00006F10806FFF444AE0298C00002901F988C
:1017D0003F2806981F903FF63FAD20B0BDEC108B20
:1017E00001B0BDE8F08F10B578B14FF40071044638
:1017F000FFF7B0F950B94FF48060208245F6103001
:10180000C0F602006061002000E0FF2040B210BD81
:1018100010B568B140210446FFF79CF948B9802013
:10182000208246F61030C0F602006061002000E021
:10183000FF2040B210BD10B578B14FF4806104466E
:10184000FFF788F950B94FF40060208246F6105037
:10185000C0F602006061002000E0FF2040B210BD31
:1018600010B570B180210446FFF774F950B94FF4F8
:101870008070208248F61050C0F60200606100209F
:1018800000E0FF2040B210BD10B568B11021044641
:10189000FFF760F948B92020208249F21010C0F605
:1018A00002006061002000E0FF2040B210BD10B5D2
:1018B00078B14FF400610446FFF74CF950B94FF48A
:1018C0008050208249F29010C0F602006061002032
:1018D00000E0FF2040B210BD10B578B14FF4807128
:1018E0000446FFF737F950B94FF4007020824DF2EB
:1018F0009010C0F602006061002000E0FF2040B2BE
:1019000010BD10B568B120210446FFF723F948B98E
:10191000402020824DF69010C0F602006061002049
:1019200000E0FF2040B210BDF0B581B014460E4675
:10193000054673B12846314622461F4600F0A8F8F6
:10194000284621463A46012301B0BDE8F040FFF7A2
:1019500091B82846314600220123FFF78BF828462C
:101960003146224601B0BDE8F04000F0EBB8B1F5D9
:10197000007F0ADA7F2916DC202929D040293BD1B3
:1019800041F60311C0F600010847B1F5006F14DA03
:10199000B1F5007F21D0B1F5806F2DD141F2E77113
:1019A000C0F60001084780291CD0B1F5807F23D103
:1019B00041F66101C0F600010847B1F5805F16D01D
:1019C000B1F5006F18D141F63701C0F600010847A4
:1019D00041F68901C0F60001084741F6D901C0F679
:1019E0000001084741F61101C0F60001084741F621
:1019F000AF01C0F6000108474FF0FF30704700000C
:101A00009FED201A9FED202A20EE010ABDEEC01A9C
:101A100011EE100AB5EE400AF1EE10FAB8BF013827
:101A200001EE100AB8EEC11A30EE410A20EE020AA9
:101A3000BDEEC01A9FED152A11EE100A002130EEFE
:101A4000021AB1EB502F45F28C311CBF0020B0EED2
:101A5000410AC0F6010101EE100A01EB8001B8EE67
:101A6000411A30EE410A91ED001A91ED012AB7EECC
:101A7000003A33EE403A23EE011A20EE020A31EE2C
:101A8000000A704783F9223E00000044000000C4B1
:101A900080B591ED001A91ED012AD0F814E000888C
:101AA00031EE023AB6EE000A31EE421AB0F1010C04
:101AB00023EE003A21EE001A82ED003A82ED011A7F
:101AC00008BF80BD01F1080301EBCC010EF1080055
:101AD0000832043111ED011A91ED002A93ED003A1C
:101AE00093ED014A90ED005A90ED016A33EE417A90
:101AF00072EE040A67EE051A60EE862A27EE066A81
:101B000031EE031A34EE422A25EE205A31EE611AE4
:101B100032EE062A31EE621A32EE452A21EE001A22
:101B200022EE002A82ED001A82ED012ABCF1010C9E
:101B300003F1080300F1080002F10802A1F1080115
:101B4000C8D180BD91ED000A91ED011A038840696A
:101B500030EE002A31EE011AA3F1010C32EE013A07
:101B6000B6EE000A32EE411A23EE003A21EE001AD8
:101B700000F1080301F1080001EBCC0182ED003A0D
:101B800082ED011A0832043111ED011A90ED003A8C
:101B900091ED002A90ED014A93ED005A93ED016A10
:101BA00031EE437A72EE040A67EE051A27EE067AE2
:101BB00031EE031A34EE422A25EE205A20EE866AD0
:101BC00031EE211A32EE072A31EE061A32EE452A9C
:101BD00021EE001A22EE002A82ED001A82ED012A7F
:101BE000BCF1010C03F1080300F1080002F1080246
:101BF000A1F10801C8D1704770B52DED088BB0EE8A
:101C0000408A044618EE100AFEF77DFC41EC1B0BDF
:101C10009FED1A0B53EC102BFEF76EFB41EC1A0BE9
:101C20009FED180B53EC102BFEF7D8FB41EC190B72
:101C3000FEF750FC054644F4005646F4807000F070
:101C4000ADF8012002F0D8FEC5F30D0141F480404B
:101C500000F0A4F84FF4804141EA953188B200F0D9
:101C60009DF84FF4404000F099F8012002F0C4FEC6
:101C7000304600F093F8BDEC088B70BD000000000A
:101C80000000B0410000000084D7774100B587B064
:101C9000142102A8FEF7E5FA00BF002001900D48CC
:101CA000006840F004000B4908600846006800F036
:101CB0000400019000BF00BF0720029001200390A4
:101CC000002004900220059002A9034802F010FFB2
:101CD00007B000BD303802400008024010B54FF494
:101CE000807000F05BF80A2002F086FE10BD000054
:101CF0002DE9FC4106460D4600200090019001228E
:101D00000221254803F034F900220121224803F082
:101D10002FF9002405E0601C305C0DF80400601C05
:101D2000C4B2AC42F7DB002427E0002721E01DF815
:101D3000040000F0800028B101220421164803F0BD
:101D400017F904E000220421134803F011F90022DE
:101D50000221114803F00CF91DF804004006000EA2
:101D60000DF80400012202210B4803F001F9781C50
:101D7000C7B2082FDBDB601CC4B2AC42D5DB01224A
:101D80000421054803F0F4F801221146024803F04B
:101D9000EFF82046BDE8FC81000802401CB504466F
:101DA000074903C9CDE90001200A8DF80100E0B21E
:101DB0008DF8020002216846FFF79AFF1CBD000063
:101DC00038E5000870B52DED088BB0EE408A04466A
:101DD00018EE100AFEF797FB41EC1B0B9FED1A0B58
:101DE00053EC102BFEF788FA41EC1A0B9FED180B01
:101DF00053EC102BFEF7F2FA41EC190BFEF76AFBDD
:101E0000054644F4005646F4807000F0ADF8012019
:101E100002F0F2FDC5F30D0141F4804000F0A4F89A
:101E20004FF4804141EA953188B200F09DF84FF4BB
:101E3000404000F099F8012002F0DEFD304600F04D
:101E400093F8BDEC088B70BD000000000000B041AD
:101E50000000000084D7774100B587B0142102A8A4
:101E6000FEF7FFF900BF002001900D48006840F028
:101E700002000B4908600846006800F0020001906B
:101E800000BF00BF072002900120039000200490B3
:101E90000220059002A9034802F02AFE07B000BD07
:101EA000303802400004024010B54FF4807000F05A
:101EB0005BF80A2002F0A0FD10BD00002DE9FC41F6
:101EC00006460D460020009001900122022125487F
:101ED00003F04EF800220121224803F049F80024C3
:101EE00005E0601C305C0DF80400601CC4B2AC421C
:101EF000F7DB002427E0002721E01DF8040000F0B4
:101F0000800028B101220421164803F031F804E0D2
:101F100000220421134803F02BF80022022111486B
:101F200003F026F81DF804004006000E0DF804002A
:101F3000012202210B4803F01BF8781CC7B2082FBE
:101F4000DBDB601CC4B2AC42D5DB012204210548B6
:101F500003F00EF801221146024803F009F820466A
:101F6000BDE8FC81000402401CB50446074903C9D2
:101F7000CDE90001200A8DF80100E0B28DF80200E1
:101F800002216846FFF79AFF1CBD000040E50008EB
:101F900070B50546AC6B206C00F0500050BB206C57
:101FA00040F4007020642068806800F04050E8B978
:101FB000207ED8B92068C06A00F4700020B1206883
:101FC000806800F4806088B92068406820F02000B4
:101FD00021684860206C20F480702064206C00F43C
:101FE000805018B9206C40F001002064204601F0B8
:101FF0003FFD0BE0206C00F0100018B1204601F00E
:102000005CFD03E0A06BC16C2846884770BD70B5CD
:102010000546AC6B40202064606C40F004006064B6
:10202000204601F04AFD70BD70B50446A56B2846F8
:1020300001F042FD70BD000070B504465B4D68685C
:1020400020F4403068606868616808436860206810
:10205000406820F4807021684860206841682069E9
:1020600041EA0020216848602068406820F0407004
:102070002168486020684068A1680843216848607A
:102080002068806820F4006021688860206880688B
:10209000E1680843216888604549A06A884218D0F1
:1020A0002068806820F070602168886020688068FF
:1020B000A16A0843216888602068806820F0405049
:1020C0002168886020688068E16A08432168886028
:1020D0000BE02068806820F07060216888602068CC
:1020E000806820F04050216888602068806820F077
:1020F00002002168886020688168207E41EA4000F3
:10210000216888602020005DF8B1606A18B1606ABB
:10211000082800D804E04FF4F56126A00BF09AFDE2
:102120002068406840F4006021684860206840688A
:1021300020F460402168486020684168606A401E61
:1021400041EA40302168486005E02068406820F49A
:102150000060216848602068C06A20F4700021682F
:10216000C8622068C16AA08B401E41EA0050216805
:10217000C8622068806820F4007021688860206848
:10218000816894F8300041EA402021688860206826
:10219000806820F4806021688860206881686069B8
:1021A00041EA80202168886070BD00000023014062
:1021B0000100000F2E2E2F447269766572732F5323
:1021C000544D3332463478785F48414C5F447269ED
:1021D0007665722F5372632F73746D333266347861
:1021E000785F68616C5F6164632E630000BFFEE727
:1021F0002DE9F04F2DED108B91B00020F9490870BA
:10220000F9490870F9480068F949884204D9202042
:10221000F7494C39086018E0F4480068F5498842ED
:1022200004D92020F249503908600EE0EF480068D8
:10223000F0496039884204D92020EE49B839C86095
:1022400003E02020EB49B8398860EB480068E84992
:10225000884204D92020E6494C39086018E0E64855
:102260000068E449884204D92020E14950390860D7
:102270000EE0E1480068DF496039884204D9202037
:10228000DC49B839C86003E02020DA49B8398860F1
:102290004FF47A62D949DA4801F07AFE08B100F0C9
:1022A000ABFD4FF47A62D749D74801F071FE08B10F
:1022B00000F0A2FDD54803F0D9FF0020D3490968FA
:1022C0004862D24803F01EFF4FF0000804E00120EE
:1022D00002F092FB08F10108C248007810B1C24830
:1022E000007810B9B8F57A7FF1D3B8F57A7F0DD3BD
:1022F000C34801F065FFC44801F062FFC34803F022
:10230000B5FF11B0BDEC108BBDE8F08FBC4801F0FB
:1023100057FFBD4801F054FFBC4803F0A7FFBB487E
:102320000068006820F00400B849096808604FF4AC
:10233000FA63B74AB749B14800F0D2FC4FF4FA63E8
:10234000B54AB649AF4800F0CBFCB548007890B12B
:10235000F021B448FDF785FFF021B348FDF781FF78
:10236000F021B248FDF77DFFF021B148FDF779FF7C
:102370000020AB4908703C23AA4A4FF4FA61A548F3
:102380000BF056FE84B23C23A74A4FF4FA61A048F2
:102390000BF04EFE85B23C23A44A4FF4FA619F48ED
:1023A0000BF046FE86B23C23A14A4FF4FA619A48EC
:1023B0000BF03EFE87B2142C05DD142D03DD142E28
:1023C00001DD142F00DC9CE7601E964901EB8000C4
:1023D00090ED000AA4F1150001EB8000D0ED000A99
:1023E00070EE600AB3EE041A80EE810ADFED910A06
:1023F00080EE20CA681E8C4901EB800090ED000A37
:10240000A5F1150001EB8000D0ED000A70EE600A26
:10241000B3EE041A80EE810ADFED860AC0EE20FAE0
:10242000701E824901EB800090ED000AA6F11500B4
:1024300001EB8000D0ED000A30EE600AB3EE041A22
:10244000C0EE010A9FED7B1A80EE810A8DED100A25
:10245000781E774901EB800090ED000AA7F1150086
:1024600001EB8000D0ED000A30EE600AB3EE041AF2
:10247000C0EE010A9FED6F1A80EE810A8DED0F0A02
:10248000B7EE000A80EE0C8AB7EE000AC0EE2F8A83
:102490009DED100AF7EE000A80EE809A9DED0F0A7E
:1024A000F7EE000AC0EE809A19EE900AFEF72BF8BC
:1024B000CDE90C0119EE100AFEF725F841EC1D0BD1
:1024C00018EE900AFEF71FF841EC1E0B18EE100AEA
:1024D000FEF719F8CDE90A019DED0C0B8DED040B0B
:1024E0008DED02DB8DED00EB9DED0A0B53EC102B17
:1024F00051A00AF0D5F85F4AB0EE480A4FF4FA61ED
:1025000044480BF089FFB0EE40AA5B4AB0EE680A7F
:102510004FF4FA613E480BF07FFFF0EE40AA574AB5
:10252000B0EE490A4FF4FA613C480BF075FFB0EE8B
:1025300040BA534AB0EE690A4FF4FA6136480BF0DC
:102540006BFFF0EE40BA1BEE900AFDF7DCFF41ECAA
:102550001D0B1BEE100AFDF7D6FF41EC1E0B1AEE09
:10256000900AFDF7D0FFCDE90C011AEE100AFDF735
:10257000CAFFCDE90A018DED04DB8DED02EB9DED87
:102580000C0B8DED000B9DED0A0B53EC102B3DA0B9
:102590000AF086F833462A46214649A000970AF0F9
:1025A0007FF8B0EE4A0A52480BF044F88146B0EE8C
:1025B0006A0A50480BF03EF88246B0EE4B0A4E488D
:1025C0000BF038F88346B0EE6B0A4C480BF032F84B
:1025D0000E904B480068401C494908600846016855
:1025E00090E0000003100020041000204050002064
:1025F00058640240B8600240A050002088100020BB
:10260000504F0020C82F0020984F002098510020E4
:102610004C1301200CF40020CC5101208C320120FD
:102620007C1000200C710120FC710120EC72012053
:10263000DC730120007C1249436F61727365206670
:102640007265713A2066413D252E32662C20664126
:1026500070723D252E32662C2066423D252E326654
:102660002C20664270723D252E326620487A0D0A73
:10267000000000008CF3002098F30020A4F3002059
:10268000B0F30020507265636973652066726571EE
:102690003A2066413D252E33662C20664170723DFE
:1026A000252E33662C2066423D252E33662C20666F
:1026B0004270723D252E336620487A0D0A000000D4
:1026C0005A65726F2063726F7373696E67733A2015
:1026D0006E613D25642C206E61703D25642C206E5A
:1026E000623D25642C206E62703D25640D0A000059
:1026F000BCF30020D0F30020E4F30020F8F3002026
:102700007810002047A009F0CBFFB9F1000F7CD072
:10271000BAF1000F79D0BBF1000F76D00E980028E7
:1027200073D04A4890ED040AF0EE40CA484890ED54
:10273000040AB0EE40DA474890ED040AF0EE40DAC1
:10274000454890ED040AB0EE40EA4448016844A0D0
:1027500009F0A6FF1EEE100AFDF7D5FECDE90C012B
:102760001DEE900AFDF7CFFECDE90A011DEE100A1D
:10277000FDF7C9FECDE908011CEE900AFDF7C3FE86
:10278000CDE906019DED0C0B8DED040B9DED0A0BC3
:102790008DED020B9DED080B8DED000B9DED060BF5
:1027A00053EC102B39A009F07BFF3CEECD0AF0EE84
:1027B00040EA3DEECE0AB0EE40FA1FEE100AFDF7F9
:1027C000A2FECDE90C011EEE900AFDF79CFECDE9BC
:1027D0000A019DED0C0B8DED000B9DED0A0B53ECEA
:1027E000102B39A009F05CFF46494748B0EE6E0A4D
:1027F00000F006FB45494648B0EE4F0A00F000FBEA
:1028000044A009F04DFF08E0FFE70E985B465246F2
:102810004946009048A009F043FF1BA009F040FF83
:1028200000BF6EE54672616D6520256C753A2043E8
:102830006F6C6C6563746564206672657175656E36
:10284000637920646174610D0A000000BCF300200C
:10285000D0F30020E4F30020F8F3002078100020EB
:102860003D3D3D2041564552414745442046524555
:102870005155454E4349455320284672616D6520A8
:10288000256C7529203D3D3D0D0A0000417665729D
:102890006167656420667265713A2066413D252E48
:1028A00034662C20664170723D252E34662C2066DD
:1028B000423D252E34662C20664270723D252E3412
:1028C0006620487A0D0A000041766572616765648A
:1028D000206672657175656E6379206572726F72BC
:1028E000733A20646641203D20252E356620487AC3
:1028F0002C20646642203D20252E356620487A0D26
:102900000A00000068100020441000207010002011
:10291000481000203D3D3D20464C4C20434F4E5436
:10292000524F4C4C45522055504441544544203D53
:102930003D3D0D0A00000000436F6C6C65637469D7
:102940006E6720646174612E2E2E20413A2564202A
:102950004170723A256420423A2564204270723AEE
:1029600025640D0A0000000070B504460D46FFF70F
:102970008DF9FFF771FAA08801280BD1D4ED000A78
:102980009FED2F1A70EE810AB0EE600A0020FFF76B
:1029900033F90FE0A08802280AD1D4ED000A9FED98
:1029A000281A70EE810AB0EE600AFFF725F901E0FF
:1029B000FFF794F994ED000ADFED210A30EE200ACA
:1029C000DFED200A20EE200ADFED1F0A80EE201A3C
:1029D000BCEEC10A1D4880ED000AA88801280BD171
:1029E000D5ED000A9FED161A70EE810AB0EE600A6E
:1029F0000020FFF7E7F90FE0A88802280AD1D5EDFB
:102A0000000A9FED0F1A70EE810AB0EE600AFFF720
:102A1000D9F901E0FFF748FA95ED000ADFED080A61
:102A200030EE200ADFED070A20EE200ADFED060A6D
:102A300080EE201ABCEEC10A054880ED000A70BD88
:102A4000000000000000804D20BCBE4B4410002060
:102A50004810002010B5024801F090FC10BD0000A5
:102A6000A452002010B5024801F088FC10BD0000FF
:102A70000453002010B5024801F080FC10BD000096
:102A8000E04F002010B5024801F078FC10BD0000B6
:102A9000A050002010B5024801F070FC10BD0000ED
:102AA000405000200146087810381823B0FBF3F29C
:102AB0000848805CC865032A05D908686FF30900D7
:102AC000001D886503E008686FF309008865886D5C
:102AD0007047000018E50008014600208A6A8B69EB
:102AE000CBB932B1012A0DD0022A03D0032A10D16A
:102AF0000EE000BFCB6A03F08073B3F1807F00D19A
:102B0000012007E0CB6AB3F1C07F00D1012001E0D2
:102B100000E000BF34E08B69B3F5005F1AD132B139
:102B2000012A07D0022A03D0032A11D10AE000BFEC
:102B300001200EE0CB6A03F08073B3F1807F00D1F7
:102B4000012006E0CB6AB3F1C07F00D1012000E094
:102B500000BF15E032B1012A05D0022A04D0032AB1
:102B60000CD103E000BF00BF012008E0CB6A03F0F6
:102B70008073B3F1807F00D1012000E000BF00BF6F
:102B8000704730B50468246824F4802405682C60FC
:102B9000046863608468402C04D10468A2600468FF
:102BA000E16003E00468A1600468E26030BD0000F9
:102BB00010B5084B1B68084CB3FBF4F303FB00F1A2
:102BC000064B5A6800BF054B5B689B1A8B42FAD3D1
:102BD00010BD00002010002040420F00001000E057
:102BE00070B5002033490870334800683349884283
:102BF00004D9202031494C39086018E02E4800687B
:102C00002F49884204D920202C49503908600EE011
:102C1000294800682A496039884204D92020284977
:102C2000B839C86003E020202549B83988604FF4DE
:102C300000622449244801F0ABF908B100F0DCF847
:102C4000224803F05FFA002403E0012001F0D4FEE3
:102C5000641C18480078012802D0B4F57A7FF4D3B8
:102C6000B4F57A7F05D3184801F0AAFA174803F0A3
:102C7000FDFA154801F0A4FA144803F0F7FA1348D6
:102C80000068006820F004001049096808600D4DD4
:102C90000F4A104928460AF0FBFC0D490D4808F080
:102CA0004FFE0B490B48FFF75FFE0BA009F0F8FC45
:102CB00070BD000002100020E04F00205864024068
:102CC000B860024000000020084F00205051002052
:102CD0003C100020341000200D0A00007047000056
:102CE00030B504469FED2F2AB0EE420A9FED2D2A03
:102CF000F0EE420A00202CE0450034F8155003EEB7
:102D0000105AB8EE433ADFED283A23EE233AB0EEFC
:102D1000432A45006D1C34F8155003EE105AB8EEE6
:102D2000433ADFED213A23EE233AF0EE432A01EB5A
:102D3000800585ED002A02EB8005C5ED002A30EE06
:102D4000023AB0EE430A30EEA23AF0EE430A451CD6
:102D5000A8B29842D0DB02EE103AB8EE422A80EEDA
:102D6000021A02EE103AB8EE422AC0EE821A002091
:102D700015E001EB800595ED002A32EE412A01EBCA
:102D8000800585ED002A02EB800595ED002A32EEE4
:102D9000612A02EB800585ED002A451CA8B2984205
:102DA000E7DB30BD00000000533C533A10B54FF450
:102DB00080710D4802F0A8F804468CB90B480078E1
:102DC00001280DD102F010F909490968401A0A28B2
:102DD00006D902F009F90649086001200549087082
:102DE0000248047010BD00000004024029100020B9
:102DF0002C1000202810002072B600BFFEE7000053
:102E00002DE9F0432DED0C8B8BB0F0EE408A05469A
:102E10000C469FED510A28EE800AF0EE409AB0EE83
:102E2000E80ADFED4E0AB4EEE00AF1EE10FA03D242
:102E30009FED4B0AF0EE409A94ED000A30EE299A8D
:102E4000B0EE498AB1EE040AB4EEC08AF1EE10FA8F
:102E500004DDB1EE040AB0EE408A0AE0B9EE040ADD
:102E6000B4EEC08AF1EE10FA03D2B9EE040AB0EE65
:102E7000408A9FED3C0A28EE800A78EE490A9FEDD1
:102E80003A1A01EE200AD4ED000A30EE200A84ED51
:102E9000000A9FED360A28EE000ABDEEC00A10EEC9
:102EA000106A2868304428603148844210D12F6865
:102EB000C7F30D0040F48048C7F38D3040F48049DB
:102EC0004046FEF76BFF4846FEF768FF00BF10E084
:102ED0002F68C7F30D0040F48048C7F38D3040F4ED
:102EE00080494046FFF740F84846FFF73DF800BFED
:102EF00000BF94ED000A10EE101A0846FDF703FB20
:102F000041EC1A0B18EE100AFDF7FDFA41EC1B0B11
:102F100019EE100AFDF7F7FA41EC1C0B18EE900AB7
:102F2000FDF7F1FA41EC1D0B8DED08AB8DED06BB05
:102F30008DED04CB9FED0F0B8DED020B9FED0F0B75
:102F40008DED000B53EC1D2B0E4809F0A9FB0BB0C7
:102F5000BDEC0C8BBDE8F083929FE73DCDCCCC3D22
:102F60000000000007FB4E3998780D4177CC2B41CB
:102F700068100020000000E060DF293F00000040F2
:102F8000F2F3BC3FD8FD00082DE9F04106460C469F
:102F900015461F4617B1B7F5804F00D104E040F247
:102FA000B51139A00AF056FEB7F5804F65D14448F7
:102FB000864200D104E040F2BB1133A00AF04AFE81
:102FC00020680F2800D804E04FF4DE712EA00AF02C
:102FD00041FE606818B160680F2800D804E040F234
:102FE000BD1129A00AF036FEA06818B1A068FF281C
:102FF00000D804E04FF4DF7123A00AF02BFEE06854
:103000000F2800D804E040F2BF111FA00AF022FEF2
:10301000A06958B1A069B0F1805F07D0A069B0F194
:10302000005F03D0A069B0F1405F00D104E04FF42D
:10303000E07115A00AF00EFE2DB1022D03D0042D73
:1030400001D0062D00D104E040F2C1110EA00AF01B
:1030500001FED4E9000140EA0110A16840EA012024
:10306000A1690843A18940EA014056F82510154A94
:103070001140084346F8250003E06FF0704046F821
:1030800025000020BDE8F0812E2E2F447269766560
:1030900072732F53544D3332463478785F48414C25
:1030A0005F4472697665722F5372632F73746D3348
:1030B00032663478785F6C6C5F66736D632E630084
:1030C000040100A00000F0CF2DE9F04105460C46B8
:1030D000B5F1204F00D103E0E42176A00AF0BAFD5B
:1030E000206840B12068022805D02068042802D05A
:1030F0002068062800D103E0E5216EA00AF0AAFDB1
:10310000606810B16068022800D103E0E62169A080
:103110000AF0A0FDA06828B1A068042802D0A06829
:10312000082800D103E0E72162A00AF093FDE068DF
:1031300028B1E068102802D0E068202800D103E020
:10314000E8215CA00AF086FD206918B12069B0F57D
:10315000807F00D103E0E92156A00AF07BFD606981
:1031600018B16069B0F5007F00D103E0EA2151A0F9
:103170000AF070FDA06918B1A069B0F5806F00D1A8
:1031800003E0EC214BA00AF065FDE06918B1E069AD
:10319000B0F5006F00D103E0EE2146A00AF05AFD21
:1031A000206A18B1206AB0F5805F00D103E0EF21FA
:1031B00040A00AF04FFD606A18B1606AB0F5005F88
:1031C00000D103E0F0213BA00AF044FDA06A18B151
:1031D000A06AB0F5804F00D103E0F12135A00AF0DC
:1031E00039FDE06A18B1E06AB0F5004F00D103E0A4
:1031F000F22130A00AF02EFD206B18B1206BB0F543
:10320000002F00D103E0F3212AA00AF023FDE06B98
:1032100078B1E06BB0F5803F0BD0E06BB0F5003FCC
:1032200007D0E06BB0F5403F03D0E06BB0F5802FE6
:1032300000D103E0FA211FA00AF00CFD206855F828
:10324000200020F00100216845F82100A06808282E
:1032500001D1402600E0002660683043A1680843A1
:10326000E16808432169084361690843E16908434B
:10327000216A0843616A0843A16A0843E16A084376
:10328000216B40EA0107A0690743E06B0743DFF8C1
:103290005C8048F4806848F4E028206855F82000F5
:1032A00020EA08003843216845F821000020BDE8E5
:1032B000F08100002E2E2F447269766572732F53B1
:1032C000544D3332463478785F48414C5F447269DC
:1032D0007665722F5372632F73746D333266347850
:1032E000785F6C6C5F66736D632E63007FFB080014
:1032F00070B506460C461546B6F1204F00D104E0E5
:1033000040F283113EA00AF0A5FC20680F2800D8E7
:1033100004E04FF4C2713AA00AF09CFC606818B156
:1033200060680F2800D804E040F2851134A00AF04C
:1033300091FCA06818B1A068FF2800D804E04FF401
:10334000C3712FA00AF086FCE0680F2800D804E0C3
:1033500040F287112AA00AF07DFC2069012803D9D8
:103360002069102800D804E04FF4C47124A00AF0AA
:1033700071FC6069012803D96069112800D804E054
:1033800040F289111EA00AF065FCA06958B1A0693D
:10339000B0F1805F07D0A069B0F1005F03D0A069F1
:1033A000B0F1405F00D104E04FF4C57114A00AF001
:1033B00051FC2DB1022D03D0042D01D0062D00D1DA
:1033C00004E040F28B110EA00AF044FCD4E90001A5
:1033D00040EA0110A16840EA0120A18940EA0141C8
:1033E000208A401E41EA0051207D801E41EA006093
:1033F000A1690843691C46F82100002070BD000047
:103400002E2E2F447269766572732F53544D3332CA
:10341000463478785F48414C5F4472697665722F14
:103420005372632F73746D3332663478785F6C6CCB
:103430005F66736D632E63002DE9F04105460C460F
:1034400000272068122800D804E04FF44F71ECA048
:103450000AF000FC606818B16068042800D804E035
:1034600040F23D31E6A00AF0F5FBA068A0B1A068EB
:10347000012811D0A06802280ED0A06803280BD024
:10348000A068042808D0A068052805D0A0680628F0
:1034900002D0A068072800D104E040F23E31D8A055
:1034A0000AF0D8FBA069E8B3A069B0F5803F3DD031
:1034B000A069B0F5003F39D0A069B0F5403F35D0E4
:1034C000A069B0F5802F31D0A069B0F5A02F2DD024
:1034D000A069B0F5C02F29D0A069B0F5E02F25D0A4
:1034E000A069B0F5002F21D0A069B0F5102F1DD034
:1034F000A069B0F5202F19D0A069B0F5302F15D0F4
:10350000A069B0F5402F11D0A069B0F5502F0DD0B3
:10351000A069B0F5602F09D0A069B0F5702F05D073
:10352000C64900E002E0A069884200D104E040F210
:103530003F31B3A00AF08EFB206918B1206904283E
:1035400000D804E04FF45071ADA00AF083FB607D19
:1035500010B1607D012800D104E040F24131A8A003
:103560000AF078FB207D10B1207D012800D104E015
:1035700040F24231A2A00AF06DFB2868406800F0DA
:1035800040771FB9E068B0F5805F12D3B7F1807F54
:1035900003D1E068B0F5806F0BD3B7F1007F02D1A3
:1035A000E068FF2805D9B7F1407F03D1E0683F28E4
:1035B00000D804E040F2463191A00AF04BFB9F494D
:1035C000A069884213D0E06958B1E069B0F5801F66
:1035D00007D0E069B0F5001F03D0E069B0F5401FE7
:1035E00000D104E040F24B3185A00AF033FB00BF6C
:1035F00095F83C00012802D10220BDE8F0810120AD
:1036000085F83C0000BF2068092816D92868C068E2
:1036100021780A3901EB410207219140884329684A
:10362000C86021780A3901EB4101A0688840296807
:10363000C96808432968C86013E0286800692178D0
:1036400001EB4102072191408843296808612178F4
:1036500001EB4101A068884029680969084329688D
:1036600008612868806B20F4401029688863286806
:10367000816B208A401E41EA0050296888632079C6
:10368000C01C217C401A00EB80011F208840296863
:10369000896B8143286881632079C01C217C401A92
:1036A00000EB8001208880B288402968896B08433C
:1036B000296888636149A069884218D028688068B1
:1036C00020F470202968886028688068A169084310
:1036D000296888602868806820F44010296888601C
:1036E00028688068E1690843296888600BE02868D9
:1036F000806820F47020296888602868806820F439
:10370000401029688860607D30B12868406840F4C6
:1037100080602968486005E02868406820F480607F
:1037200029684860207D30B12868406840F48050A6
:103730002968486005E02868406820F480502968BE
:1037400048606068012804D002280FD0032827D1E0
:1037500019E0286840696FF30B0029684861286800
:103760004069E16808432968486126E02868806963
:103770006FF30B002968886128688069E168084355
:103780002968886119E02868C0696FF30B0029680F
:10379000C8612868C069E16808432968C8610CE00D
:1037A0002868006A6FF30B00296808622868006ABD
:1037B000E16808432968086200BF00BF204E214924
:1037C0002868884206D12068122803D1706840F426
:1037D000800070601B492868884209D12068102841
:1037E00002D02068112803D1706840F40000706096
:1037F00000BF002085F83C0000BF00BFFDE60000D0
:103800002E2E2F447269766572732F53544D3332C6
:10381000463478785F48414C5F4472697665722F10
:103820005372632F73746D3332663478785F6861D6
:103830006C5F6164635F65782E63000001000F00B8
:103840000023014000200140F8B505460C46002049
:1038500000902068122800D804E040F28B6172A02A
:103860000AF0F8F9606818B16068102800D804E020
:1038700040F28C616CA00AF0EDF9A068A0B1A068DC
:10388000012811D0A06802280ED0A06803280BD010
:10389000A068042808D0A068052805D0A0680628DC
:1038A00002D0A068072800D104E040F28D615EA03C
:1038B0000AF0D0F900BF95F83C00012801D10220A0
:1038C000F8BD012085F83C0000BF2068092816D902
:1038D0002868C06821780A3901EB4102072191402C
:1038E00088432968C86021780A3901EB4101A06842
:1038F00088402968C96808432968C86013E02868B7
:103900000069217801EB4102072191408843296831
:103910000861217801EB4101A068884029680969A4
:103920000843296808616068072817D22868406B37
:103930002179491E01EB81021F21914088432968AA
:103940004863208880B22179491E01EB81018840BB
:103950002968496B08432968486331E060680D288D
:1039600017D22868006B2179C91F01EB81021F2142
:103970009140884329680863208880B22179C91F53
:1039800001EB810188402968096B084329680863B5
:1039900016E02868C06A21790D3901EB81021F21E8
:1039A000914088432968C862208880B221790D3906
:1039B00001EB810188402968C96A08432968C86207
:1039C000274E28492868884206D12068122803D14A
:1039D000706840F4800070602249286888421CD1D9
:1039E0002068102802D02068112816D1706840F491
:1039F00000007060206810280FD11B4800681B4928
:103A0000B0FBF1F000EB80004000009002E0009875
:103A1000401E009000980028F9D100BF002085F8D2
:103A20003C0000BF00BF4BE72E2E2F447269766525
:103A300072732F53544D3332463478785F48414C7B
:103A40005F4472697665722F5372632F73746D339E
:103A500032663478785F68616C5F6164632E6300FE
:103A600000230140002001402010002040420F00B0
:103A70000B4A0168914203D101210A4A11700EE0FC
:103A8000094A0168914203D10121084A117006E0F8
:103A9000074A0168914202D10121064A117070471C
:103AA00000200140021000200021014003100020EE
:103AB00000220140041000207047704770B5044692
:103AC00000250CB9012070BD8B492068884207D0C1
:103AD0008A492068884203D089492068884200D1F9
:103AE00004E04FF4A17187A00AF0B4F8606858B1FF
:103AF0006068B0F5803F07D06068B0F5003F03D044
:103B00006068B0F5403F00D104E040F243117DA071
:103B10000AF0A0F8A06858B1A068B0F1807F07D083
:103B2000A068B0F1007F03D0A068B0F1407F00D161
:103B300004E04FF4A27173A00AF08CF8206910B170
:103B40002069012800D104E040F245116DA00AF07F
:103B500081F8207E10B1207E012800D104E04FF4CE
:103B6000A37168A00AF076F8A06AE8B3A06AB0F181
:103B7000807F3DD0A06AB0F1007F39D0A06AB0F15B
:103B8000407F35D0A06AB0F1806F31D0A06AB0F12B
:103B9000A06F2DD0A06AB0F1C06F29D0A06AB0F19B
:103BA000E06F25D0A06AB0F1006F21D0A06AB0F11B
:103BB000106F1DD0A06AB0F1206F19D0A06AB0F1CB
:103BC000306F15D0A06AB0F1406F11D0A06AB0F18B
:103BD000506F0DD0A06AB0F1606F09D0A06AB0F14B
:103BE000706F05D0554900E002E0A06A884200D11C
:103BF00004E040F2471143A00AF02CF8E06818B145
:103C0000E068B0F5006F00D104E04FF4A4713DA06E
:103C10000AF020F8E06918B1E069102800D804E043
:103C200040F2491137A00AF015F894F8300018B1A5
:103C300094F83000012800D104E04FF4A57131A0C0
:103C40000AF008F86069012804D0606910B1606961
:103C5000022800D104E040F24B112AA009F0FAFF3B
:103C60002020005D18B12020005D012800D104E073
:103C70004FF4A67123A009F0EDFF3049A06A8842F5
:103C800013D0E06A58B1E06AB0F1805F07D0E06A13
:103C9000B0F1005F03D0E06AB0F1405F00D104E012
:103CA0004FF4A87117A009F0D5FF206C30B9204659
:103CB00000F046F80020606484F83C00206C00F0BE
:103CC000100088B9206C20F4885040F00200206475
:103CD0002046FEF7B1F900206064206C20F002005D
:103CE00040F00100206400E0012500BF002084F8BE
:103CF0003C0000BF2846E6E60020014000210140CC
:103D0000002201402E2E2F447269766572732F5364
:103D1000544D3332463478785F48414C5F44726981
:103D20007665722F5372632F73746D3332663478F5
:103D3000785F68616C5F6164632E63000100000F4F
:103D400010B586B00446142101A8FCF78AFA86490A
:103D5000206888424CD100BF002000908348006852
:103D600040F48070814908600846006800F4807063
:103D7000009000BF00BF00BF002000907B481438B7
:103D8000006840F00100794914390860084600686D
:103D900000F00100009000BF00BF0420019003204C
:103DA00002900020039001A9714800F0A1FE714823
:103DB000714908600020486000216F488160C1603F
:103DC0004FF48061016149004161890081610021F6
:103DD000C1614FF4403101620021416200F0EEFB0D
:103DE00008B1FFF709F800BF6348A0638463B8E037
:103DF0006249206888424BD100BF002000905B4898
:103E0000006840F40070594908600846006800F4F2
:103E10000070009000BF00BF00BF0020009053481A
:103E20001438006840F00100504914390860084611
:103E3000006800F00100009000BF00BF602001900A
:103E4000032002900020039001A9494800F050FE91
:103E5000484830304A4908604FF0007048600021FF
:103E600047488160C1604FF4806101614900416150
:103E7000890081610021C1610162416200F09EFB05
:103E800008B1FEF7B9FF00BF3D48A063846368E056
:103E90003C492068884264D100BF0020009033482C
:103EA000006840F48060314908600846006800F40A
:103EB0008060009000BF00BF00BF002000902B4832
:103EC0001438006840F0200028491439086008467A
:103ED000006800F02000009000BF00BF00BF00207D
:103EE00000900846006840F001000860084600683D
:103EF00000F00100009000BF00BF402001900320AF
:103F000002900020039001A91F4800F0F1FD082055
:103F10000190032002900020039001A9144800F0B2
:103F2000E7FD14481830194908604FF08060486078
:103F3000002116488160C1604FF480610161490031
:103F40004161890081610021C1610162416200F02B
:103F500035FB08B1FEF750FF00BF0C48A063846337
:103F600000BF06B010BD00000020014044380240F0
:103F70000000024010640240E04F00200021014098
:103F8000405000200022014000140240A0500020B8
:103F90002DE9F84304460D46164600200090804661
:103FA000207E10B1207E012800D104E040F25A5159
:103FB0006CA009F04FFEE06A58B1E06AB0F1805F92
:103FC00007D0E06AB0F1005F03D0E06AB0F1405F73
:103FD00000D104E040F25B5162A009F03BFE00BF5B
:103FE00094F83C00012802D10220BDE8F8830120AA
:103FF00084F83C0000BF2068806800F00100A0B990
:104000002068806840F0010021688860634800688B
:104010006349B0FBF1F000EB4000009002E0009833
:10402000401E009000980028F9D12068806800F4B4
:104030008070B0F5807F05D12068806820F48070A2
:10404000216888602068806800F0010000287FD027
:10405000206C40F20161884340F480702064206845
:10406000406800F4806028B1206C20F4005040F4D7
:1040700080502064206C00F48050B0F5805F04D143
:10408000606C20F00600606401E00020606400BF06
:10409000002084F83C0000BF424F4348A16BC86336
:1040A0004248A16B08644248A16BC8646FF02200CB
:1040B000216808602068406840F08060216848609E
:1040C0002068806840F4807021688860226802F16E
:1040D0004C0133462A46A06B00F01EFC80467868EF
:1040E00000F01F0020BB33492068884213D03249BA
:1040F0002068884204D1381D006800F01F0050B1CC
:104100002E49206888422BD12648001D006800F007
:104110001F00102824D22068806800F04050F8B9B1
:104120002068806840F080402168886018E00FE0D7
:1041300020492068884213D12068806800F04050F0
:1041400070B92068806840F080402168886007E08E
:10415000206C40F010002064606C40F0010060644E
:10416000404642E72E2E2F447269766572732F53B4
:10417000544D3332463478785F48414C5F4472691D
:104180007665722F5372632F73746D333266347891
:10419000785F68616C5F6164632E630020100020AB
:1041A00040420F0000230140911F00082920000811
:1041B0000F200008002001400021014000220140A2
:1041C00070B50446002527492068884207D0264953
:1041D0002068884203D025492068884200D104E045
:1041E00040F2ED5122A009F035FD00BF94F83C00EB
:1041F000012801D1022070BD012084F83C0000BFDD
:104200002068806820F0010021688860206880684C
:1042100000F00100F8B92068806820F480702168FF
:104220008860A06B90F83500022808D1A06B00F0E0
:104230003BF805461DB1206C40F04000206420682A
:10424000406820F0806021684860206C20F488502D
:1042500040F00100206400BF002084F83C0000BF53
:104260002846C8E70020014000210140002201400B
:104270002E2E2F447269766572732F53544D33324C
:10428000463478785F48414C5F4472697665722F96
:104290005372632F73746D3332663478785F68615C
:1042A0006C5F6164632E630070B50446A56D00F019
:1042B0009BFE064694F83500022808D080206065F1
:1042C00000BF002084F8340000BF012070BD2068CA
:1042D000006820F01600216808602068406920F01E
:1042E000800021684861206C08B9A06C28B1206862
:1042F000006820F00800216808602068006820F04D
:1043000001002168086010E000F06EFE801B0528A7
:104310000BD920206065032084F8350000BF002001
:1043200084F8340000BF0320D0E72068006800F064
:1043300001000028E8D194F85C103F208840A86074
:10434000012084F8350000BF002084F8340000BF4D
:1043500000BFBBE7014691F83500022803D080205A
:10436000486501207047052081F83500086800681D
:1043700020F001000A6810600020F3E7F8B5044659
:10438000002000908C4800684FF41651B0FBF1F704
:10439000A56D2E6894F85C1008208840304098B1D4
:1043A0002068006800F0040070B12068006820F008
:1043B00004002168086094F85C1008208840A86018
:1043C000606D40F00100606594F85C100120884049
:1043D000304068B12068406900F0800040B194F836
:1043E0005C1001208840A860606D40F002006065AC
:1043F00094F85C1004208840304068B12068006860
:1044000000F0020040B194F85C1004208840A860DD
:10441000606D40F00400606594F85C1010208840E6
:10442000304078B32068006800F0080050B394F87A
:104430005C1010208840A8602068006800F480208C
:1044400080B12068006800F4002028B9206CC8B151
:104450002046216C884715E0A06C98B12046A16CDD
:1044600088470FE02068006800F4807028B9206851
:10447000006820F0080021680860206C10B1204618
:10448000216C884794F85C10202088403040002838
:1044900065D02068006800F0100000285FD094F814
:1044A0005C1020208840A86094F83500052828D1A9
:1044B0002068006820F016002168086020684069C4
:1044C00020F0800021684861206C08B9A06C28B1F8
:1044D0002068006820F008002168086094F85C10EB
:1044E0003F208840A860012084F8350000BF0020EC
:1044F00084F8340000BF206D10B12046216D88473C
:10450000F8BD2068006800F4802080B12068006851
:1045100000F4002028B9606C10B12046616C884717
:104520001DE0E06BD8B12046E16B884717E02068BA
:10453000006800F4807068B92068006820F01000FE
:1045400021680860012084F8350000BF002084F84D
:10455000340000BFE06B10B12046E16B8847606D0E
:1045600038B3606D00F00100F0B1052084F835002B
:104570002068006820F001002168086000BF0098F2
:10458000401C0090B84200D905E02068006800F0A7
:1045900001000028F3D100BF012084F8350000BFDE
:1045A000002084F8340000BFE06C10B12046E16CBC
:1045B000884700BFA4E70000201000202DE9F0414B
:1045C0000446002500F010FD074614B90120BDE89F
:1045D000F081C0492068884249D0BE49183120681E
:1045E000884244D0BB493031206888423FD0B94925
:1045F0004831206888423AD0B64960312068884204
:1046000035D0B44978312068884230D0B1499031F2
:10461000206888422BD0AF49A8312068884226D034
:10462000AD492068884222D0AB49183120688842C1
:104630001DD0A94930312068884218D0A649483198
:104640002068884213D0A4496031206888420ED087
:10465000A14978312068884209D09F49903120686B
:10466000884204D09C49A8312068884200D103E0E8
:10467000B7219AA009F0EEFA6068D8B16068B0F18D
:10468000007F17D06068B0F1806F13D06068B0F120
:10469000C06F0FD06068B0F1006F0BD06068B0F1F0
:1046A000206F07D06068B0F1406F03D06068B0F150
:1046B000606F00D103E0B82188A009F0CBFAA068B0
:1046C00028B1A068402802D0A068802800D103E06B
:1046D000B92182A009F0BEFAE068B0F5007F01D0F0
:1046E000E06800B903E0BA217CA009F0B3FA2069C0
:1046F000B0F5806F01D0206900B903E0BB2177A03D
:1047000009F0A8FA606938B16069B0F5006F03D0AC
:104710006069B0F5805F00D103E0BC216FA009F0B3
:1047200099FAA06938B1A069B0F5005F03D0A0691B
:10473000B0F5804F00D103E0BD2168A009F08AFAEE
:10474000E06930B1E069B0F5807F02D0E0692028EF
:1047500000D103E0BE2161A009F07CFA206A58B1C3
:10476000206AB0F5803F07D0206AB0F5003F03D043
:10477000206AB0F5403F00D103E0BF2157A009F007
:1047800069FA606A10B1606A042800D103E0C021B0
:1047900052A009F05FFA606A002835D0A06A40B1E3
:1047A000A06A012805D0A06A022802D0A06A0328C6
:1047B00000D103E0C52149A009F04CFAE06A58B1E4
:1047C000E06AB0F5000F07D0E06AB0F1807F03D057
:1047D000E06AB0F1C07F00D103E0C6213FA009F03C
:1047E00039FA206B58B1206BB0F5001F07D0206B51
:1047F000B0F5800F03D0206BB0F5C00F00D103E0FF
:10480000C72136A009F026FA022084F8350000BF3F
:10481000002084F8340000BF2068006820F0010008
:10482000216808600AE000F0DFFBC01B052805D9FD
:1048300020206065032084F83500C8E62068006801
:1048400000F001000028EED12068056831480540DD
:10485000D4E901010843E16808432169084361691B
:104860000843A1690843E1690843216A08430543F5
:10487000606A042803D1D4E90B010843054320688A
:1048800005602068456925F00705606A0543606A90
:1048900004280DD1A06A0543E06A48B12046FEF71E
:1048A0001BF928B140206065012084F835008EE6B0
:1048B000206845612046FEF7F5F8064694F85C103E
:1048C0003F208840B06000206065012084F83500FA
:1048D00000207CE610600240106402402E2E2F441F
:1048E0007269766572732F53544D3332463478783B
:1048F0005F48414C5F4472697665722F5372632F33
:1049000073746D3332663478785F68616C5F646DA0
:10491000612E63003F8010F02DE9F04704460E46FB
:1049200017461D464FF00008D4F858901DB1B5F554
:10493000803F00D204E040F2CB1121A009F08AF9B7
:1049400000BF94F83400012802D10220BDE8F087AE
:10495000012084F8340000BF94F83500012825D1E7
:10496000022084F83500002060652B463A46314627
:104970002046FEF706F994F85C103F208840C9F8FD
:1049800008002068006840F0160021680860206C6C
:1049900028B12068006840F008002168086020689D
:1049A000006840F001002168086006E000BF0020B8
:1049B00084F8340000BF4FF002084046C6E700000C
:1049C0002E2E2F447269766572732F53544D3332F5
:1049D000463478785F48414C5F4472697665722F3F
:1049E0005372632F73746D3332663478785F686105
:1049F0006C5F646D612E630070B5044600F0F4FADC
:104A000006462546681C10B104480078054400BFDE
:104A100000F0EAFA801BA842FAD370BD1C100020F7
:104A200000B587B0142102A8FBF71BFC2A480068D8
:104A300008B107B000BD01202749086000BF002071
:104A400001902648006840F00100244908600846AB
:104A5000006800F00100019000BF00BF88140290C0
:104A60000220039000200490032005900C20069063
:104A700002A91B4800F03CF84FF68070029002201B
:104A8000039000200490032005900C20069002A9BA
:104A9000144800F02DF84CF233700290022003907D
:104AA00000200490032005900C20069002A90E48D7
:104AB00000F01EF84FF48050029002200390002076
:104AC0000490032005900C20069002A9074800F0EE
:104AD0000FF800BFADE70000081000203838024092
:104AE0000014024000100240000C02400018024076
:104AF0002DE9F84306460C464FF00009C84600254C
:104B0000E648864217D0E648864214D0E5488642F9
:104B100011D0E54886420ED0E44886420BD0E448E6
:104B2000864208D0E348864205D0E348864202D058
:104B3000E248864200D103E0AC21E1A009F08AF806
:104B4000208880B220B120686FF30F0000B903E025
:104B5000AD21DBA009F07EF8606830B36068012801
:104B600023D06068112820D0606802281DD06068BA
:104B700012281AD06068B0F5881F16D06068B0F5AA
:104B8000041F12D06068B0F5441F0ED06068B0F505
:104B9000901F0AD06068B0F5081F06D06068B0F5B5
:104BA000481F02D06068032800D103E0AE21C4A0F2
:104BB00009F050F800276BE1012000FA07F920689E
:104BC00000EA0908C8457DD1207900F003000128DA
:104BD00004D0207900F00300022823D1E06840B11E
:104BE000E068012805D0E068022802D0E0680328C8
:104BF00000D103E0C021B2A009F02CF8B56879001B
:104C00000320884085437900E06888400543B5600B
:104C100075680120B84085432079C0F30010B84082
:104C200005437560207900F00300032816D0A068C2
:104C300028B1A068012802D0A068022800D103E0B2
:104C4000D1219FA009F006F8F5687900032088407B
:104C500085437900A06888400543F560207900F01D
:104C6000030002287ED1206968B32069092864D036
:104C7000206940B3206930B3206920B3206910B3A4
:104C80002069012859D02069012856D020690228BE
:104C900053D02069022850D0206902284DD02069C5
:104CA00003284AD02069042847D02069042844D02A
:104CB0002069042841D0206905283ED020690528B4
:104CC0003BD001E0E3E038E02069092835D02069D5
:104CD000062832D0206909282FD0206907282CD037
:104CE0002069072829D02069072826D020690828AC
:104CF00023D02069082820D0206908281DD02069E9
:104D000009281AD02069092817D020690A2814D048
:104D100020690A2811D020690B280ED020690C28A0
:104D20000BD020690C2808D020690D2805D02069F7
:104D30000C2802D020690F2800D103E0DE2160A0FA
:104D400008F088FFF90806F1200050F82150780794
:104D5000C10E0F20884085437907C90E206988401D
:104D6000054300E004E0F90806F1200040F8215076
:104D700035687900032088408543207900F00300DE
:104D80007900884005433560606800F440300028B1
:104D90007DD000BF002000905848006840F480405B
:104DA000564908600846006800F48040009000BF43
:104DB00000BF5348B90850F82150B807010F0F2021
:104DC000884085433548864201D1002023E034489D
:104DD000864201D101201EE03248864201D10220E4
:104DE00019E03148864201D1032014E02F48864261
:104DF00001D104200FE02E48864201D105200AE0AF
:104E00002C48864201D1062005E02B48864201D17C
:104E1000072000E00820B907090F884005433848FB
:104E2000B90840F821503748056825EA0805606848
:104E300000F4801008B145EA080532480560001DFD
:104E4000056825EA0805606800F4001008B145EA25
:104E500008052C48001D05602A48001F056825EA42
:104E60000805606800F4003008B145EA08052548E7
:104E7000001F0560001F056825EA0805606800F44A
:104E8000803008B145EA08051E48083805607F1CD7
:104E9000102FFFF491AEBDE8F8830000000002403F
:104EA0000004024000080240000C024000100240D2
:104EB0000014024000180240001C02400020024082
:104EC0002E2E2F447269766572732F53544D3332F0
:104ED000463478785F48414C5F4472697665722F3A
:104EE0005372632F73746D3332663478785F686100
:104EF0006C5F6770696F2E630000000044380240E9
:104F000008380140083C014070B506460C46A0B286
:104F100018B1200C000400B904E04FF4BE7105A0E4
:104F200008F098FE3069204008B1012500E0002516
:104F3000284670BD2E2E2F447269766572732F53EA
:104F4000544D3332463478785F48414C5F4472693F
:104F50007665722F5372632F73746D3332663478B3
:104F6000785F68616C5F6770696F2E630000000096
:104F700070B506460C461546A0B218B1200C0004C8
:104F800000B904E040F29D1108A008F063FE0DB1E5
:104F9000012D00D104E04FF4CF7104A008F05AFEB7
:104FA0000DB1B46101E02004B06170BD2E2E2F441C
:104FB0007269766572732F53544D33324634787864
:104FC0005F48414C5F4472697665722F5372632F5C
:104FD00073746D3332663478785F68616C5F6770C4
:104FE000696F2E63000000000148006870470000F0
:104FF0001410002003480068034909780844014957
:1050000008607047141000201C10002010B50D48D7
:10501000006840F400700B4908600846006840F4DE
:10502000806008600846006840F4807008600320D3
:1050300000F0F8F80F2000F007F800F02BF800203F
:1050400010BD0000003C024070B504460E480078D8
:105050004FF47A71B1FBF0F00C490968B1FBF0F53F
:10506000284600F041FE08B1012070BD102C07D287
:1050700000222146501E00F06BF80548046001E054
:105080000120F2E70020F0E71C1000202010002093
:105090001810002008B500BF002000900E480068DE
:1050A00040F480400C4908600846006800F48040E5
:1050B000009000BF00BF00BF00200090081F0068E4
:1050C00040F08050091F08600846006800F08050DA
:1050D000009000BF00BF08BD4438024010B5044630
:1050E000002C00DB03E0BC210AA008F0B3FD204641
:1050F00000280DDB00BF00BF00F01F02012191401E
:105100004209920002F1E022C2F8001100BF00BF84
:1051100000BF10BD2E2E2F447269766572732F5317
:10512000544D3332463478785F48414C5F4472695D
:105130007665722F5372632F73746D3332663478D1
:10514000785F68616C5F636F727465782E630000CE
:105150002DE9F05F80460C4615460027102D00D241
:1051600003E0A82120A008F075FD102C00D203E078
:10517000A9211DA008F06EFD07F0CAFA07463946BE
:1051800022462B4601F00700C0F1070ABAF1040FCE
:1051900002D94FF0040A01E0C0F1070AD14600F13C
:1051A000040ABAF1070F02D24FF0000A01E0A0F1A1
:1051B000030AD4464FF0010A0AFA09FAAAF1010AD1
:1051C0000AEA020A0AFA0CFA4FF0010B0BFA0CFB7E
:1051D000ABF1010B0BEA030B4AEA0B0631464046E2
:1051E00007F09EFABDE8F09F2E2E2F447269766577
:1051F00072732F53544D3332463478785F48414CA4
:105200005F4472697665722F5372632F73746D33C6
:1052100032663478785F68616C5F636F727465784A
:105220002E63000010B50446072C07D0062C05D0CD
:10523000052C03D0042C01D0032C00D103E09021D5
:1052400009A008F007FD00BF04F00701154A106827
:105250004FF6FF021040144A024342EA0120114A6D
:10526000106000BF10BD00002E2E2F4472697665BD
:1052700072732F53544D3332463478785F48414C23
:105280005F4472697665722F5372632F73746D3346
:1052900032663478785F68616C5F636F72746578CA
:1052A0002E6300000CED00E00000FA0570B5044626
:1052B0000D460CB9012070BD2068012803D3206879
:1052C0000F2800D804E040F25A2195A008F0C2FC53
:1052D0006DB1012D0BD0022D09D0032D07D0042D67
:1052E00005D0052D03D0062D01D0072D00D104E0F7
:1052F00040F25B218AA008F0ADFC9748006800F0FE
:105300000700A84209D294490D700846006800F0D1
:105310000700A84201D00120CDE7207800F002006C
:1053200002283DD1207800F00400042805D18B48E4
:10533000006840F4E05089490860207800F00800D7
:10534000082805D18548006840F46040834908601A
:10535000A068B8B1A068802814D0A068902811D0A7
:10536000A068A0280ED0A068B0280BD0A068C028E4
:1053700008D0A068D02805D0A068E02802D0A06896
:10538000F02800D104E040F27E2165A008F062FC24
:105390007248006820F0F000A16808436F49086077
:1053A000207800F0010000284ED0606840B16068AD
:1053B000012805D06068022802D06068032800D167
:1053C00004E040F2852156A008F044FC6068012802
:1053D00007D1624808380068C0F34040B8B90120DE
:1053E00069E76068022802D06068032807D15B483B
:1053F00008380068C0F3406048B901205BE75748AF
:1054000008380068C0F3400008B9012053E753484A
:10541000006820F003006168084350490860FFF706
:10542000E3FD064608E0FFF7DFFD801B41F288310F
:10543000884201D903203EE74848006800F00C008C
:105440006168B0EB810FEED14348006800F00700BF
:10545000A84209D940490D700846006800F00700CD
:10546000A84201D0012026E7207800F0040004289B
:105470001FD1E06878B1E068B0F5805F0BD0E068DC
:10548000B0F5A05F07D0E068B0F5C05F03D0E0687A
:10549000B0F5E05F00D104E040F2C32120A008F0A5
:1054A000D9FB2E48006820F4E050E16808432B49FE
:1054B0000860207800F00800082820D1206978B121
:1054C0002069B0F5805F0BD02069B0F5A05F07D0F0
:1054D0002069B0F5C05F03D02069B0F5E05F00D16E
:1054E00004E040F2CA210EA008F0B4FB1B4800689B
:1054F00020F46040216940EAC1001849086000F0CA
:105500005BF816490968C1F30311154A515CC8409C
:105510001449086014480068FFF796FD0020CAE6A9
:105520002E2E2F447269766572732F53544D333289
:10553000463478785F48414C5F4472697665722FD3
:105540005372632F73746D3332663478785F686199
:105550006C5F7263632E6300003C024008380240B7
:1055600020E50008201000201810002001480068E5
:10557000704700002010002000B5FFF7F7FF044936
:105580000968C1F38221034A515CC84000BD000094
:105590000838024030E5000800B5FFF7E7FF04498E
:1055A0000968C1F34231034A515CC84000BD0000A4
:1055B0000838024030E500082DE9F04700240025B6
:1055C0000026A1462548006800F00C0020B1042800
:1055D00005D008283AD105E0DFF8849039E0DFF8FB
:1055E000849036E01D48001F006800F03F041B480F
:1055F000001F006800F4800078B11A481749091F9D
:105600000968C1F38811A0FB0170014622460023FE
:105610003846FAF7D7FD05460EE011480F49091F35
:105620000968C1F38811A0FB0170014622460023DE
:105630003846FAF7C7FD05460848001F0068C0F362
:105640000140401C4600B5FBF6F902E0DFF810907F
:1056500000BF00BF4846BDE8F087000008380240A0
:105660000024F40000127A00F8B504460CB90120B9
:10567000F8BD20680F2800D803E0E621FBA008F061
:10568000E9FA207800F00100002870D0606838B195
:105690006068B0F5803F03D06068B0F5A02F00D1FE
:1056A00003E0EB21F1A008F0D5FAFE48006800F015
:1056B0000C0004280DD0FB48006800F00C000828FE
:1056C00013D1F848001F006800F48000B0F5800F87
:1056D0000BD1F44808380068C0F34040002859D086
:1056E0006068002856D10120C2E700BF6068B0F5AD
:1056F000803F08D1EB480838006840F48030E94921
:10570000083908601EE06068B0F5A02F0DD1E548AB
:105710000838006840F48020E249083908600846EB
:10572000006840F4803008600CE0DE48083800680B
:1057300020F48030DB49083908600846006820F40E
:105740008020086000BF606890B1FFF74DFC0546FF
:1057500006E0FFF749FC401B642801D9032087E7D6
:10576000D04808380068C0F340400028F1D011E06C
:10577000FFF73AFC054606E0FFF736FC401B6428BD
:1057800001D9032074E7C74808380068C0F34040D7
:105790000028F1D1207800F00200022873D1E068DF
:1057A00010B1E068012800D104E040F21D11AFA063
:1057B00008F050FA20691F2800D804E04FF48F71D8
:1057C000AAA008F047FAB748006800F00C0058B1EA
:1057D000B448006800F00C0008281CD1B148001F34
:1057E000006800F48000B0B9AE4808380068C0F323
:1057F000400020B1E068012801D0012038E7A94825
:105800000838006820F0F800216940EAC100A54985
:105810000839086037E0E06800B30120A249086059
:10582000FFF7E2FB054606E0FFF7DEFB401B022820
:1058300001D903201CE79B4808380068C0F34000EA
:105840000028F1D097480838006820F0F800216956
:1058500040EAC10093490839086014E000209249E9
:105860000860FFF7C1FB054606E0FFF7BDFB401BE4
:10587000022801D90320FBE68A4808380068C0F3F3
:1058800040000028F1D1207800F00800082837D126
:10589000606910B16069012800D104E04FF4AF7174
:1058A00072A008F0D7F96069A8B101207F490860AB
:1058B000FFF79AFB054606E0FFF796FB401B022820
:1058C00001D90320D4E677486C300068C0F340006B
:1058D0000028F1D014E0002074490860FFF784FB31
:1058E000054606E0FFF780FB401B022801D9032094
:1058F000BEE66C486C300068C0F340000028F1D16F
:10590000207800F00400042875D10027A06828B191
:10591000A068012802D0A068052800D104E04FF457
:10592000C57152A008F096F95E483830006800F062
:10593000805090B900BF002000905A48383000686D
:1059400040F080505749383108600846006800F040
:105950008050009000BF00BF01275548006800F448
:105960008070B0B95248006840F4807050490860B7
:10597000FFF73AFB054606E0FFF736FB401B02281F
:1059800001D9032074E64A48006800F480700028BA
:10599000F2D000BFA068012808D1424868300068F2
:1059A00040F001003F49683108601DE0A06805280B
:1059B0000DD13C486830006840F004003949683136
:1059C00008600846006840F0010008600CE03548B7
:1059D0006830006820F001003249683108600846EC
:1059E000006820F00400086000BFA068A8B1FFF7BD
:1059F000FBFA054609E02FE0FFF7F6FA401B41F2FB
:105A00008831884201D9032032E626486830006890
:105A1000C0F340000028EFD013E0FFF7E5FA054699
:105A200008E0FFF7E1FA401B41F28831884201D9D2
:105A300003201DE61B4868300068C0F340000028C2
:105A4000EFD1012F07D117483830006820F080507F
:105A500014493831086000BFA06928B1A069012845
:105A600002D0A069022825D12AE000002E2E2F4462
:105A70007269766572732F53544D33324634787899
:105A80005F48414C5F4472697665722F5372632F91
:105A900073746D3332663478785F68616C5F7263FB
:105AA000632E63000838024000004742800E4742E0
:105AB0000070004040F2CD11AFF2500008F0CAF87B
:105AC000A06900287ED06C48006800F00C0008280F
:105AD00079D0A069022877D1E06918B1E069B0F502
